{
	"Willow.sol": {
		"WillowIPC": {
			"abi": [
				{
					"inputs": [],
					"name": "ActorNotFound",
					"type": "error"
				},
				{
					"inputs": [],
					"name": "FailToCallActor",
					"type": "error"
				},
				{
					"inputs": [
						{
							"internalType": "uint64",
							"name": "",
							"type": "uint64"
						}
					],
					"name": "InvalidCodec",
					"type": "error"
				},
				{
					"inputs": [],
					"name": "InvalidResponseLength",
					"type": "error"
				},
				{
					"inputs": [
						{
							"internalType": "uint256",
							"name": "balance",
							"type": "uint256"
						},
						{
							"internalType": "uint256",
							"name": "value",
							"type": "uint256"
						}
					],
					"name": "NotEnoughBalance",
					"type": "error"
				},
				{
					"inputs": [],
					"name": "buffer",
					"outputs": [
						{
							"internalType": "bytes",
							"name": "",
							"type": "bytes"
						}
					],
					"stateMutability": "view",
					"type": "function"
				},
				{
					"inputs": [],
					"name": "execute",
					"outputs": [
						{
							"internalType": "bytes",
							"name": "",
							"type": "bytes"
						}
					],
					"stateMutability": "nonpayable",
					"type": "function"
				},
				{
					"inputs": [],
					"name": "num_response",
					"outputs": [
						{
							"internalType": "int256",
							"name": "",
							"type": "int256"
						}
					],
					"stateMutability": "view",
					"type": "function"
				},
				{
					"inputs": [],
					"name": "raw_response",
					"outputs": [
						{
							"internalType": "bytes",
							"name": "",
							"type": "bytes"
						}
					],
					"stateMutability": "view",
					"type": "function"
				}
			],
			"devdoc": {
				"kind": "dev",
				"methods": {},
				"version": 1
			},
			"evm": {
				"assembly": "    /* \"Willow.sol\":237:1120  contract WillowIPC {... */\n  mstore(0x40, 0x80)\n  callvalue\n  dup1\n  iszero\n  tag_1\n  jumpi\n  0x00\n  dup1\n  revert\ntag_1:\n  pop\n  dataSize(sub_0)\n  dup1\n  dataOffset(sub_0)\n  0x00\n  codecopy\n  0x00\n  return\nstop\n\nsub_0: assembly {\n        /* \"Willow.sol\":237:1120  contract WillowIPC {... */\n      mstore(0x40, 0x80)\n      callvalue\n      dup1\n      iszero\n      tag_1\n      jumpi\n      0x00\n      dup1\n      revert\n    tag_1:\n      pop\n      jumpi(tag_2, lt(calldatasize, 0x04))\n      shr(0xe0, calldataload(0x00))\n      dup1\n      0x61461954\n      eq\n      tag_3\n      jumpi\n      dup1\n      0xa6f73547\n      eq\n      tag_4\n      jumpi\n      dup1\n      0xebc55729\n      eq\n      tag_5\n      jumpi\n      dup1\n      0xedaafe20\n      eq\n      tag_6\n      jumpi\n    tag_2:\n      0x00\n      dup1\n      revert\n        /* \"Willow.sol\":462:887  function execute() public returns (bytes memory) {... */\n    tag_3:\n      tag_7\n      tag_8\n      jump\t// in\n    tag_7:\n      mload(0x40)\n      tag_9\n      swap2\n      swap1\n      tag_10\n      jump\t// in\n    tag_9:\n      mload(0x40)\n      dup1\n      swap2\n      sub\n      swap1\n      return\n        /* \"Willow.sol\":373:398  bytes public raw_response */\n    tag_4:\n      tag_11\n      tag_12\n      jump\t// in\n    tag_11:\n      mload(0x40)\n      tag_13\n      swap2\n      swap1\n      tag_10\n      jump\t// in\n    tag_13:\n      mload(0x40)\n      dup1\n      swap2\n      sub\n      swap1\n      return\n        /* \"Willow.sol\":404:430  int256 public num_response */\n    tag_5:\n      tag_14\n      tag_15\n      jump\t// in\n    tag_14:\n      mload(0x40)\n      tag_16\n      swap2\n      swap1\n      tag_17\n      jump\t// in\n    tag_16:\n      mload(0x40)\n      dup1\n      swap2\n      sub\n      swap1\n      return\n        /* \"Willow.sol\":436:455  bytes public buffer */\n    tag_6:\n      tag_18\n      tag_19\n      jump\t// in\n    tag_18:\n      mload(0x40)\n      tag_20\n      swap2\n      swap1\n      tag_10\n      jump\t// in\n    tag_20:\n      mload(0x40)\n      dup1\n      swap2\n      sub\n      swap1\n      return\n        /* \"Willow.sol\":462:887  function execute() public returns (bytes memory) {... */\n    tag_8:\n        /* \"Willow.sol\":497:509  bytes memory */\n      0x60\n        /* \"Willow.sol\":521:544  bytes memory se_request */\n      0x00\n        /* \"Willow.sol\":547:576  _serializeRandomXParameters() */\n      tag_22\n        /* \"Willow.sol\":547:574  _serializeRandomXParameters */\n      tag_23\n        /* \"Willow.sol\":547:576  _serializeRandomXParameters() */\n      jump\t// in\n    tag_22:\n        /* \"Willow.sol\":521:576  bytes memory se_request = _serializeRandomXParameters() */\n      swap1\n      pop\n        /* \"Willow.sol\":618:850  Actor.callByID(... */\n      tag_24\n        /* \"Willow.sol\":674:676  49 */\n      0x31\n        /* \"Willow.sol\":710:720  3929173870 */\n      0xea326f6e\n        /* \"filecoin-solidity-api/contracts/v0.8/utils/Misc.sol\":1288:1292  0x51 */\n      0x51\n        /* \"Willow.sol\":780:790  se_request */\n      dup5\n        /* \"Willow.sol\":804:805  0 */\n      0x00\n        /* \"Willow.sol\":819:824  false */\n      dup1\n        /* \"Willow.sol\":618:632  Actor.callByID */\n      tag_25\n        /* \"Willow.sol\":618:850  Actor.callByID(... */\n      jump\t// in\n    tag_24:\n        /* \"Willow.sol\":588:600  num_response */\n      0x01\n      0x00\n        /* \"Willow.sol\":602:614  raw_response */\n      dup1\n      0x00\n        /* \"Willow.sol\":587:850  (num_response, raw_response) = Actor.callByID(... */\n      dup5\n      swap2\n      swap1\n      pop\n      swap1\n      dup2\n      tag_26\n      swap2\n      swap1\n      tag_27\n      jump\t// in\n    tag_26:\n      pop\n      dup4\n      swap2\n      swap1\n      pop\n      sstore\n      pop\n      pop\n        /* \"Willow.sol\":868:880  raw_response */\n      0x00\n        /* \"Willow.sol\":861:880  return raw_response */\n      dup1\n      sload\n      tag_28\n      swap1\n      tag_29\n      jump\t// in\n    tag_28:\n      dup1\n      0x1f\n      add\n      0x20\n      dup1\n      swap2\n      div\n      mul\n      0x20\n      add\n      mload(0x40)\n      swap1\n      dup2\n      add\n      0x40\n      mstore\n      dup1\n      swap3\n      swap2\n      swap1\n      dup2\n      dup2\n      mstore\n      0x20\n      add\n      dup3\n      dup1\n      sload\n      tag_30\n      swap1\n      tag_29\n      jump\t// in\n    tag_30:\n      dup1\n      iszero\n      tag_31\n      jumpi\n      dup1\n      0x1f\n      lt\n      tag_32\n      jumpi\n      0x0100\n      dup1\n      dup4\n      sload\n      div\n      mul\n      dup4\n      mstore\n      swap2\n      0x20\n      add\n      swap2\n      jump(tag_31)\n    tag_32:\n      dup3\n      add\n      swap2\n      swap1\n      0x00\n      mstore\n      keccak256(0x00, 0x20)\n      swap1\n    tag_33:\n      dup2\n      sload\n      dup2\n      mstore\n      swap1\n      0x01\n      add\n      swap1\n      0x20\n      add\n      dup1\n      dup4\n      gt\n      tag_33\n      jumpi\n      dup3\n      swap1\n      sub\n      0x1f\n      and\n      dup3\n      add\n      swap2\n    tag_31:\n      pop\n      pop\n      pop\n      pop\n      pop\n      swap2\n      pop\n      pop\n        /* \"Willow.sol\":462:887  function execute() public returns (bytes memory) {... */\n      swap1\n      jump\t// out\n        /* \"Willow.sol\":373:398  bytes public raw_response */\n    tag_12:\n      0x00\n      dup1\n      sload\n      tag_34\n      swap1\n      tag_29\n      jump\t// in\n    tag_34:\n      dup1\n      0x1f\n      add\n      0x20\n      dup1\n      swap2\n      div\n      mul\n      0x20\n      add\n      mload(0x40)\n      swap1\n      dup2\n      add\n      0x40\n      mstore\n      dup1\n      swap3\n      swap2\n      swap1\n      dup2\n      dup2\n      mstore\n      0x20\n      add\n      dup3\n      dup1\n      sload\n      tag_35\n      swap1\n      tag_29\n      jump\t// in\n    tag_35:\n      dup1\n      iszero\n      tag_36\n      jumpi\n      dup1\n      0x1f\n      lt\n      tag_37\n      jumpi\n      0x0100\n      dup1\n      dup4\n      sload\n      div\n      mul\n      dup4\n      mstore\n      swap2\n      0x20\n      add\n      swap2\n      jump(tag_36)\n    tag_37:\n      dup3\n      add\n      swap2\n      swap1\n      0x00\n      mstore\n      keccak256(0x00, 0x20)\n      swap1\n    tag_38:\n      dup2\n      sload\n      dup2\n      mstore\n      swap1\n      0x01\n      add\n      swap1\n      0x20\n      add\n      dup1\n      dup4\n      gt\n      tag_38\n      jumpi\n      dup3\n      swap1\n      sub\n      0x1f\n      and\n      dup3\n      add\n      swap2\n    tag_36:\n      pop\n      pop\n      pop\n      pop\n      pop\n      dup2\n      jump\t// out\n        /* \"Willow.sol\":404:430  int256 public num_response */\n    tag_15:\n      sload(0x01)\n      dup2\n      jump\t// out\n        /* \"Willow.sol\":436:455  bytes public buffer */\n    tag_19:\n      0x02\n      dup1\n      sload\n      tag_39\n      swap1\n      tag_29\n      jump\t// in\n    tag_39:\n      dup1\n      0x1f\n      add\n      0x20\n      dup1\n      swap2\n      div\n      mul\n      0x20\n      add\n      mload(0x40)\n      swap1\n      dup2\n      add\n      0x40\n      mstore\n      dup1\n      swap3\n      swap2\n      swap1\n      dup2\n      dup2\n      mstore\n      0x20\n      add\n      dup3\n      dup1\n      sload\n      tag_40\n      swap1\n      tag_29\n      jump\t// in\n    tag_40:\n      dup1\n      iszero\n      tag_41\n      jumpi\n      dup1\n      0x1f\n      lt\n      tag_42\n      jumpi\n      0x0100\n      dup1\n      dup4\n      sload\n      div\n      mul\n      dup4\n      mstore\n      swap2\n      0x20\n      add\n      swap2\n      jump(tag_41)\n    tag_42:\n      dup3\n      add\n      swap2\n      swap1\n      0x00\n      mstore\n      keccak256(0x00, 0x20)\n      swap1\n    tag_43:\n      dup2\n      sload\n      dup2\n      mstore\n      swap1\n      0x01\n      add\n      swap1\n      0x20\n      add\n      dup1\n      dup4\n      gt\n      tag_43\n      jumpi\n      dup3\n      swap1\n      sub\n      0x1f\n      and\n      dup3\n      add\n      swap2\n    tag_41:\n      pop\n      pop\n      pop\n      pop\n      pop\n      dup2\n      jump\t// out\n        /* \"Willow.sol\":893:1117  function _serializeRandomXParameters() private returns (bytes memory) {... */\n    tag_23:\n        /* \"Willow.sol\":949:961  bytes memory */\n      0x60\n        /* \"Willow.sol\":973:989  uint256 capacity */\n      0x00\n        /* \"Willow.sol\":1004:1030  CBOR.CBORBuffer memory buf */\n      dup1\n        /* \"Willow.sol\":1033:1054  CBOR.create(capacity) */\n      tag_45\n        /* \"Willow.sol\":1045:1053  capacity */\n      dup3\n        /* \"Willow.sol\":1033:1044  CBOR.create */\n      tag_46\n        /* \"Willow.sol\":1033:1054  CBOR.create(capacity) */\n      jump\t// in\n    tag_45:\n        /* \"Willow.sol\":1004:1054  CBOR.CBORBuffer memory buf = CBOR.create(capacity) */\n      swap1\n      pop\n        /* \"Willow.sol\":1073:1083  buf.data() */\n      tag_47\n        /* \"Willow.sol\":1073:1076  buf */\n      dup2\n        /* \"Willow.sol\":1073:1081  buf.data */\n      tag_48\n        /* \"Willow.sol\":1073:1083  buf.data() */\n      jump\t// in\n    tag_47:\n        /* \"Willow.sol\":1064:1070  buffer */\n      0x02\n        /* \"Willow.sol\":1064:1083  buffer = buf.data() */\n      swap1\n      dup2\n      tag_49\n      swap2\n      swap1\n      tag_27\n      jump\t// in\n    tag_49:\n      pop\n        /* \"Willow.sol\":1100:1110  buf.data() */\n      tag_50\n        /* \"Willow.sol\":1100:1103  buf */\n      dup2\n        /* \"Willow.sol\":1100:1108  buf.data */\n      tag_48\n        /* \"Willow.sol\":1100:1110  buf.data() */\n      jump\t// in\n    tag_50:\n        /* \"Willow.sol\":1093:1110  return buf.data() */\n      swap3\n      pop\n      pop\n      pop\n        /* \"Willow.sol\":893:1117  function _serializeRandomXParameters() private returns (bytes memory) {... */\n      swap1\n      jump\t// out\n        /* \"filecoin-solidity-api/contracts/v0.8/utils/Actor.sol\":5150:5771  function callByID(... */\n    tag_25:\n        /* \"filecoin-solidity-api/contracts/v0.8/utils/Actor.sol\":5364:5370  int256 */\n      0x00\n        /* \"filecoin-solidity-api/contracts/v0.8/utils/Actor.sol\":5372:5384  bytes memory */\n      0x60\n        /* \"filecoin-solidity-api/contracts/v0.8/utils/Actor.sol\":5396:5440  validatePrecompileCall(CALL_ACTOR_ID, value) */\n      tag_52\n        /* \"filecoin-solidity-api/contracts/v0.8/utils/Actor.sol\":1344:1386  0xfe00000000000000000000000000000000000005 */\n      0xfe00000000000000000000000000000000000005\n        /* \"filecoin-solidity-api/contracts/v0.8/utils/Actor.sol\":5434:5439  value */\n      dup6\n        /* \"filecoin-solidity-api/contracts/v0.8/utils/Actor.sol\":5396:5418  validatePrecompileCall */\n      tag_53\n        /* \"filecoin-solidity-api/contracts/v0.8/utils/Actor.sol\":5396:5440  validatePrecompileCall(CALL_ACTOR_ID, value) */\n      jump\t// in\n    tag_52:\n        /* \"filecoin-solidity-api/contracts/v0.8/utils/Actor.sol\":5452:5464  bool success */\n      0x00\n        /* \"filecoin-solidity-api/contracts/v0.8/utils/Actor.sol\":5466:5483  bytes memory data */\n      dup1\n        /* \"filecoin-solidity-api/contracts/v0.8/utils/Actor.sol\":1344:1386  0xfe00000000000000000000000000000000000005 */\n      0xfe00000000000000000000000000000000000005\n        /* \"filecoin-solidity-api/contracts/v0.8/utils/Actor.sol\":5487:5522  address(CALL_ACTOR_ID).delegatecall */\n      0xffffffffffffffffffffffffffffffffffffffff\n      and\n        /* \"filecoin-solidity-api/contracts/v0.8/utils/Actor.sol\":5554:5564  method_num */\n      dup10\n        /* \"filecoin-solidity-api/contracts/v0.8/utils/Actor.sol\":5567:5572  value */\n      dup8\n        /* \"filecoin-solidity-api/contracts/v0.8/utils/Actor.sol\":5574:5585  static_call */\n      dup8\n        /* \"filecoin-solidity-api/contracts/v0.8/utils/Actor.sol\":5574:5617  static_call ? READ_ONLY_FLAG : DEFAULT_FLAG */\n      tag_54\n      jumpi\n        /* \"filecoin-solidity-api/contracts/v0.8/utils/Actor.sol\":1717:1727  0x00000000 */\n      0x00\n        /* \"filecoin-solidity-api/contracts/v0.8/utils/Actor.sol\":5574:5617  static_call ? READ_ONLY_FLAG : DEFAULT_FLAG */\n      jump(tag_55)\n    tag_54:\n        /* \"filecoin-solidity-api/contracts/v0.8/utils/Actor.sol\":1551:1561  0x00000001 */\n      0x01\n        /* \"filecoin-solidity-api/contracts/v0.8/utils/Actor.sol\":5574:5617  static_call ? READ_ONLY_FLAG : DEFAULT_FLAG */\n    tag_55:\n        /* \"filecoin-solidity-api/contracts/v0.8/utils/Actor.sol\":5619:5624  codec */\n      dup12\n        /* \"filecoin-solidity-api/contracts/v0.8/utils/Actor.sol\":5626:5637  raw_request */\n      dup12\n        /* \"filecoin-solidity-api/contracts/v0.8/utils/Actor.sol\":5639:5645  target */\n      dup16\n        /* \"filecoin-solidity-api/contracts/v0.8/utils/Actor.sol\":5536:5646  abi.encode(uint64(method_num), value, static_call ? READ_ONLY_FLAG : DEFAULT_FLAG, codec, raw_request, target) */\n      add(0x20, mload(0x40))\n      tag_56\n      swap7\n      swap6\n      swap5\n      swap4\n      swap3\n      swap2\n      swap1\n      tag_57\n      jump\t// in\n    tag_56:\n      mload(0x40)\n      0x20\n      dup2\n      dup4\n      sub\n      sub\n      dup2\n      mstore\n      swap1\n      0x40\n      mstore\n        /* \"filecoin-solidity-api/contracts/v0.8/utils/Actor.sol\":5487:5656  address(CALL_ACTOR_ID).delegatecall(... */\n      mload(0x40)\n      tag_58\n      swap2\n      swap1\n      tag_59\n      jump\t// in\n    tag_58:\n      0x00\n      mload(0x40)\n      dup1\n      dup4\n      sub\n      dup2\n      dup6\n      gas\n      delegatecall\n      swap2\n      pop\n      pop\n      returndatasize\n      dup1\n      0x00\n      dup2\n      eq\n      tag_62\n      jumpi\n      mload(0x40)\n      swap2\n      pop\n      and(add(returndatasize, 0x3f), not(0x1f))\n      dup3\n      add\n      0x40\n      mstore\n      returndatasize\n      dup3\n      mstore\n      returndatasize\n      0x00\n      0x20\n      dup5\n      add\n      returndatacopy\n      jump(tag_61)\n    tag_62:\n      0x60\n      swap2\n      pop\n    tag_61:\n      pop\n        /* \"filecoin-solidity-api/contracts/v0.8/utils/Actor.sol\":5451:5656  (bool success, bytes memory data) = address(CALL_ACTOR_ID).delegatecall(... */\n      swap2\n      pop\n      swap2\n      pop\n        /* \"filecoin-solidity-api/contracts/v0.8/utils/Actor.sol\":5671:5678  success */\n      dup2\n        /* \"filecoin-solidity-api/contracts/v0.8/utils/Actor.sol\":5666:5729  if (!success) {... */\n      tag_63\n      jumpi\n        /* \"filecoin-solidity-api/contracts/v0.8/utils/Actor.sol\":5701:5718  FailToCallActor() */\n      mload(0x40)\n      0x8a7db5bf00000000000000000000000000000000000000000000000000000000\n      dup2\n      mstore\n      0x04\n      add\n      mload(0x40)\n      dup1\n      swap2\n      sub\n      swap1\n      revert\n        /* \"filecoin-solidity-api/contracts/v0.8/utils/Actor.sol\":5666:5729  if (!success) {... */\n    tag_63:\n        /* \"filecoin-solidity-api/contracts/v0.8/utils/Actor.sol\":5746:5764  readRespData(data) */\n      tag_64\n        /* \"filecoin-solidity-api/contracts/v0.8/utils/Actor.sol\":5759:5763  data */\n      dup2\n        /* \"filecoin-solidity-api/contracts/v0.8/utils/Actor.sol\":5746:5758  readRespData */\n      tag_65\n        /* \"filecoin-solidity-api/contracts/v0.8/utils/Actor.sol\":5746:5764  readRespData(data) */\n      jump\t// in\n    tag_64:\n        /* \"filecoin-solidity-api/contracts/v0.8/utils/Actor.sol\":5739:5764  return readRespData(data) */\n      swap4\n      pop\n      swap4\n      pop\n      pop\n      pop\n        /* \"filecoin-solidity-api/contracts/v0.8/utils/Actor.sol\":5150:5771  function callByID(... */\n      swap7\n      pop\n      swap7\n      swap5\n      pop\n      pop\n      pop\n      pop\n      pop\n      jump\t// out\n        /* \"CBOR.sol\":1487:1660  function create(uint256 capacity) internal pure returns(CBORBuffer memory cbor) {... */\n    tag_46:\n        /* \"CBOR.sol\":1543:1565  CBORBuffer memory cbor */\n      tag_66\n      tag_67\n      jump\t// in\n    tag_66:\n        /* \"CBOR.sol\":1577:1608  Buffer.init(cbor.buf, capacity) */\n      tag_69\n        /* \"CBOR.sol\":1589:1593  cbor */\n      dup2\n        /* \"CBOR.sol\":1589:1597  cbor.buf */\n      0x00\n      add\n      mload\n        /* \"CBOR.sol\":1599:1607  capacity */\n      dup4\n        /* \"CBOR.sol\":1577:1588  Buffer.init */\n      tag_70\n        /* \"CBOR.sol\":1577:1608  Buffer.init(cbor.buf, capacity) */\n      jump\t// in\n    tag_69:\n      pop\n        /* \"CBOR.sol\":1631:1632  0 */\n      0x00\n        /* \"CBOR.sol\":1618:1622  cbor */\n      dup2\n        /* \"CBOR.sol\":1618:1628  cbor.depth */\n      0x20\n      add\n        /* \"CBOR.sol\":1618:1632  cbor.depth = 0 */\n      dup2\n      dup2\n      mstore\n      pop\n      pop\n        /* \"CBOR.sol\":1487:1660  function create(uint256 capacity) internal pure returns(CBORBuffer memory cbor) {... */\n      swap2\n      swap1\n      pop\n      jump\t// out\n        /* \"CBOR.sol\":1666:1823  function data(CBORBuffer memory buf) internal pure returns(bytes memory) {... */\n    tag_48:\n        /* \"CBOR.sol\":1725:1737  bytes memory */\n      0x60\n        /* \"CBOR.sol\":1770:1771  0 */\n      0x00\n        /* \"CBOR.sol\":1757:1760  buf */\n      dup3\n        /* \"CBOR.sol\":1757:1766  buf.depth */\n      0x20\n      add\n      mload\n        /* \"CBOR.sol\":1757:1771  buf.depth == 0 */\n      eq\n        /* \"CBOR.sol\":1749:1788  require(buf.depth == 0, \"Invalid CBOR\") */\n      tag_72\n      jumpi\n      mload(0x40)\n      0x08c379a000000000000000000000000000000000000000000000000000000000\n      dup2\n      mstore\n      0x04\n      add\n      tag_73\n      swap1\n      tag_74\n      jump\t// in\n    tag_73:\n      mload(0x40)\n      dup1\n      swap2\n      sub\n      swap1\n      revert\n    tag_72:\n        /* \"CBOR.sol\":1805:1808  buf */\n      dup2\n        /* \"CBOR.sol\":1805:1812  buf.buf */\n      0x00\n      add\n      mload\n        /* \"CBOR.sol\":1805:1816  buf.buf.buf */\n      0x00\n      add\n      mload\n        /* \"CBOR.sol\":1798:1816  return buf.buf.buf */\n      swap1\n      pop\n        /* \"CBOR.sol\":1666:1823  function data(CBORBuffer memory buf) internal pure returns(bytes memory) {... */\n      swap2\n      swap1\n      pop\n      jump\t// out\n        /* \"filecoin-solidity-api/contracts/v0.8/utils/Actor.sol\":7032:7382  function validatePrecompileCall(address addr, uint256 value) internal view {... */\n    tag_53:\n        /* \"filecoin-solidity-api/contracts/v0.8/utils/Actor.sol\":7117:7129  uint balance */\n      0x00\n        /* \"filecoin-solidity-api/contracts/v0.8/utils/Actor.sol\":7132:7153  address(this).balance */\n      selfbalance\n        /* \"filecoin-solidity-api/contracts/v0.8/utils/Actor.sol\":7117:7153  uint balance = address(this).balance */\n      swap1\n      pop\n        /* \"filecoin-solidity-api/contracts/v0.8/utils/Actor.sol\":7177:7182  value */\n      dup2\n        /* \"filecoin-solidity-api/contracts/v0.8/utils/Actor.sol\":7167:7174  balance */\n      dup2\n        /* \"filecoin-solidity-api/contracts/v0.8/utils/Actor.sol\":7167:7182  balance < value */\n      lt\n        /* \"filecoin-solidity-api/contracts/v0.8/utils/Actor.sol\":7163:7248  if (balance < value) {... */\n      iszero\n      tag_76\n      jumpi\n        /* \"filecoin-solidity-api/contracts/v0.8/utils/Actor.sol\":7222:7229  balance */\n      dup1\n        /* \"filecoin-solidity-api/contracts/v0.8/utils/Actor.sol\":7231:7236  value */\n      dup3\n        /* \"filecoin-solidity-api/contracts/v0.8/utils/Actor.sol\":7205:7237  NotEnoughBalance(balance, value) */\n      mload(0x40)\n      0x8f0f420600000000000000000000000000000000000000000000000000000000\n      dup2\n      mstore\n      0x04\n      add\n      tag_77\n      swap3\n      swap2\n      swap1\n      tag_78\n      jump\t// in\n    tag_77:\n      mload(0x40)\n      dup1\n      swap2\n      sub\n      swap1\n      revert\n        /* \"filecoin-solidity-api/contracts/v0.8/utils/Actor.sol\":7163:7248  if (balance < value) {... */\n    tag_76:\n        /* \"filecoin-solidity-api/contracts/v0.8/utils/Actor.sol\":7258:7274  bool actorExists */\n      0x00\n        /* \"filecoin-solidity-api/contracts/v0.8/utils/Actor.sol\":7277:7301  Misc.addressExists(addr) */\n      tag_79\n        /* \"filecoin-solidity-api/contracts/v0.8/utils/Actor.sol\":7296:7300  addr */\n      dup5\n        /* \"filecoin-solidity-api/contracts/v0.8/utils/Actor.sol\":7277:7295  Misc.addressExists */\n      tag_80\n        /* \"filecoin-solidity-api/contracts/v0.8/utils/Actor.sol\":7277:7301  Misc.addressExists(addr) */\n      jump\t// in\n    tag_79:\n        /* \"filecoin-solidity-api/contracts/v0.8/utils/Actor.sol\":7258:7301  bool actorExists = Misc.addressExists(addr) */\n      swap1\n      pop\n        /* \"filecoin-solidity-api/contracts/v0.8/utils/Actor.sol\":7316:7327  actorExists */\n      dup1\n        /* \"filecoin-solidity-api/contracts/v0.8/utils/Actor.sol\":7311:7376  if (!actorExists) {... */\n      tag_81\n      jumpi\n        /* \"filecoin-solidity-api/contracts/v0.8/utils/Actor.sol\":7350:7365  ActorNotFound() */\n      mload(0x40)\n      0x64d954b000000000000000000000000000000000000000000000000000000000\n      dup2\n      mstore\n      0x04\n      add\n      mload(0x40)\n      dup1\n      swap2\n      sub\n      swap1\n      revert\n        /* \"filecoin-solidity-api/contracts/v0.8/utils/Actor.sol\":7311:7376  if (!actorExists) {... */\n    tag_81:\n        /* \"filecoin-solidity-api/contracts/v0.8/utils/Actor.sol\":7107:7382  {... */\n      pop\n      pop\n        /* \"filecoin-solidity-api/contracts/v0.8/utils/Actor.sol\":7032:7382  function validatePrecompileCall(address addr, uint256 value) internal view {... */\n      pop\n      pop\n      jump\t// out\n        /* \"filecoin-solidity-api/contracts/v0.8/utils/Actor.sol\":9676:10365  function readRespData(bytes memory raw_response) internal pure returns (int256, bytes memory) {... */\n    tag_65:\n        /* \"filecoin-solidity-api/contracts/v0.8/utils/Actor.sol\":9748:9754  int256 */\n      0x00\n        /* \"filecoin-solidity-api/contracts/v0.8/utils/Actor.sol\":9756:9768  bytes memory */\n      0x60\n        /* \"filecoin-solidity-api/contracts/v0.8/utils/Actor.sol\":9781:9792  int256 exit */\n      0x00\n        /* \"filecoin-solidity-api/contracts/v0.8/utils/Actor.sol\":9794:9813  uint64 return_codec */\n      dup1\n        /* \"filecoin-solidity-api/contracts/v0.8/utils/Actor.sol\":9815:9840  bytes memory return_value */\n      0x00\n        /* \"filecoin-solidity-api/contracts/v0.8/utils/Actor.sol\":9855:9867  raw_response */\n      dup6\n        /* \"filecoin-solidity-api/contracts/v0.8/utils/Actor.sol\":9844:9893  abi.decode(raw_response, (int256, uint64, bytes)) */\n      dup1\n      0x20\n      add\n      swap1\n      mload\n      dup2\n      add\n      swap1\n      tag_83\n      swap2\n      swap1\n      tag_84\n      jump\t// in\n    tag_83:\n        /* \"filecoin-solidity-api/contracts/v0.8/utils/Actor.sol\":9780:9893  (int256 exit, uint64 return_codec, bytes memory return_value) = abi.decode(raw_response, (int256, uint64, bytes)) */\n      swap3\n      pop\n      swap3\n      pop\n      swap3\n      pop\n        /* \"filecoin-solidity-api/contracts/v0.8/utils/Misc.sol\":1327:1331  0x00 */\n      0x00\n        /* \"filecoin-solidity-api/contracts/v0.8/utils/Actor.sol\":9908:9939  return_codec == Misc.NONE_CODEC */\n      0xffffffffffffffff\n      and\n        /* \"filecoin-solidity-api/contracts/v0.8/utils/Actor.sol\":9908:9920  return_codec */\n      dup3\n        /* \"filecoin-solidity-api/contracts/v0.8/utils/Actor.sol\":9908:9939  return_codec == Misc.NONE_CODEC */\n      0xffffffffffffffff\n      and\n      sub\n        /* \"filecoin-solidity-api/contracts/v0.8/utils/Actor.sol\":9904:10321  if (return_codec == Misc.NONE_CODEC) {... */\n      tag_85\n      jumpi\n        /* \"filecoin-solidity-api/contracts/v0.8/utils/Actor.sol\":9982:9983  0 */\n      0x00\n        /* \"filecoin-solidity-api/contracts/v0.8/utils/Actor.sol\":9959:9971  return_value */\n      dup2\n        /* \"filecoin-solidity-api/contracts/v0.8/utils/Actor.sol\":9959:9978  return_value.length */\n      mload\n        /* \"filecoin-solidity-api/contracts/v0.8/utils/Actor.sol\":9959:9983  return_value.length != 0 */\n      eq\n        /* \"filecoin-solidity-api/contracts/v0.8/utils/Actor.sol\":9955:10048  if (return_value.length != 0) {... */\n      tag_86\n      jumpi\n        /* \"filecoin-solidity-api/contracts/v0.8/utils/Actor.sol\":10010:10033  InvalidResponseLength() */\n      mload(0x40)\n      0x0e74990700000000000000000000000000000000000000000000000000000000\n      dup2\n      mstore\n      0x04\n      add\n      mload(0x40)\n      dup1\n      swap2\n      sub\n      swap1\n      revert\n        /* \"filecoin-solidity-api/contracts/v0.8/utils/Actor.sol\":9955:10048  if (return_value.length != 0) {... */\n    tag_86:\n        /* \"filecoin-solidity-api/contracts/v0.8/utils/Actor.sol\":9904:10321  if (return_codec == Misc.NONE_CODEC) {... */\n      jump(tag_87)\n    tag_85:\n        /* \"filecoin-solidity-api/contracts/v0.8/utils/Misc.sol\":1288:1292  0x51 */\n      0x51\n        /* \"filecoin-solidity-api/contracts/v0.8/utils/Actor.sol\":10068:10099  return_codec == Misc.CBOR_CODEC */\n      0xffffffffffffffff\n      and\n        /* \"filecoin-solidity-api/contracts/v0.8/utils/Actor.sol\":10068:10080  return_codec */\n      dup3\n        /* \"filecoin-solidity-api/contracts/v0.8/utils/Actor.sol\":10068:10099  return_codec == Misc.CBOR_CODEC */\n      0xffffffffffffffff\n      and\n      eq\n        /* \"filecoin-solidity-api/contracts/v0.8/utils/Actor.sol\":10068:10138  return_codec == Misc.CBOR_CODEC || return_codec == Misc.DAG_CBOR_CODEC */\n      dup1\n      tag_88\n      jumpi\n      pop\n        /* \"filecoin-solidity-api/contracts/v0.8/utils/Misc.sol\":1249:1253  0x71 */\n      0x71\n        /* \"filecoin-solidity-api/contracts/v0.8/utils/Actor.sol\":10103:10138  return_codec == Misc.DAG_CBOR_CODEC */\n      0xffffffffffffffff\n      and\n        /* \"filecoin-solidity-api/contracts/v0.8/utils/Actor.sol\":10103:10115  return_codec */\n      dup3\n        /* \"filecoin-solidity-api/contracts/v0.8/utils/Actor.sol\":10103:10138  return_codec == Misc.DAG_CBOR_CODEC */\n      0xffffffffffffffff\n      and\n      eq\n        /* \"filecoin-solidity-api/contracts/v0.8/utils/Actor.sol\":10068:10138  return_codec == Misc.CBOR_CODEC || return_codec == Misc.DAG_CBOR_CODEC */\n    tag_88:\n        /* \"filecoin-solidity-api/contracts/v0.8/utils/Actor.sol\":10064:10321  if (return_codec == Misc.CBOR_CODEC || return_codec == Misc.DAG_CBOR_CODEC) {... */\n      iszero\n      tag_89\n      jumpi\n        /* \"filecoin-solidity-api/contracts/v0.8/utils/Actor.sol\":10181:10182  0 */\n      0x00\n        /* \"filecoin-solidity-api/contracts/v0.8/utils/Actor.sol\":10158:10170  return_value */\n      dup2\n        /* \"filecoin-solidity-api/contracts/v0.8/utils/Actor.sol\":10158:10177  return_value.length */\n      mload\n        /* \"filecoin-solidity-api/contracts/v0.8/utils/Actor.sol\":10158:10182  return_value.length == 0 */\n      sub\n        /* \"filecoin-solidity-api/contracts/v0.8/utils/Actor.sol\":10154:10247  if (return_value.length == 0) {... */\n      tag_90\n      jumpi\n        /* \"filecoin-solidity-api/contracts/v0.8/utils/Actor.sol\":10209:10232  InvalidResponseLength() */\n      mload(0x40)\n      0x0e74990700000000000000000000000000000000000000000000000000000000\n      dup2\n      mstore\n      0x04\n      add\n      mload(0x40)\n      dup1\n      swap2\n      sub\n      swap1\n      revert\n        /* \"filecoin-solidity-api/contracts/v0.8/utils/Actor.sol\":10154:10247  if (return_value.length == 0) {... */\n    tag_90:\n        /* \"filecoin-solidity-api/contracts/v0.8/utils/Actor.sol\":10064:10321  if (return_codec == Misc.CBOR_CODEC || return_codec == Misc.DAG_CBOR_CODEC) {... */\n      jump(tag_91)\n    tag_89:\n        /* \"filecoin-solidity-api/contracts/v0.8/utils/Actor.sol\":10297:10309  return_codec */\n      dup2\n        /* \"filecoin-solidity-api/contracts/v0.8/utils/Actor.sol\":10284:10310  InvalidCodec(return_codec) */\n      mload(0x40)\n      0xf1f6bced00000000000000000000000000000000000000000000000000000000\n      dup2\n      mstore\n      0x04\n      add\n      tag_92\n      swap2\n      swap1\n      tag_93\n      jump\t// in\n    tag_92:\n      mload(0x40)\n      dup1\n      swap2\n      sub\n      swap1\n      revert\n        /* \"filecoin-solidity-api/contracts/v0.8/utils/Actor.sol\":10064:10321  if (return_codec == Misc.CBOR_CODEC || return_codec == Misc.DAG_CBOR_CODEC) {... */\n    tag_91:\n        /* \"filecoin-solidity-api/contracts/v0.8/utils/Actor.sol\":9904:10321  if (return_codec == Misc.NONE_CODEC) {... */\n    tag_87:\n        /* \"filecoin-solidity-api/contracts/v0.8/utils/Actor.sol\":10339:10343  exit */\n      dup3\n        /* \"filecoin-solidity-api/contracts/v0.8/utils/Actor.sol\":10345:10357  return_value */\n      dup2\n        /* \"filecoin-solidity-api/contracts/v0.8/utils/Actor.sol\":10331:10358  return (exit, return_value) */\n      swap5\n      pop\n      swap5\n      pop\n      pop\n      pop\n      pop\n        /* \"filecoin-solidity-api/contracts/v0.8/utils/Actor.sol\":9676:10365  function readRespData(bytes memory raw_response) internal pure returns (int256, bytes memory) {... */\n      swap2\n      pop\n      swap2\n      jump\t// out\n        /* \"@ensdomains/buffer/contracts/Buffer.sol\":1020:1575  function init(buffer memory buf, uint capacity) internal pure returns(buffer memory) {... */\n    tag_70:\n        /* \"@ensdomains/buffer/contracts/Buffer.sol\":1090:1103  buffer memory */\n      tag_94\n      tag_95\n      jump\t// in\n    tag_94:\n        /* \"@ensdomains/buffer/contracts/Buffer.sol\":1136:1137  0 */\n      0x00\n        /* \"@ensdomains/buffer/contracts/Buffer.sol\":1130:1132  32 */\n      0x20\n        /* \"@ensdomains/buffer/contracts/Buffer.sol\":1119:1127  capacity */\n      dup4\n        /* \"@ensdomains/buffer/contracts/Buffer.sol\":1119:1132  capacity % 32 */\n      tag_97\n      swap2\n      swap1\n      tag_98\n      jump\t// in\n    tag_97:\n        /* \"@ensdomains/buffer/contracts/Buffer.sol\":1119:1137  capacity % 32 != 0 */\n      eq\n        /* \"@ensdomains/buffer/contracts/Buffer.sol\":1115:1196  if (capacity % 32 != 0) {... */\n      tag_99\n      jumpi\n        /* \"@ensdomains/buffer/contracts/Buffer.sol\":1182:1184  32 */\n      0x20\n        /* \"@ensdomains/buffer/contracts/Buffer.sol\":1171:1179  capacity */\n      dup3\n        /* \"@ensdomains/buffer/contracts/Buffer.sol\":1171:1184  capacity % 32 */\n      tag_100\n      swap2\n      swap1\n      tag_98\n      jump\t// in\n    tag_100:\n        /* \"@ensdomains/buffer/contracts/Buffer.sol\":1165:1167  32 */\n      0x20\n        /* \"@ensdomains/buffer/contracts/Buffer.sol\":1165:1185  32 - (capacity % 32) */\n      tag_101\n      swap2\n      swap1\n      tag_102\n      jump\t// in\n    tag_101:\n        /* \"@ensdomains/buffer/contracts/Buffer.sol\":1153:1185  capacity += 32 - (capacity % 32) */\n      dup3\n      tag_103\n      swap2\n      swap1\n      tag_104\n      jump\t// in\n    tag_103:\n      swap2\n      pop\n        /* \"@ensdomains/buffer/contracts/Buffer.sol\":1115:1196  if (capacity % 32 != 0) {... */\n    tag_99:\n        /* \"@ensdomains/buffer/contracts/Buffer.sol\":1266:1274  capacity */\n      dup2\n        /* \"@ensdomains/buffer/contracts/Buffer.sol\":1251:1254  buf */\n      dup4\n        /* \"@ensdomains/buffer/contracts/Buffer.sol\":1251:1263  buf.capacity */\n      0x20\n      add\n        /* \"@ensdomains/buffer/contracts/Buffer.sol\":1251:1274  buf.capacity = capacity */\n      dup2\n      dup2\n      mstore\n      pop\n      pop\n        /* \"@ensdomains/buffer/contracts/Buffer.sol\":1324:1328  0x40 */\n      0x40\n        /* \"@ensdomains/buffer/contracts/Buffer.sol\":1318:1329  mload(0x40) */\n      mload\n        /* \"@ensdomains/buffer/contracts/Buffer.sol\":1354:1357  ptr */\n      dup1\n        /* \"@ensdomains/buffer/contracts/Buffer.sol\":1349:1352  buf */\n      dup5\n        /* \"@ensdomains/buffer/contracts/Buffer.sol\":1342:1358  mstore(buf, ptr) */\n      mstore\n        /* \"@ensdomains/buffer/contracts/Buffer.sol\":1383:1384  0 */\n      0x00\n        /* \"@ensdomains/buffer/contracts/Buffer.sol\":1378:1381  ptr */\n      dup2\n        /* \"@ensdomains/buffer/contracts/Buffer.sol\":1371:1385  mstore(ptr, 0) */\n      mstore\n        /* \"@ensdomains/buffer/contracts/Buffer.sol\":1426:1434  capacity */\n      dup3\n        /* \"@ensdomains/buffer/contracts/Buffer.sol\":1421:1424  ptr */\n      dup2\n        /* \"@ensdomains/buffer/contracts/Buffer.sol\":1417:1435  add(ptr, capacity) */\n      add\n        /* \"@ensdomains/buffer/contracts/Buffer.sol\":1413:1415  32 */\n      0x20\n        /* \"@ensdomains/buffer/contracts/Buffer.sol\":1409:1436  add(32, add(ptr, capacity)) */\n      add\n        /* \"@ensdomains/buffer/contracts/Buffer.sol\":1460:1463  ptr */\n      dup2\n        /* \"@ensdomains/buffer/contracts/Buffer.sol\":1455:1458  fpm */\n      dup2\n        /* \"@ensdomains/buffer/contracts/Buffer.sol\":1452:1464  lt(fpm, ptr) */\n      lt\n        /* \"@ensdomains/buffer/contracts/Buffer.sol\":1449:1509  if lt(fpm, ptr) {... */\n      iszero\n      tag_105\n      jumpi\n        /* \"@ensdomains/buffer/contracts/Buffer.sol\":1493:1494  0 */\n      0x00\n        /* \"@ensdomains/buffer/contracts/Buffer.sol\":1490:1491  0 */\n      dup1\n        /* \"@ensdomains/buffer/contracts/Buffer.sol\":1483:1495  revert(0, 0) */\n      revert\n        /* \"@ensdomains/buffer/contracts/Buffer.sol\":1449:1509  if lt(fpm, ptr) {... */\n    tag_105:\n        /* \"@ensdomains/buffer/contracts/Buffer.sol\":1535:1538  fpm */\n      dup1\n        /* \"@ensdomains/buffer/contracts/Buffer.sol\":1529:1533  0x40 */\n      0x40\n        /* \"@ensdomains/buffer/contracts/Buffer.sol\":1522:1539  mstore(0x40, fpm) */\n      mstore\n        /* \"@ensdomains/buffer/contracts/Buffer.sol\":1293:1549  {... */\n      pop\n      pop\n        /* \"@ensdomains/buffer/contracts/Buffer.sol\":1565:1568  buf */\n      dup3\n        /* \"@ensdomains/buffer/contracts/Buffer.sol\":1558:1568  return buf */\n      swap1\n      pop\n        /* \"@ensdomains/buffer/contracts/Buffer.sol\":1020:1575  function init(buffer memory buf, uint capacity) internal pure returns(buffer memory) {... */\n      swap3\n      swap2\n      pop\n      pop\n      jump\t// out\n        /* \"filecoin-solidity-api/contracts/v0.8/utils/Misc.sol\":2148:2350  function addressExists(address addr) internal view returns (bool) {... */\n    tag_80:\n        /* \"filecoin-solidity-api/contracts/v0.8/utils/Misc.sol\":2208:2212  bool */\n      0x00\n        /* \"filecoin-solidity-api/contracts/v0.8/utils/Misc.sol\":2224:2240  bytes32 codehash */\n      dup1\n        /* \"filecoin-solidity-api/contracts/v0.8/utils/Misc.sol\":2297:2301  addr */\n      dup3\n        /* \"filecoin-solidity-api/contracts/v0.8/utils/Misc.sol\":2285:2302  extcodehash(addr) */\n      extcodehash\n        /* \"filecoin-solidity-api/contracts/v0.8/utils/Misc.sol\":2273:2302  codehash := extcodehash(addr) */\n      swap1\n      pop\n        /* \"filecoin-solidity-api/contracts/v0.8/utils/Misc.sol\":2340:2343  0x0 */\n      0x00\n        /* \"filecoin-solidity-api/contracts/v0.8/utils/Misc.sol\":2328:2343  codehash != 0x0 */\n      dup1\n      shl\n        /* \"filecoin-solidity-api/contracts/v0.8/utils/Misc.sol\":2328:2336  codehash */\n      dup2\n        /* \"filecoin-solidity-api/contracts/v0.8/utils/Misc.sol\":2328:2343  codehash != 0x0 */\n      eq\n      iszero\n        /* \"filecoin-solidity-api/contracts/v0.8/utils/Misc.sol\":2321:2343  return codehash != 0x0 */\n      swap2\n      pop\n      pop\n        /* \"filecoin-solidity-api/contracts/v0.8/utils/Misc.sol\":2148:2350  function addressExists(address addr) internal view returns (bool) {... */\n      swap2\n      swap1\n      pop\n      jump\t// out\n    tag_67:\n      mload(0x40)\n      dup1\n      0x40\n      add\n      0x40\n      mstore\n      dup1\n      tag_107\n      tag_95\n      jump\t// in\n    tag_107:\n      dup2\n      mstore\n      0x20\n      add\n      0x00\n      dup2\n      mstore\n      pop\n      swap1\n      jump\t// out\n    tag_95:\n      mload(0x40)\n      dup1\n      0x40\n      add\n      0x40\n      mstore\n      dup1\n      0x60\n      dup2\n      mstore\n      0x20\n      add\n      0x00\n      dup2\n      mstore\n      pop\n      swap1\n      jump\t// out\n        /* \"#utility.yul\":7:105   */\n    tag_108:\n        /* \"#utility.yul\":58:64   */\n      0x00\n        /* \"#utility.yul\":92:97   */\n      dup2\n        /* \"#utility.yul\":86:98   */\n      mload\n        /* \"#utility.yul\":76:98   */\n      swap1\n      pop\n        /* \"#utility.yul\":7:105   */\n      swap2\n      swap1\n      pop\n      jump\t// out\n        /* \"#utility.yul\":111:279   */\n    tag_109:\n        /* \"#utility.yul\":194:205   */\n      0x00\n        /* \"#utility.yul\":228:234   */\n      dup3\n        /* \"#utility.yul\":223:226   */\n      dup3\n        /* \"#utility.yul\":216:235   */\n      mstore\n        /* \"#utility.yul\":268:272   */\n      0x20\n        /* \"#utility.yul\":263:266   */\n      dup3\n        /* \"#utility.yul\":259:273   */\n      add\n        /* \"#utility.yul\":244:273   */\n      swap1\n      pop\n        /* \"#utility.yul\":111:279   */\n      swap3\n      swap2\n      pop\n      pop\n      jump\t// out\n        /* \"#utility.yul\":285:531   */\n    tag_110:\n        /* \"#utility.yul\":366:367   */\n      0x00\n        /* \"#utility.yul\":376:489   */\n    tag_163:\n        /* \"#utility.yul\":390:396   */\n      dup4\n        /* \"#utility.yul\":387:388   */\n      dup2\n        /* \"#utility.yul\":384:397   */\n      lt\n        /* \"#utility.yul\":376:489   */\n      iszero\n      tag_165\n      jumpi\n        /* \"#utility.yul\":475:476   */\n      dup1\n        /* \"#utility.yul\":470:473   */\n      dup3\n        /* \"#utility.yul\":466:477   */\n      add\n        /* \"#utility.yul\":460:478   */\n      mload\n        /* \"#utility.yul\":456:457   */\n      dup2\n        /* \"#utility.yul\":451:454   */\n      dup5\n        /* \"#utility.yul\":447:458   */\n      add\n        /* \"#utility.yul\":440:479   */\n      mstore\n        /* \"#utility.yul\":412:414   */\n      0x20\n        /* \"#utility.yul\":409:410   */\n      dup2\n        /* \"#utility.yul\":405:415   */\n      add\n        /* \"#utility.yul\":400:415   */\n      swap1\n      pop\n        /* \"#utility.yul\":376:489   */\n      jump(tag_163)\n    tag_165:\n        /* \"#utility.yul\":523:524   */\n      0x00\n        /* \"#utility.yul\":514:520   */\n      dup5\n        /* \"#utility.yul\":509:512   */\n      dup5\n        /* \"#utility.yul\":505:521   */\n      add\n        /* \"#utility.yul\":498:525   */\n      mstore\n        /* \"#utility.yul\":347:531   */\n      pop\n        /* \"#utility.yul\":285:531   */\n      pop\n      pop\n      pop\n      jump\t// out\n        /* \"#utility.yul\":537:639   */\n    tag_111:\n        /* \"#utility.yul\":578:584   */\n      0x00\n        /* \"#utility.yul\":629:631   */\n      0x1f\n        /* \"#utility.yul\":625:632   */\n      not\n        /* \"#utility.yul\":620:622   */\n      0x1f\n        /* \"#utility.yul\":613:618   */\n      dup4\n        /* \"#utility.yul\":609:623   */\n      add\n        /* \"#utility.yul\":605:633   */\n      and\n        /* \"#utility.yul\":595:633   */\n      swap1\n      pop\n        /* \"#utility.yul\":537:639   */\n      swap2\n      swap1\n      pop\n      jump\t// out\n        /* \"#utility.yul\":645:1018   */\n    tag_112:\n        /* \"#utility.yul\":731:734   */\n      0x00\n        /* \"#utility.yul\":759:797   */\n      tag_168\n        /* \"#utility.yul\":791:796   */\n      dup3\n        /* \"#utility.yul\":759:797   */\n      tag_108\n      jump\t// in\n    tag_168:\n        /* \"#utility.yul\":813:883   */\n      tag_169\n        /* \"#utility.yul\":876:882   */\n      dup2\n        /* \"#utility.yul\":871:874   */\n      dup6\n        /* \"#utility.yul\":813:883   */\n      tag_109\n      jump\t// in\n    tag_169:\n        /* \"#utility.yul\":806:883   */\n      swap4\n      pop\n        /* \"#utility.yul\":892:957   */\n      tag_170\n        /* \"#utility.yul\":950:956   */\n      dup2\n        /* \"#utility.yul\":945:948   */\n      dup6\n        /* \"#utility.yul\":938:942   */\n      0x20\n        /* \"#utility.yul\":931:936   */\n      dup7\n        /* \"#utility.yul\":927:943   */\n      add\n        /* \"#utility.yul\":892:957   */\n      tag_110\n      jump\t// in\n    tag_170:\n        /* \"#utility.yul\":982:1011   */\n      tag_171\n        /* \"#utility.yul\":1004:1010   */\n      dup2\n        /* \"#utility.yul\":982:1011   */\n      tag_111\n      jump\t// in\n    tag_171:\n        /* \"#utility.yul\":977:980   */\n      dup5\n        /* \"#utility.yul\":973:1012   */\n      add\n        /* \"#utility.yul\":966:1012   */\n      swap2\n      pop\n        /* \"#utility.yul\":735:1018   */\n      pop\n        /* \"#utility.yul\":645:1018   */\n      swap3\n      swap2\n      pop\n      pop\n      jump\t// out\n        /* \"#utility.yul\":1024:1333   */\n    tag_10:\n        /* \"#utility.yul\":1135:1139   */\n      0x00\n        /* \"#utility.yul\":1173:1175   */\n      0x20\n        /* \"#utility.yul\":1162:1171   */\n      dup3\n        /* \"#utility.yul\":1158:1176   */\n      add\n        /* \"#utility.yul\":1150:1176   */\n      swap1\n      pop\n        /* \"#utility.yul\":1222:1231   */\n      dup2\n        /* \"#utility.yul\":1216:1220   */\n      dup2\n        /* \"#utility.yul\":1212:1232   */\n      sub\n        /* \"#utility.yul\":1208:1209   */\n      0x00\n        /* \"#utility.yul\":1197:1206   */\n      dup4\n        /* \"#utility.yul\":1193:1210   */\n      add\n        /* \"#utility.yul\":1186:1233   */\n      mstore\n        /* \"#utility.yul\":1250:1326   */\n      tag_173\n        /* \"#utility.yul\":1321:1325   */\n      dup2\n        /* \"#utility.yul\":1312:1318   */\n      dup5\n        /* \"#utility.yul\":1250:1326   */\n      tag_112\n      jump\t// in\n    tag_173:\n        /* \"#utility.yul\":1242:1326   */\n      swap1\n      pop\n        /* \"#utility.yul\":1024:1333   */\n      swap3\n      swap2\n      pop\n      pop\n      jump\t// out\n        /* \"#utility.yul\":1339:1415   */\n    tag_113:\n        /* \"#utility.yul\":1375:1382   */\n      0x00\n        /* \"#utility.yul\":1404:1409   */\n      dup2\n        /* \"#utility.yul\":1393:1409   */\n      swap1\n      pop\n        /* \"#utility.yul\":1339:1415   */\n      swap2\n      swap1\n      pop\n      jump\t// out\n        /* \"#utility.yul\":1421:1536   */\n    tag_114:\n        /* \"#utility.yul\":1506:1529   */\n      tag_176\n        /* \"#utility.yul\":1523:1528   */\n      dup2\n        /* \"#utility.yul\":1506:1529   */\n      tag_113\n      jump\t// in\n    tag_176:\n        /* \"#utility.yul\":1501:1504   */\n      dup3\n        /* \"#utility.yul\":1494:1530   */\n      mstore\n        /* \"#utility.yul\":1421:1536   */\n      pop\n      pop\n      jump\t// out\n        /* \"#utility.yul\":1542:1760   */\n    tag_17:\n        /* \"#utility.yul\":1633:1637   */\n      0x00\n        /* \"#utility.yul\":1671:1673   */\n      0x20\n        /* \"#utility.yul\":1660:1669   */\n      dup3\n        /* \"#utility.yul\":1656:1674   */\n      add\n        /* \"#utility.yul\":1648:1674   */\n      swap1\n      pop\n        /* \"#utility.yul\":1684:1753   */\n      tag_178\n        /* \"#utility.yul\":1750:1751   */\n      0x00\n        /* \"#utility.yul\":1739:1748   */\n      dup4\n        /* \"#utility.yul\":1735:1752   */\n      add\n        /* \"#utility.yul\":1726:1732   */\n      dup5\n        /* \"#utility.yul\":1684:1753   */\n      tag_114\n      jump\t// in\n    tag_178:\n        /* \"#utility.yul\":1542:1760   */\n      swap3\n      swap2\n      pop\n      pop\n      jump\t// out\n        /* \"#utility.yul\":1766:1946   */\n    tag_115:\n        /* \"#utility.yul\":1814:1891   */\n      0x4e487b7100000000000000000000000000000000000000000000000000000000\n        /* \"#utility.yul\":1811:1812   */\n      0x00\n        /* \"#utility.yul\":1804:1892   */\n      mstore\n        /* \"#utility.yul\":1911:1915   */\n      0x41\n        /* \"#utility.yul\":1908:1909   */\n      0x04\n        /* \"#utility.yul\":1901:1916   */\n      mstore\n        /* \"#utility.yul\":1935:1939   */\n      0x24\n        /* \"#utility.yul\":1932:1933   */\n      0x00\n        /* \"#utility.yul\":1925:1940   */\n      revert\n        /* \"#utility.yul\":1952:2132   */\n    tag_116:\n        /* \"#utility.yul\":2000:2077   */\n      0x4e487b7100000000000000000000000000000000000000000000000000000000\n        /* \"#utility.yul\":1997:1998   */\n      0x00\n        /* \"#utility.yul\":1990:2078   */\n      mstore\n        /* \"#utility.yul\":2097:2101   */\n      0x22\n        /* \"#utility.yul\":2094:2095   */\n      0x04\n        /* \"#utility.yul\":2087:2102   */\n      mstore\n        /* \"#utility.yul\":2121:2125   */\n      0x24\n        /* \"#utility.yul\":2118:2119   */\n      0x00\n        /* \"#utility.yul\":2111:2126   */\n      revert\n        /* \"#utility.yul\":2138:2458   */\n    tag_29:\n        /* \"#utility.yul\":2182:2188   */\n      0x00\n        /* \"#utility.yul\":2219:2220   */\n      0x02\n        /* \"#utility.yul\":2213:2217   */\n      dup3\n        /* \"#utility.yul\":2209:2221   */\n      div\n        /* \"#utility.yul\":2199:2221   */\n      swap1\n      pop\n        /* \"#utility.yul\":2266:2267   */\n      0x01\n        /* \"#utility.yul\":2260:2264   */\n      dup3\n        /* \"#utility.yul\":2256:2268   */\n      and\n        /* \"#utility.yul\":2287:2305   */\n      dup1\n        /* \"#utility.yul\":2277:2358   */\n      tag_182\n      jumpi\n        /* \"#utility.yul\":2343:2347   */\n      0x7f\n        /* \"#utility.yul\":2335:2341   */\n      dup3\n        /* \"#utility.yul\":2331:2348   */\n      and\n        /* \"#utility.yul\":2321:2348   */\n      swap2\n      pop\n        /* \"#utility.yul\":2277:2358   */\n    tag_182:\n        /* \"#utility.yul\":2405:2407   */\n      0x20\n        /* \"#utility.yul\":2397:2403   */\n      dup3\n        /* \"#utility.yul\":2394:2408   */\n      lt\n        /* \"#utility.yul\":2374:2392   */\n      dup2\n        /* \"#utility.yul\":2371:2409   */\n      sub\n        /* \"#utility.yul\":2368:2452   */\n      tag_183\n      jumpi\n        /* \"#utility.yul\":2424:2442   */\n      tag_184\n      tag_116\n      jump\t// in\n    tag_184:\n        /* \"#utility.yul\":2368:2452   */\n    tag_183:\n        /* \"#utility.yul\":2189:2458   */\n      pop\n        /* \"#utility.yul\":2138:2458   */\n      swap2\n      swap1\n      pop\n      jump\t// out\n        /* \"#utility.yul\":2464:2604   */\n    tag_117:\n        /* \"#utility.yul\":2512:2516   */\n      0x00\n        /* \"#utility.yul\":2535:2538   */\n      dup2\n        /* \"#utility.yul\":2527:2538   */\n      swap1\n      pop\n        /* \"#utility.yul\":2558:2561   */\n      dup2\n        /* \"#utility.yul\":2555:2556   */\n      0x00\n        /* \"#utility.yul\":2548:2562   */\n      mstore\n        /* \"#utility.yul\":2592:2596   */\n      0x20\n        /* \"#utility.yul\":2589:2590   */\n      0x00\n        /* \"#utility.yul\":2579:2597   */\n      keccak256\n        /* \"#utility.yul\":2571:2597   */\n      swap1\n      pop\n        /* \"#utility.yul\":2464:2604   */\n      swap2\n      swap1\n      pop\n      jump\t// out\n        /* \"#utility.yul\":2610:2703   */\n    tag_118:\n        /* \"#utility.yul\":2647:2653   */\n      0x00\n        /* \"#utility.yul\":2694:2696   */\n      0x20\n        /* \"#utility.yul\":2689:2691   */\n      0x1f\n        /* \"#utility.yul\":2682:2687   */\n      dup4\n        /* \"#utility.yul\":2678:2692   */\n      add\n        /* \"#utility.yul\":2674:2697   */\n      div\n        /* \"#utility.yul\":2664:2697   */\n      swap1\n      pop\n        /* \"#utility.yul\":2610:2703   */\n      swap2\n      swap1\n      pop\n      jump\t// out\n        /* \"#utility.yul\":2709:2816   */\n    tag_119:\n        /* \"#utility.yul\":2753:2761   */\n      0x00\n        /* \"#utility.yul\":2803:2808   */\n      dup3\n        /* \"#utility.yul\":2797:2801   */\n      dup3\n        /* \"#utility.yul\":2793:2809   */\n      shl\n        /* \"#utility.yul\":2772:2809   */\n      swap1\n      pop\n        /* \"#utility.yul\":2709:2816   */\n      swap3\n      swap2\n      pop\n      pop\n      jump\t// out\n        /* \"#utility.yul\":2822:3215   */\n    tag_120:\n        /* \"#utility.yul\":2891:2897   */\n      0x00\n        /* \"#utility.yul\":2941:2942   */\n      0x08\n        /* \"#utility.yul\":2929:2939   */\n      dup4\n        /* \"#utility.yul\":2925:2943   */\n      mul\n        /* \"#utility.yul\":2964:3061   */\n      tag_189\n        /* \"#utility.yul\":2994:3060   */\n      0xffffffffffffffffffffffffffffffffffffffffffffffffffffffffffffffff\n        /* \"#utility.yul\":2983:2992   */\n      dup3\n        /* \"#utility.yul\":2964:3061   */\n      tag_119\n      jump\t// in\n    tag_189:\n        /* \"#utility.yul\":3082:3121   */\n      tag_190\n        /* \"#utility.yul\":3112:3120   */\n      dup7\n        /* \"#utility.yul\":3101:3110   */\n      dup4\n        /* \"#utility.yul\":3082:3121   */\n      tag_119\n      jump\t// in\n    tag_190:\n        /* \"#utility.yul\":3070:3121   */\n      swap6\n      pop\n        /* \"#utility.yul\":3154:3158   */\n      dup1\n        /* \"#utility.yul\":3150:3159   */\n      not\n        /* \"#utility.yul\":3143:3148   */\n      dup5\n        /* \"#utility.yul\":3139:3160   */\n      and\n        /* \"#utility.yul\":3130:3160   */\n      swap4\n      pop\n        /* \"#utility.yul\":3203:3207   */\n      dup1\n        /* \"#utility.yul\":3193:3201   */\n      dup7\n        /* \"#utility.yul\":3189:3208   */\n      and\n        /* \"#utility.yul\":3182:3187   */\n      dup5\n        /* \"#utility.yul\":3179:3209   */\n      or\n        /* \"#utility.yul\":3169:3209   */\n      swap3\n      pop\n        /* \"#utility.yul\":2898:3215   */\n      pop\n      pop\n        /* \"#utility.yul\":2822:3215   */\n      swap4\n      swap3\n      pop\n      pop\n      pop\n      jump\t// out\n        /* \"#utility.yul\":3221:3298   */\n    tag_121:\n        /* \"#utility.yul\":3258:3265   */\n      0x00\n        /* \"#utility.yul\":3287:3292   */\n      dup2\n        /* \"#utility.yul\":3276:3292   */\n      swap1\n      pop\n        /* \"#utility.yul\":3221:3298   */\n      swap2\n      swap1\n      pop\n      jump\t// out\n        /* \"#utility.yul\":3304:3364   */\n    tag_122:\n        /* \"#utility.yul\":3332:3335   */\n      0x00\n        /* \"#utility.yul\":3353:3358   */\n      dup2\n        /* \"#utility.yul\":3346:3358   */\n      swap1\n      pop\n        /* \"#utility.yul\":3304:3364   */\n      swap2\n      swap1\n      pop\n      jump\t// out\n        /* \"#utility.yul\":3370:3512   */\n    tag_123:\n        /* \"#utility.yul\":3420:3429   */\n      0x00\n        /* \"#utility.yul\":3453:3506   */\n      tag_194\n        /* \"#utility.yul\":3471:3505   */\n      tag_195\n        /* \"#utility.yul\":3480:3504   */\n      tag_196\n        /* \"#utility.yul\":3498:3503   */\n      dup5\n        /* \"#utility.yul\":3480:3504   */\n      tag_121\n      jump\t// in\n    tag_196:\n        /* \"#utility.yul\":3471:3505   */\n      tag_122\n      jump\t// in\n    tag_195:\n        /* \"#utility.yul\":3453:3506   */\n      tag_121\n      jump\t// in\n    tag_194:\n        /* \"#utility.yul\":3440:3506   */\n      swap1\n      pop\n        /* \"#utility.yul\":3370:3512   */\n      swap2\n      swap1\n      pop\n      jump\t// out\n        /* \"#utility.yul\":3518:3593   */\n    tag_124:\n        /* \"#utility.yul\":3561:3564   */\n      0x00\n        /* \"#utility.yul\":3582:3587   */\n      dup2\n        /* \"#utility.yul\":3575:3587   */\n      swap1\n      pop\n        /* \"#utility.yul\":3518:3593   */\n      swap2\n      swap1\n      pop\n      jump\t// out\n        /* \"#utility.yul\":3599:3868   */\n    tag_125:\n        /* \"#utility.yul\":3709:3748   */\n      tag_199\n        /* \"#utility.yul\":3740:3747   */\n      dup4\n        /* \"#utility.yul\":3709:3748   */\n      tag_123\n      jump\t// in\n    tag_199:\n        /* \"#utility.yul\":3770:3861   */\n      tag_200\n        /* \"#utility.yul\":3819:3860   */\n      tag_201\n        /* \"#utility.yul\":3843:3859   */\n      dup3\n        /* \"#utility.yul\":3819:3860   */\n      tag_124\n      jump\t// in\n    tag_201:\n        /* \"#utility.yul\":3811:3817   */\n      dup5\n        /* \"#utility.yul\":3804:3808   */\n      dup5\n        /* \"#utility.yul\":3798:3809   */\n      sload\n        /* \"#utility.yul\":3770:3861   */\n      tag_120\n      jump\t// in\n    tag_200:\n        /* \"#utility.yul\":3764:3768   */\n      dup3\n        /* \"#utility.yul\":3757:3862   */\n      sstore\n        /* \"#utility.yul\":3675:3868   */\n      pop\n        /* \"#utility.yul\":3599:3868   */\n      pop\n      pop\n      pop\n      jump\t// out\n        /* \"#utility.yul\":3874:3947   */\n    tag_126:\n        /* \"#utility.yul\":3919:3922   */\n      0x00\n        /* \"#utility.yul\":3874:3947   */\n      swap1\n      jump\t// out\n        /* \"#utility.yul\":3953:4142   */\n    tag_127:\n        /* \"#utility.yul\":4030:4062   */\n      tag_204\n      tag_126\n      jump\t// in\n    tag_204:\n        /* \"#utility.yul\":4071:4136   */\n      tag_205\n        /* \"#utility.yul\":4129:4135   */\n      dup2\n        /* \"#utility.yul\":4121:4127   */\n      dup5\n        /* \"#utility.yul\":4115:4119   */\n      dup5\n        /* \"#utility.yul\":4071:4136   */\n      tag_125\n      jump\t// in\n    tag_205:\n        /* \"#utility.yul\":4006:4142   */\n      pop\n        /* \"#utility.yul\":3953:4142   */\n      pop\n      pop\n      jump\t// out\n        /* \"#utility.yul\":4148:4334   */\n    tag_128:\n        /* \"#utility.yul\":4208:4328   */\n    tag_207:\n        /* \"#utility.yul\":4225:4228   */\n      dup2\n        /* \"#utility.yul\":4218:4223   */\n      dup2\n        /* \"#utility.yul\":4215:4229   */\n      lt\n        /* \"#utility.yul\":4208:4328   */\n      iszero\n      tag_209\n      jumpi\n        /* \"#utility.yul\":4279:4318   */\n      tag_210\n        /* \"#utility.yul\":4316:4317   */\n      0x00\n        /* \"#utility.yul\":4309:4314   */\n      dup3\n        /* \"#utility.yul\":4279:4318   */\n      tag_127\n      jump\t// in\n    tag_210:\n        /* \"#utility.yul\":4252:4253   */\n      0x01\n        /* \"#utility.yul\":4245:4250   */\n      dup2\n        /* \"#utility.yul\":4241:4254   */\n      add\n        /* \"#utility.yul\":4232:4254   */\n      swap1\n      pop\n        /* \"#utility.yul\":4208:4328   */\n      jump(tag_207)\n    tag_209:\n        /* \"#utility.yul\":4148:4334   */\n      pop\n      pop\n      jump\t// out\n        /* \"#utility.yul\":4340:4881   */\n    tag_129:\n        /* \"#utility.yul\":4440:4442   */\n      0x1f\n        /* \"#utility.yul\":4435:4438   */\n      dup3\n        /* \"#utility.yul\":4432:4443   */\n      gt\n        /* \"#utility.yul\":4429:4874   */\n      iszero\n      tag_212\n      jumpi\n        /* \"#utility.yul\":4474:4511   */\n      tag_213\n        /* \"#utility.yul\":4505:4510   */\n      dup2\n        /* \"#utility.yul\":4474:4511   */\n      tag_117\n      jump\t// in\n    tag_213:\n        /* \"#utility.yul\":4557:4586   */\n      tag_214\n        /* \"#utility.yul\":4575:4585   */\n      dup5\n        /* \"#utility.yul\":4557:4586   */\n      tag_118\n      jump\t// in\n    tag_214:\n        /* \"#utility.yul\":4547:4555   */\n      dup2\n        /* \"#utility.yul\":4543:4587   */\n      add\n        /* \"#utility.yul\":4740:4742   */\n      0x20\n        /* \"#utility.yul\":4728:4738   */\n      dup6\n        /* \"#utility.yul\":4725:4743   */\n      lt\n        /* \"#utility.yul\":4722:4771   */\n      iszero\n      tag_215\n      jumpi\n        /* \"#utility.yul\":4761:4769   */\n      dup2\n        /* \"#utility.yul\":4746:4769   */\n      swap1\n      pop\n        /* \"#utility.yul\":4722:4771   */\n    tag_215:\n        /* \"#utility.yul\":4784:4864   */\n      tag_216\n        /* \"#utility.yul\":4840:4862   */\n      tag_217\n        /* \"#utility.yul\":4858:4861   */\n      dup6\n        /* \"#utility.yul\":4840:4862   */\n      tag_118\n      jump\t// in\n    tag_217:\n        /* \"#utility.yul\":4830:4838   */\n      dup4\n        /* \"#utility.yul\":4826:4863   */\n      add\n        /* \"#utility.yul\":4813:4824   */\n      dup3\n        /* \"#utility.yul\":4784:4864   */\n      tag_128\n      jump\t// in\n    tag_216:\n        /* \"#utility.yul\":4444:4874   */\n      pop\n      pop\n        /* \"#utility.yul\":4429:4874   */\n    tag_212:\n        /* \"#utility.yul\":4340:4881   */\n      pop\n      pop\n      pop\n      jump\t// out\n        /* \"#utility.yul\":4887:5004   */\n    tag_130:\n        /* \"#utility.yul\":4941:4949   */\n      0x00\n        /* \"#utility.yul\":4991:4996   */\n      dup3\n        /* \"#utility.yul\":4985:4989   */\n      dup3\n        /* \"#utility.yul\":4981:4997   */\n      shr\n        /* \"#utility.yul\":4960:4997   */\n      swap1\n      pop\n        /* \"#utility.yul\":4887:5004   */\n      swap3\n      swap2\n      pop\n      pop\n      jump\t// out\n        /* \"#utility.yul\":5010:5179   */\n    tag_131:\n        /* \"#utility.yul\":5054:5060   */\n      0x00\n        /* \"#utility.yul\":5087:5138   */\n      tag_220\n        /* \"#utility.yul\":5135:5136   */\n      0x00\n        /* \"#utility.yul\":5131:5137   */\n      not\n        /* \"#utility.yul\":5123:5128   */\n      dup5\n        /* \"#utility.yul\":5120:5121   */\n      0x08\n        /* \"#utility.yul\":5116:5129   */\n      mul\n        /* \"#utility.yul\":5087:5138   */\n      tag_130\n      jump\t// in\n    tag_220:\n        /* \"#utility.yul\":5083:5139   */\n      not\n        /* \"#utility.yul\":5168:5172   */\n      dup1\n        /* \"#utility.yul\":5162:5166   */\n      dup4\n        /* \"#utility.yul\":5158:5173   */\n      and\n        /* \"#utility.yul\":5148:5173   */\n      swap2\n      pop\n        /* \"#utility.yul\":5061:5179   */\n      pop\n        /* \"#utility.yul\":5010:5179   */\n      swap3\n      swap2\n      pop\n      pop\n      jump\t// out\n        /* \"#utility.yul\":5184:5479   */\n    tag_132:\n        /* \"#utility.yul\":5260:5264   */\n      0x00\n        /* \"#utility.yul\":5406:5435   */\n      tag_222\n        /* \"#utility.yul\":5431:5434   */\n      dup4\n        /* \"#utility.yul\":5425:5429   */\n      dup4\n        /* \"#utility.yul\":5406:5435   */\n      tag_131\n      jump\t// in\n    tag_222:\n        /* \"#utility.yul\":5398:5435   */\n      swap2\n      pop\n        /* \"#utility.yul\":5468:5471   */\n      dup3\n        /* \"#utility.yul\":5465:5466   */\n      0x02\n        /* \"#utility.yul\":5461:5472   */\n      mul\n        /* \"#utility.yul\":5455:5459   */\n      dup3\n        /* \"#utility.yul\":5452:5473   */\n      or\n        /* \"#utility.yul\":5444:5473   */\n      swap1\n      pop\n        /* \"#utility.yul\":5184:5479   */\n      swap3\n      swap2\n      pop\n      pop\n      jump\t// out\n        /* \"#utility.yul\":5484:6874   */\n    tag_27:\n        /* \"#utility.yul\":5599:5635   */\n      tag_224\n        /* \"#utility.yul\":5631:5634   */\n      dup3\n        /* \"#utility.yul\":5599:5635   */\n      tag_108\n      jump\t// in\n    tag_224:\n        /* \"#utility.yul\":5700:5718   */\n      0xffffffffffffffff\n        /* \"#utility.yul\":5692:5698   */\n      dup2\n        /* \"#utility.yul\":5689:5719   */\n      gt\n        /* \"#utility.yul\":5686:5742   */\n      iszero\n      tag_225\n      jumpi\n        /* \"#utility.yul\":5722:5740   */\n      tag_226\n      tag_115\n      jump\t// in\n    tag_226:\n        /* \"#utility.yul\":5686:5742   */\n    tag_225:\n        /* \"#utility.yul\":5766:5804   */\n      tag_227\n        /* \"#utility.yul\":5798:5802   */\n      dup3\n        /* \"#utility.yul\":5792:5803   */\n      sload\n        /* \"#utility.yul\":5766:5804   */\n      tag_29\n      jump\t// in\n    tag_227:\n        /* \"#utility.yul\":5851:5917   */\n      tag_228\n        /* \"#utility.yul\":5910:5916   */\n      dup3\n        /* \"#utility.yul\":5902:5908   */\n      dup3\n        /* \"#utility.yul\":5896:5900   */\n      dup6\n        /* \"#utility.yul\":5851:5917   */\n      tag_129\n      jump\t// in\n    tag_228:\n        /* \"#utility.yul\":5944:5945   */\n      0x00\n        /* \"#utility.yul\":5968:5972   */\n      0x20\n        /* \"#utility.yul\":5955:5972   */\n      swap1\n      pop\n        /* \"#utility.yul\":6000:6002   */\n      0x1f\n        /* \"#utility.yul\":5992:5998   */\n      dup4\n        /* \"#utility.yul\":5989:6003   */\n      gt\n        /* \"#utility.yul\":6017:6018   */\n      0x01\n        /* \"#utility.yul\":6012:6629   */\n      dup2\n      eq\n      tag_230\n      jumpi\n        /* \"#utility.yul\":6673:6674   */\n      0x00\n        /* \"#utility.yul\":6690:6696   */\n      dup5\n        /* \"#utility.yul\":6687:6764   */\n      iszero\n      tag_231\n      jumpi\n        /* \"#utility.yul\":6739:6748   */\n      dup3\n        /* \"#utility.yul\":6734:6737   */\n      dup8\n        /* \"#utility.yul\":6730:6749   */\n      add\n        /* \"#utility.yul\":6724:6750   */\n      mload\n        /* \"#utility.yul\":6715:6750   */\n      swap1\n      pop\n        /* \"#utility.yul\":6687:6764   */\n    tag_231:\n        /* \"#utility.yul\":6790:6857   */\n      tag_232\n        /* \"#utility.yul\":6850:6856   */\n      dup6\n        /* \"#utility.yul\":6843:6848   */\n      dup3\n        /* \"#utility.yul\":6790:6857   */\n      tag_132\n      jump\t// in\n    tag_232:\n        /* \"#utility.yul\":6784:6788   */\n      dup7\n        /* \"#utility.yul\":6777:6858   */\n      sstore\n        /* \"#utility.yul\":6646:6868   */\n      pop\n        /* \"#utility.yul\":5982:6868   */\n      jump(tag_229)\n        /* \"#utility.yul\":6012:6629   */\n    tag_230:\n        /* \"#utility.yul\":6064:6068   */\n      0x1f\n        /* \"#utility.yul\":6060:6069   */\n      not\n        /* \"#utility.yul\":6052:6058   */\n      dup5\n        /* \"#utility.yul\":6048:6070   */\n      and\n        /* \"#utility.yul\":6098:6134   */\n      tag_233\n        /* \"#utility.yul\":6129:6133   */\n      dup7\n        /* \"#utility.yul\":6098:6134   */\n      tag_117\n      jump\t// in\n    tag_233:\n        /* \"#utility.yul\":6156:6157   */\n      0x00\n        /* \"#utility.yul\":6170:6378   */\n    tag_234:\n        /* \"#utility.yul\":6184:6191   */\n      dup3\n        /* \"#utility.yul\":6181:6182   */\n      dup2\n        /* \"#utility.yul\":6178:6192   */\n      lt\n        /* \"#utility.yul\":6170:6378   */\n      iszero\n      tag_236\n      jumpi\n        /* \"#utility.yul\":6263:6272   */\n      dup5\n        /* \"#utility.yul\":6258:6261   */\n      dup10\n        /* \"#utility.yul\":6254:6273   */\n      add\n        /* \"#utility.yul\":6248:6274   */\n      mload\n        /* \"#utility.yul\":6240:6246   */\n      dup3\n        /* \"#utility.yul\":6233:6275   */\n      sstore\n        /* \"#utility.yul\":6314:6315   */\n      0x01\n        /* \"#utility.yul\":6306:6312   */\n      dup3\n        /* \"#utility.yul\":6302:6316   */\n      add\n        /* \"#utility.yul\":6292:6316   */\n      swap2\n      pop\n        /* \"#utility.yul\":6361:6363   */\n      0x20\n        /* \"#utility.yul\":6350:6359   */\n      dup6\n        /* \"#utility.yul\":6346:6364   */\n      add\n        /* \"#utility.yul\":6333:6364   */\n      swap5\n      pop\n        /* \"#utility.yul\":6207:6211   */\n      0x20\n        /* \"#utility.yul\":6204:6205   */\n      dup2\n        /* \"#utility.yul\":6200:6212   */\n      add\n        /* \"#utility.yul\":6195:6212   */\n      swap1\n      pop\n        /* \"#utility.yul\":6170:6378   */\n      jump(tag_234)\n    tag_236:\n        /* \"#utility.yul\":6406:6412   */\n      dup7\n        /* \"#utility.yul\":6397:6404   */\n      dup4\n        /* \"#utility.yul\":6394:6413   */\n      lt\n        /* \"#utility.yul\":6391:6570   */\n      iszero\n      tag_237\n      jumpi\n        /* \"#utility.yul\":6464:6473   */\n      dup5\n        /* \"#utility.yul\":6459:6462   */\n      dup10\n        /* \"#utility.yul\":6455:6474   */\n      add\n        /* \"#utility.yul\":6449:6475   */\n      mload\n        /* \"#utility.yul\":6507:6555   */\n      tag_238\n        /* \"#utility.yul\":6549:6553   */\n      0x1f\n        /* \"#utility.yul\":6541:6547   */\n      dup10\n        /* \"#utility.yul\":6537:6554   */\n      and\n        /* \"#utility.yul\":6526:6535   */\n      dup3\n        /* \"#utility.yul\":6507:6555   */\n      tag_131\n      jump\t// in\n    tag_238:\n        /* \"#utility.yul\":6499:6505   */\n      dup4\n        /* \"#utility.yul\":6492:6556   */\n      sstore\n        /* \"#utility.yul\":6414:6570   */\n      pop\n        /* \"#utility.yul\":6391:6570   */\n    tag_237:\n        /* \"#utility.yul\":6616:6617   */\n      0x01\n        /* \"#utility.yul\":6612:6613   */\n      0x02\n        /* \"#utility.yul\":6604:6610   */\n      dup9\n        /* \"#utility.yul\":6600:6614   */\n      mul\n        /* \"#utility.yul\":6596:6618   */\n      add\n        /* \"#utility.yul\":6590:6594   */\n      dup9\n        /* \"#utility.yul\":6583:6619   */\n      sstore\n        /* \"#utility.yul\":6019:6629   */\n      pop\n      pop\n      pop\n        /* \"#utility.yul\":5982:6868   */\n    tag_229:\n      pop\n        /* \"#utility.yul\":5574:6874   */\n      pop\n      pop\n      pop\n        /* \"#utility.yul\":5484:6874   */\n      pop\n      pop\n      jump\t// out\n        /* \"#utility.yul\":6880:6981   */\n    tag_133:\n        /* \"#utility.yul\":6916:6923   */\n      0x00\n        /* \"#utility.yul\":6956:6974   */\n      0xffffffffffffffff\n        /* \"#utility.yul\":6949:6954   */\n      dup3\n        /* \"#utility.yul\":6945:6975   */\n      and\n        /* \"#utility.yul\":6934:6975   */\n      swap1\n      pop\n        /* \"#utility.yul\":6880:6981   */\n      swap2\n      swap1\n      pop\n      jump\t// out\n        /* \"#utility.yul\":6987:7102   */\n    tag_134:\n        /* \"#utility.yul\":7072:7095   */\n      tag_241\n        /* \"#utility.yul\":7089:7094   */\n      dup2\n        /* \"#utility.yul\":7072:7095   */\n      tag_133\n      jump\t// in\n    tag_241:\n        /* \"#utility.yul\":7067:7070   */\n      dup3\n        /* \"#utility.yul\":7060:7096   */\n      mstore\n        /* \"#utility.yul\":6987:7102   */\n      pop\n      pop\n      jump\t// out\n        /* \"#utility.yul\":7108:7226   */\n    tag_135:\n        /* \"#utility.yul\":7195:7219   */\n      tag_243\n        /* \"#utility.yul\":7213:7218   */\n      dup2\n        /* \"#utility.yul\":7195:7219   */\n      tag_121\n      jump\t// in\n    tag_243:\n        /* \"#utility.yul\":7190:7193   */\n      dup3\n        /* \"#utility.yul\":7183:7220   */\n      mstore\n        /* \"#utility.yul\":7108:7226   */\n      pop\n      pop\n      jump\t// out\n        /* \"#utility.yul\":7232:7370   */\n    tag_136:\n        /* \"#utility.yul\":7280:7289   */\n      0x00\n        /* \"#utility.yul\":7313:7364   */\n      tag_245\n        /* \"#utility.yul\":7330:7363   */\n      tag_246\n        /* \"#utility.yul\":7339:7362   */\n      tag_247\n        /* \"#utility.yul\":7356:7361   */\n      dup5\n        /* \"#utility.yul\":7339:7362   */\n      tag_133\n      jump\t// in\n    tag_247:\n        /* \"#utility.yul\":7330:7363   */\n      tag_122\n      jump\t// in\n    tag_246:\n        /* \"#utility.yul\":7313:7364   */\n      tag_133\n      jump\t// in\n    tag_245:\n        /* \"#utility.yul\":7300:7364   */\n      swap1\n      pop\n        /* \"#utility.yul\":7232:7370   */\n      swap2\n      swap1\n      pop\n      jump\t// out\n        /* \"#utility.yul\":7376:7535   */\n    tag_137:\n        /* \"#utility.yul\":7493:7528   */\n      tag_249\n        /* \"#utility.yul\":7522:7527   */\n      dup2\n        /* \"#utility.yul\":7493:7528   */\n      tag_136\n      jump\t// in\n    tag_249:\n        /* \"#utility.yul\":7488:7491   */\n      dup3\n        /* \"#utility.yul\":7481:7529   */\n      mstore\n        /* \"#utility.yul\":7376:7535   */\n      pop\n      pop\n      jump\t// out\n        /* \"#utility.yul\":7541:8451   */\n    tag_57:\n        /* \"#utility.yul\":7816:7820   */\n      0x00\n        /* \"#utility.yul\":7854:7857   */\n      0xc0\n        /* \"#utility.yul\":7843:7852   */\n      dup3\n        /* \"#utility.yul\":7839:7858   */\n      add\n        /* \"#utility.yul\":7831:7858   */\n      swap1\n      pop\n        /* \"#utility.yul\":7868:7937   */\n      tag_251\n        /* \"#utility.yul\":7934:7935   */\n      0x00\n        /* \"#utility.yul\":7923:7932   */\n      dup4\n        /* \"#utility.yul\":7919:7936   */\n      add\n        /* \"#utility.yul\":7910:7916   */\n      dup10\n        /* \"#utility.yul\":7868:7937   */\n      tag_134\n      jump\t// in\n    tag_251:\n        /* \"#utility.yul\":7947:8019   */\n      tag_252\n        /* \"#utility.yul\":8015:8017   */\n      0x20\n        /* \"#utility.yul\":8004:8013   */\n      dup4\n        /* \"#utility.yul\":8000:8018   */\n      add\n        /* \"#utility.yul\":7991:7997   */\n      dup9\n        /* \"#utility.yul\":7947:8019   */\n      tag_135\n      jump\t// in\n    tag_252:\n        /* \"#utility.yul\":8029:8099   */\n      tag_253\n        /* \"#utility.yul\":8095:8097   */\n      0x40\n        /* \"#utility.yul\":8084:8093   */\n      dup4\n        /* \"#utility.yul\":8080:8098   */\n      add\n        /* \"#utility.yul\":8071:8077   */\n      dup8\n        /* \"#utility.yul\":8029:8099   */\n      tag_134\n      jump\t// in\n    tag_253:\n        /* \"#utility.yul\":8109:8179   */\n      tag_254\n        /* \"#utility.yul\":8175:8177   */\n      0x60\n        /* \"#utility.yul\":8164:8173   */\n      dup4\n        /* \"#utility.yul\":8160:8178   */\n      add\n        /* \"#utility.yul\":8151:8157   */\n      dup7\n        /* \"#utility.yul\":8109:8179   */\n      tag_134\n      jump\t// in\n    tag_254:\n        /* \"#utility.yul\":8227:8236   */\n      dup2\n        /* \"#utility.yul\":8221:8225   */\n      dup2\n        /* \"#utility.yul\":8217:8237   */\n      sub\n        /* \"#utility.yul\":8211:8214   */\n      0x80\n        /* \"#utility.yul\":8200:8209   */\n      dup4\n        /* \"#utility.yul\":8196:8215   */\n      add\n        /* \"#utility.yul\":8189:8238   */\n      mstore\n        /* \"#utility.yul\":8255:8331   */\n      tag_255\n        /* \"#utility.yul\":8326:8330   */\n      dup2\n        /* \"#utility.yul\":8317:8323   */\n      dup6\n        /* \"#utility.yul\":8255:8331   */\n      tag_112\n      jump\t// in\n    tag_255:\n        /* \"#utility.yul\":8247:8331   */\n      swap1\n      pop\n        /* \"#utility.yul\":8341:8444   */\n      tag_256\n        /* \"#utility.yul\":8439:8442   */\n      0xa0\n        /* \"#utility.yul\":8428:8437   */\n      dup4\n        /* \"#utility.yul\":8424:8443   */\n      add\n        /* \"#utility.yul\":8415:8421   */\n      dup5\n        /* \"#utility.yul\":8341:8444   */\n      tag_137\n      jump\t// in\n    tag_256:\n        /* \"#utility.yul\":7541:8451   */\n      swap8\n      swap7\n      pop\n      pop\n      pop\n      pop\n      pop\n      pop\n      pop\n      jump\t// out\n        /* \"#utility.yul\":8457:8604   */\n    tag_138:\n        /* \"#utility.yul\":8558:8569   */\n      0x00\n        /* \"#utility.yul\":8595:8598   */\n      dup2\n        /* \"#utility.yul\":8580:8598   */\n      swap1\n      pop\n        /* \"#utility.yul\":8457:8604   */\n      swap3\n      swap2\n      pop\n      pop\n      jump\t// out\n        /* \"#utility.yul\":8610:8996   */\n    tag_139:\n        /* \"#utility.yul\":8714:8717   */\n      0x00\n        /* \"#utility.yul\":8742:8780   */\n      tag_259\n        /* \"#utility.yul\":8774:8779   */\n      dup3\n        /* \"#utility.yul\":8742:8780   */\n      tag_108\n      jump\t// in\n    tag_259:\n        /* \"#utility.yul\":8796:8884   */\n      tag_260\n        /* \"#utility.yul\":8877:8883   */\n      dup2\n        /* \"#utility.yul\":8872:8875   */\n      dup6\n        /* \"#utility.yul\":8796:8884   */\n      tag_138\n      jump\t// in\n    tag_260:\n        /* \"#utility.yul\":8789:8884   */\n      swap4\n      pop\n        /* \"#utility.yul\":8893:8958   */\n      tag_261\n        /* \"#utility.yul\":8951:8957   */\n      dup2\n        /* \"#utility.yul\":8946:8949   */\n      dup6\n        /* \"#utility.yul\":8939:8943   */\n      0x20\n        /* \"#utility.yul\":8932:8937   */\n      dup7\n        /* \"#utility.yul\":8928:8944   */\n      add\n        /* \"#utility.yul\":8893:8958   */\n      tag_110\n      jump\t// in\n    tag_261:\n        /* \"#utility.yul\":8983:8989   */\n      dup1\n        /* \"#utility.yul\":8978:8981   */\n      dup5\n        /* \"#utility.yul\":8974:8990   */\n      add\n        /* \"#utility.yul\":8967:8990   */\n      swap2\n      pop\n        /* \"#utility.yul\":8718:8996   */\n      pop\n        /* \"#utility.yul\":8610:8996   */\n      swap3\n      swap2\n      pop\n      pop\n      jump\t// out\n        /* \"#utility.yul\":9002:9273   */\n    tag_59:\n        /* \"#utility.yul\":9132:9135   */\n      0x00\n        /* \"#utility.yul\":9154:9247   */\n      tag_263\n        /* \"#utility.yul\":9243:9246   */\n      dup3\n        /* \"#utility.yul\":9234:9240   */\n      dup5\n        /* \"#utility.yul\":9154:9247   */\n      tag_139\n      jump\t// in\n    tag_263:\n        /* \"#utility.yul\":9147:9247   */\n      swap2\n      pop\n        /* \"#utility.yul\":9264:9267   */\n      dup2\n        /* \"#utility.yul\":9257:9267   */\n      swap1\n      pop\n        /* \"#utility.yul\":9002:9273   */\n      swap3\n      swap2\n      pop\n      pop\n      jump\t// out\n        /* \"#utility.yul\":9279:9448   */\n    tag_140:\n        /* \"#utility.yul\":9363:9374   */\n      0x00\n        /* \"#utility.yul\":9397:9403   */\n      dup3\n        /* \"#utility.yul\":9392:9395   */\n      dup3\n        /* \"#utility.yul\":9385:9404   */\n      mstore\n        /* \"#utility.yul\":9437:9441   */\n      0x20\n        /* \"#utility.yul\":9432:9435   */\n      dup3\n        /* \"#utility.yul\":9428:9442   */\n      add\n        /* \"#utility.yul\":9413:9442   */\n      swap1\n      pop\n        /* \"#utility.yul\":9279:9448   */\n      swap3\n      swap2\n      pop\n      pop\n      jump\t// out\n        /* \"#utility.yul\":9454:9616   */\n    tag_141:\n        /* \"#utility.yul\":9594:9608   */\n      0x496e76616c69642043424f520000000000000000000000000000000000000000\n        /* \"#utility.yul\":9590:9591   */\n      0x00\n        /* \"#utility.yul\":9582:9588   */\n      dup3\n        /* \"#utility.yul\":9578:9592   */\n      add\n        /* \"#utility.yul\":9571:9609   */\n      mstore\n        /* \"#utility.yul\":9454:9616   */\n      pop\n      jump\t// out\n        /* \"#utility.yul\":9622:9988   */\n    tag_142:\n        /* \"#utility.yul\":9764:9767   */\n      0x00\n        /* \"#utility.yul\":9785:9852   */\n      tag_267\n        /* \"#utility.yul\":9849:9851   */\n      0x0c\n        /* \"#utility.yul\":9844:9847   */\n      dup4\n        /* \"#utility.yul\":9785:9852   */\n      tag_140\n      jump\t// in\n    tag_267:\n        /* \"#utility.yul\":9778:9852   */\n      swap2\n      pop\n        /* \"#utility.yul\":9861:9954   */\n      tag_268\n        /* \"#utility.yul\":9950:9953   */\n      dup3\n        /* \"#utility.yul\":9861:9954   */\n      tag_141\n      jump\t// in\n    tag_268:\n        /* \"#utility.yul\":9979:9981   */\n      0x20\n        /* \"#utility.yul\":9974:9977   */\n      dup3\n        /* \"#utility.yul\":9970:9982   */\n      add\n        /* \"#utility.yul\":9963:9982   */\n      swap1\n      pop\n        /* \"#utility.yul\":9622:9988   */\n      swap2\n      swap1\n      pop\n      jump\t// out\n        /* \"#utility.yul\":9994:10413   */\n    tag_74:\n        /* \"#utility.yul\":10160:10164   */\n      0x00\n        /* \"#utility.yul\":10198:10200   */\n      0x20\n        /* \"#utility.yul\":10187:10196   */\n      dup3\n        /* \"#utility.yul\":10183:10201   */\n      add\n        /* \"#utility.yul\":10175:10201   */\n      swap1\n      pop\n        /* \"#utility.yul\":10247:10256   */\n      dup2\n        /* \"#utility.yul\":10241:10245   */\n      dup2\n        /* \"#utility.yul\":10237:10257   */\n      sub\n        /* \"#utility.yul\":10233:10234   */\n      0x00\n        /* \"#utility.yul\":10222:10231   */\n      dup4\n        /* \"#utility.yul\":10218:10235   */\n      add\n        /* \"#utility.yul\":10211:10258   */\n      mstore\n        /* \"#utility.yul\":10275:10406   */\n      tag_270\n        /* \"#utility.yul\":10401:10405   */\n      dup2\n        /* \"#utility.yul\":10275:10406   */\n      tag_142\n      jump\t// in\n    tag_270:\n        /* \"#utility.yul\":10267:10406   */\n      swap1\n      pop\n        /* \"#utility.yul\":9994:10413   */\n      swap2\n      swap1\n      pop\n      jump\t// out\n        /* \"#utility.yul\":10419:10751   */\n    tag_78:\n        /* \"#utility.yul\":10540:10544   */\n      0x00\n        /* \"#utility.yul\":10578:10580   */\n      0x40\n        /* \"#utility.yul\":10567:10576   */\n      dup3\n        /* \"#utility.yul\":10563:10581   */\n      add\n        /* \"#utility.yul\":10555:10581   */\n      swap1\n      pop\n        /* \"#utility.yul\":10591:10662   */\n      tag_272\n        /* \"#utility.yul\":10659:10660   */\n      0x00\n        /* \"#utility.yul\":10648:10657   */\n      dup4\n        /* \"#utility.yul\":10644:10661   */\n      add\n        /* \"#utility.yul\":10635:10641   */\n      dup6\n        /* \"#utility.yul\":10591:10662   */\n      tag_135\n      jump\t// in\n    tag_272:\n        /* \"#utility.yul\":10672:10744   */\n      tag_273\n        /* \"#utility.yul\":10740:10742   */\n      0x20\n        /* \"#utility.yul\":10729:10738   */\n      dup4\n        /* \"#utility.yul\":10725:10743   */\n      add\n        /* \"#utility.yul\":10716:10722   */\n      dup5\n        /* \"#utility.yul\":10672:10744   */\n      tag_135\n      jump\t// in\n    tag_273:\n        /* \"#utility.yul\":10419:10751   */\n      swap4\n      swap3\n      pop\n      pop\n      pop\n      jump\t// out\n        /* \"#utility.yul\":10757:10832   */\n    tag_143:\n        /* \"#utility.yul\":10790:10796   */\n      0x00\n        /* \"#utility.yul\":10823:10825   */\n      0x40\n        /* \"#utility.yul\":10817:10826   */\n      mload\n        /* \"#utility.yul\":10807:10826   */\n      swap1\n      pop\n        /* \"#utility.yul\":10757:10832   */\n      swap1\n      jump\t// out\n        /* \"#utility.yul\":10838:10955   */\n    tag_144:\n        /* \"#utility.yul\":10947:10948   */\n      0x00\n        /* \"#utility.yul\":10944:10945   */\n      dup1\n        /* \"#utility.yul\":10937:10949   */\n      revert\n        /* \"#utility.yul\":10961:11078   */\n    tag_145:\n        /* \"#utility.yul\":11070:11071   */\n      0x00\n        /* \"#utility.yul\":11067:11068   */\n      dup1\n        /* \"#utility.yul\":11060:11072   */\n      revert\n        /* \"#utility.yul\":11084:11204   */\n    tag_146:\n        /* \"#utility.yul\":11156:11179   */\n      tag_278\n        /* \"#utility.yul\":11173:11178   */\n      dup2\n        /* \"#utility.yul\":11156:11179   */\n      tag_113\n      jump\t// in\n    tag_278:\n        /* \"#utility.yul\":11149:11154   */\n      dup2\n        /* \"#utility.yul\":11146:11180   */\n      eq\n        /* \"#utility.yul\":11136:11198   */\n      tag_279\n      jumpi\n        /* \"#utility.yul\":11194:11195   */\n      0x00\n        /* \"#utility.yul\":11191:11192   */\n      dup1\n        /* \"#utility.yul\":11184:11196   */\n      revert\n        /* \"#utility.yul\":11136:11198   */\n    tag_279:\n        /* \"#utility.yul\":11084:11204   */\n      pop\n      jump\t// out\n        /* \"#utility.yul\":11210:11351   */\n    tag_147:\n        /* \"#utility.yul\":11266:11271   */\n      0x00\n        /* \"#utility.yul\":11297:11303   */\n      dup2\n        /* \"#utility.yul\":11291:11304   */\n      mload\n        /* \"#utility.yul\":11282:11304   */\n      swap1\n      pop\n        /* \"#utility.yul\":11313:11345   */\n      tag_281\n        /* \"#utility.yul\":11339:11344   */\n      dup2\n        /* \"#utility.yul\":11313:11345   */\n      tag_146\n      jump\t// in\n    tag_281:\n        /* \"#utility.yul\":11210:11351   */\n      swap3\n      swap2\n      pop\n      pop\n      jump\t// out\n        /* \"#utility.yul\":11357:11477   */\n    tag_148:\n        /* \"#utility.yul\":11429:11452   */\n      tag_283\n        /* \"#utility.yul\":11446:11451   */\n      dup2\n        /* \"#utility.yul\":11429:11452   */\n      tag_133\n      jump\t// in\n    tag_283:\n        /* \"#utility.yul\":11422:11427   */\n      dup2\n        /* \"#utility.yul\":11419:11453   */\n      eq\n        /* \"#utility.yul\":11409:11471   */\n      tag_284\n      jumpi\n        /* \"#utility.yul\":11467:11468   */\n      0x00\n        /* \"#utility.yul\":11464:11465   */\n      dup1\n        /* \"#utility.yul\":11457:11469   */\n      revert\n        /* \"#utility.yul\":11409:11471   */\n    tag_284:\n        /* \"#utility.yul\":11357:11477   */\n      pop\n      jump\t// out\n        /* \"#utility.yul\":11483:11624   */\n    tag_149:\n        /* \"#utility.yul\":11539:11544   */\n      0x00\n        /* \"#utility.yul\":11570:11576   */\n      dup2\n        /* \"#utility.yul\":11564:11577   */\n      mload\n        /* \"#utility.yul\":11555:11577   */\n      swap1\n      pop\n        /* \"#utility.yul\":11586:11618   */\n      tag_286\n        /* \"#utility.yul\":11612:11617   */\n      dup2\n        /* \"#utility.yul\":11586:11618   */\n      tag_148\n      jump\t// in\n    tag_286:\n        /* \"#utility.yul\":11483:11624   */\n      swap3\n      swap2\n      pop\n      pop\n      jump\t// out\n        /* \"#utility.yul\":11630:11747   */\n    tag_150:\n        /* \"#utility.yul\":11739:11740   */\n      0x00\n        /* \"#utility.yul\":11736:11737   */\n      dup1\n        /* \"#utility.yul\":11729:11741   */\n      revert\n        /* \"#utility.yul\":11753:11870   */\n    tag_151:\n        /* \"#utility.yul\":11862:11863   */\n      0x00\n        /* \"#utility.yul\":11859:11860   */\n      dup1\n        /* \"#utility.yul\":11852:11864   */\n      revert\n        /* \"#utility.yul\":11876:12157   */\n    tag_152:\n        /* \"#utility.yul\":11959:11986   */\n      tag_290\n        /* \"#utility.yul\":11981:11985   */\n      dup3\n        /* \"#utility.yul\":11959:11986   */\n      tag_111\n      jump\t// in\n    tag_290:\n        /* \"#utility.yul\":11951:11957   */\n      dup2\n        /* \"#utility.yul\":11947:11987   */\n      add\n        /* \"#utility.yul\":12089:12095   */\n      dup2\n        /* \"#utility.yul\":12077:12087   */\n      dup2\n        /* \"#utility.yul\":12074:12096   */\n      lt\n        /* \"#utility.yul\":12053:12071   */\n      0xffffffffffffffff\n        /* \"#utility.yul\":12041:12051   */\n      dup3\n        /* \"#utility.yul\":12038:12072   */\n      gt\n        /* \"#utility.yul\":12035:12097   */\n      or\n        /* \"#utility.yul\":12032:12120   */\n      iszero\n      tag_291\n      jumpi\n        /* \"#utility.yul\":12100:12118   */\n      tag_292\n      tag_115\n      jump\t// in\n    tag_292:\n        /* \"#utility.yul\":12032:12120   */\n    tag_291:\n        /* \"#utility.yul\":12140:12150   */\n      dup1\n        /* \"#utility.yul\":12136:12138   */\n      0x40\n        /* \"#utility.yul\":12129:12151   */\n      mstore\n        /* \"#utility.yul\":11919:12157   */\n      pop\n        /* \"#utility.yul\":11876:12157   */\n      pop\n      pop\n      jump\t// out\n        /* \"#utility.yul\":12163:12292   */\n    tag_153:\n        /* \"#utility.yul\":12197:12203   */\n      0x00\n        /* \"#utility.yul\":12224:12244   */\n      tag_294\n      tag_143\n      jump\t// in\n    tag_294:\n        /* \"#utility.yul\":12214:12244   */\n      swap1\n      pop\n        /* \"#utility.yul\":12253:12286   */\n      tag_295\n        /* \"#utility.yul\":12281:12285   */\n      dup3\n        /* \"#utility.yul\":12273:12279   */\n      dup3\n        /* \"#utility.yul\":12253:12286   */\n      tag_152\n      jump\t// in\n    tag_295:\n        /* \"#utility.yul\":12163:12292   */\n      swap2\n      swap1\n      pop\n      jump\t// out\n        /* \"#utility.yul\":12298:12605   */\n    tag_154:\n        /* \"#utility.yul\":12359:12363   */\n      0x00\n        /* \"#utility.yul\":12449:12467   */\n      0xffffffffffffffff\n        /* \"#utility.yul\":12441:12447   */\n      dup3\n        /* \"#utility.yul\":12438:12468   */\n      gt\n        /* \"#utility.yul\":12435:12491   */\n      iszero\n      tag_297\n      jumpi\n        /* \"#utility.yul\":12471:12489   */\n      tag_298\n      tag_115\n      jump\t// in\n    tag_298:\n        /* \"#utility.yul\":12435:12491   */\n    tag_297:\n        /* \"#utility.yul\":12509:12538   */\n      tag_299\n        /* \"#utility.yul\":12531:12537   */\n      dup3\n        /* \"#utility.yul\":12509:12538   */\n      tag_111\n      jump\t// in\n    tag_299:\n        /* \"#utility.yul\":12501:12538   */\n      swap1\n      pop\n        /* \"#utility.yul\":12593:12597   */\n      0x20\n        /* \"#utility.yul\":12587:12591   */\n      dup2\n        /* \"#utility.yul\":12583:12598   */\n      add\n        /* \"#utility.yul\":12575:12598   */\n      swap1\n      pop\n        /* \"#utility.yul\":12298:12605   */\n      swap2\n      swap1\n      pop\n      jump\t// out\n        /* \"#utility.yul\":12611:13043   */\n    tag_155:\n        /* \"#utility.yul\":12699:12704   */\n      0x00\n        /* \"#utility.yul\":12724:12789   */\n      tag_301\n        /* \"#utility.yul\":12740:12788   */\n      tag_302\n        /* \"#utility.yul\":12781:12787   */\n      dup5\n        /* \"#utility.yul\":12740:12788   */\n      tag_154\n      jump\t// in\n    tag_302:\n        /* \"#utility.yul\":12724:12789   */\n      tag_153\n      jump\t// in\n    tag_301:\n        /* \"#utility.yul\":12715:12789   */\n      swap1\n      pop\n        /* \"#utility.yul\":12812:12818   */\n      dup3\n        /* \"#utility.yul\":12805:12810   */\n      dup2\n        /* \"#utility.yul\":12798:12819   */\n      mstore\n        /* \"#utility.yul\":12850:12854   */\n      0x20\n        /* \"#utility.yul\":12843:12848   */\n      dup2\n        /* \"#utility.yul\":12839:12855   */\n      add\n        /* \"#utility.yul\":12888:12891   */\n      dup5\n        /* \"#utility.yul\":12879:12885   */\n      dup5\n        /* \"#utility.yul\":12874:12877   */\n      dup5\n        /* \"#utility.yul\":12870:12886   */\n      add\n        /* \"#utility.yul\":12867:12892   */\n      gt\n        /* \"#utility.yul\":12864:12976   */\n      iszero\n      tag_303\n      jumpi\n        /* \"#utility.yul\":12895:12974   */\n      tag_304\n      tag_151\n      jump\t// in\n    tag_304:\n        /* \"#utility.yul\":12864:12976   */\n    tag_303:\n        /* \"#utility.yul\":12985:13037   */\n      tag_305\n        /* \"#utility.yul\":13030:13036   */\n      dup5\n        /* \"#utility.yul\":13025:13028   */\n      dup3\n        /* \"#utility.yul\":13020:13023   */\n      dup6\n        /* \"#utility.yul\":12985:13037   */\n      tag_110\n      jump\t// in\n    tag_305:\n        /* \"#utility.yul\":12705:13043   */\n      pop\n        /* \"#utility.yul\":12611:13043   */\n      swap4\n      swap3\n      pop\n      pop\n      pop\n      jump\t// out\n        /* \"#utility.yul\":13062:13415   */\n    tag_156:\n        /* \"#utility.yul\":13128:13133   */\n      0x00\n        /* \"#utility.yul\":13177:13180   */\n      dup3\n        /* \"#utility.yul\":13170:13174   */\n      0x1f\n        /* \"#utility.yul\":13162:13168   */\n      dup4\n        /* \"#utility.yul\":13158:13175   */\n      add\n        /* \"#utility.yul\":13154:13181   */\n      slt\n        /* \"#utility.yul\":13144:13266   */\n      tag_307\n      jumpi\n        /* \"#utility.yul\":13185:13264   */\n      tag_308\n      tag_150\n      jump\t// in\n    tag_308:\n        /* \"#utility.yul\":13144:13266   */\n    tag_307:\n        /* \"#utility.yul\":13295:13301   */\n      dup2\n        /* \"#utility.yul\":13289:13302   */\n      mload\n        /* \"#utility.yul\":13320:13409   */\n      tag_309\n        /* \"#utility.yul\":13405:13408   */\n      dup5\n        /* \"#utility.yul\":13397:13403   */\n      dup3\n        /* \"#utility.yul\":13390:13394   */\n      0x20\n        /* \"#utility.yul\":13382:13388   */\n      dup7\n        /* \"#utility.yul\":13378:13395   */\n      add\n        /* \"#utility.yul\":13320:13409   */\n      tag_155\n      jump\t// in\n    tag_309:\n        /* \"#utility.yul\":13311:13409   */\n      swap2\n      pop\n        /* \"#utility.yul\":13134:13415   */\n      pop\n        /* \"#utility.yul\":13062:13415   */\n      swap3\n      swap2\n      pop\n      pop\n      jump\t// out\n        /* \"#utility.yul\":13421:14251   */\n    tag_84:\n        /* \"#utility.yul\":13516:13522   */\n      0x00\n        /* \"#utility.yul\":13524:13530   */\n      dup1\n        /* \"#utility.yul\":13532:13538   */\n      0x00\n        /* \"#utility.yul\":13581:13583   */\n      0x60\n        /* \"#utility.yul\":13569:13578   */\n      dup5\n        /* \"#utility.yul\":13560:13567   */\n      dup7\n        /* \"#utility.yul\":13556:13579   */\n      sub\n        /* \"#utility.yul\":13552:13584   */\n      slt\n        /* \"#utility.yul\":13549:13668   */\n      iszero\n      tag_311\n      jumpi\n        /* \"#utility.yul\":13587:13666   */\n      tag_312\n      tag_144\n      jump\t// in\n    tag_312:\n        /* \"#utility.yul\":13549:13668   */\n    tag_311:\n        /* \"#utility.yul\":13707:13708   */\n      0x00\n        /* \"#utility.yul\":13732:13795   */\n      tag_313\n        /* \"#utility.yul\":13787:13794   */\n      dup7\n        /* \"#utility.yul\":13778:13784   */\n      dup3\n        /* \"#utility.yul\":13767:13776   */\n      dup8\n        /* \"#utility.yul\":13763:13785   */\n      add\n        /* \"#utility.yul\":13732:13795   */\n      tag_147\n      jump\t// in\n    tag_313:\n        /* \"#utility.yul\":13722:13795   */\n      swap4\n      pop\n        /* \"#utility.yul\":13678:13805   */\n      pop\n        /* \"#utility.yul\":13844:13846   */\n      0x20\n        /* \"#utility.yul\":13870:13933   */\n      tag_314\n        /* \"#utility.yul\":13925:13932   */\n      dup7\n        /* \"#utility.yul\":13916:13922   */\n      dup3\n        /* \"#utility.yul\":13905:13914   */\n      dup8\n        /* \"#utility.yul\":13901:13923   */\n      add\n        /* \"#utility.yul\":13870:13933   */\n      tag_149\n      jump\t// in\n    tag_314:\n        /* \"#utility.yul\":13860:13933   */\n      swap3\n      pop\n        /* \"#utility.yul\":13815:13943   */\n      pop\n        /* \"#utility.yul\":14003:14005   */\n      0x40\n        /* \"#utility.yul\":13992:14001   */\n      dup5\n        /* \"#utility.yul\":13988:14006   */\n      add\n        /* \"#utility.yul\":13982:14007   */\n      mload\n        /* \"#utility.yul\":14034:14052   */\n      0xffffffffffffffff\n        /* \"#utility.yul\":14026:14032   */\n      dup2\n        /* \"#utility.yul\":14023:14053   */\n      gt\n        /* \"#utility.yul\":14020:14137   */\n      iszero\n      tag_315\n      jumpi\n        /* \"#utility.yul\":14056:14135   */\n      tag_316\n      tag_145\n      jump\t// in\n    tag_316:\n        /* \"#utility.yul\":14020:14137   */\n    tag_315:\n        /* \"#utility.yul\":14161:14234   */\n      tag_317\n        /* \"#utility.yul\":14226:14233   */\n      dup7\n        /* \"#utility.yul\":14217:14223   */\n      dup3\n        /* \"#utility.yul\":14206:14215   */\n      dup8\n        /* \"#utility.yul\":14202:14224   */\n      add\n        /* \"#utility.yul\":14161:14234   */\n      tag_156\n      jump\t// in\n    tag_317:\n        /* \"#utility.yul\":14151:14234   */\n      swap2\n      pop\n        /* \"#utility.yul\":13953:14244   */\n      pop\n        /* \"#utility.yul\":13421:14251   */\n      swap3\n      pop\n      swap3\n      pop\n      swap3\n      jump\t// out\n        /* \"#utility.yul\":14257:14475   */\n    tag_93:\n        /* \"#utility.yul\":14348:14352   */\n      0x00\n        /* \"#utility.yul\":14386:14388   */\n      0x20\n        /* \"#utility.yul\":14375:14384   */\n      dup3\n        /* \"#utility.yul\":14371:14389   */\n      add\n        /* \"#utility.yul\":14363:14389   */\n      swap1\n      pop\n        /* \"#utility.yul\":14399:14468   */\n      tag_319\n        /* \"#utility.yul\":14465:14466   */\n      0x00\n        /* \"#utility.yul\":14454:14463   */\n      dup4\n        /* \"#utility.yul\":14450:14467   */\n      add\n        /* \"#utility.yul\":14441:14447   */\n      dup5\n        /* \"#utility.yul\":14399:14468   */\n      tag_134\n      jump\t// in\n    tag_319:\n        /* \"#utility.yul\":14257:14475   */\n      swap3\n      swap2\n      pop\n      pop\n      jump\t// out\n        /* \"#utility.yul\":14481:14661   */\n    tag_157:\n        /* \"#utility.yul\":14529:14606   */\n      0x4e487b7100000000000000000000000000000000000000000000000000000000\n        /* \"#utility.yul\":14526:14527   */\n      0x00\n        /* \"#utility.yul\":14519:14607   */\n      mstore\n        /* \"#utility.yul\":14626:14630   */\n      0x12\n        /* \"#utility.yul\":14623:14624   */\n      0x04\n        /* \"#utility.yul\":14616:14631   */\n      mstore\n        /* \"#utility.yul\":14650:14654   */\n      0x24\n        /* \"#utility.yul\":14647:14648   */\n      0x00\n        /* \"#utility.yul\":14640:14655   */\n      revert\n        /* \"#utility.yul\":14667:14843   */\n    tag_98:\n        /* \"#utility.yul\":14699:14700   */\n      0x00\n        /* \"#utility.yul\":14716:14736   */\n      tag_322\n        /* \"#utility.yul\":14734:14735   */\n      dup3\n        /* \"#utility.yul\":14716:14736   */\n      tag_121\n      jump\t// in\n    tag_322:\n        /* \"#utility.yul\":14711:14736   */\n      swap2\n      pop\n        /* \"#utility.yul\":14750:14770   */\n      tag_323\n        /* \"#utility.yul\":14768:14769   */\n      dup4\n        /* \"#utility.yul\":14750:14770   */\n      tag_121\n      jump\t// in\n    tag_323:\n        /* \"#utility.yul\":14745:14770   */\n      swap3\n      pop\n        /* \"#utility.yul\":14789:14790   */\n      dup3\n        /* \"#utility.yul\":14779:14814   */\n      tag_324\n      jumpi\n        /* \"#utility.yul\":14794:14812   */\n      tag_325\n      tag_157\n      jump\t// in\n    tag_325:\n        /* \"#utility.yul\":14779:14814   */\n    tag_324:\n        /* \"#utility.yul\":14835:14836   */\n      dup3\n        /* \"#utility.yul\":14832:14833   */\n      dup3\n        /* \"#utility.yul\":14828:14837   */\n      mod\n        /* \"#utility.yul\":14823:14837   */\n      swap1\n      pop\n        /* \"#utility.yul\":14667:14843   */\n      swap3\n      swap2\n      pop\n      pop\n      jump\t// out\n        /* \"#utility.yul\":14849:15029   */\n    tag_158:\n        /* \"#utility.yul\":14897:14974   */\n      0x4e487b7100000000000000000000000000000000000000000000000000000000\n        /* \"#utility.yul\":14894:14895   */\n      0x00\n        /* \"#utility.yul\":14887:14975   */\n      mstore\n        /* \"#utility.yul\":14994:14998   */\n      0x11\n        /* \"#utility.yul\":14991:14992   */\n      0x04\n        /* \"#utility.yul\":14984:14999   */\n      mstore\n        /* \"#utility.yul\":15018:15022   */\n      0x24\n        /* \"#utility.yul\":15015:15016   */\n      0x00\n        /* \"#utility.yul\":15008:15023   */\n      revert\n        /* \"#utility.yul\":15035:15229   */\n    tag_102:\n        /* \"#utility.yul\":15075:15079   */\n      0x00\n        /* \"#utility.yul\":15095:15115   */\n      tag_328\n        /* \"#utility.yul\":15113:15114   */\n      dup3\n        /* \"#utility.yul\":15095:15115   */\n      tag_121\n      jump\t// in\n    tag_328:\n        /* \"#utility.yul\":15090:15115   */\n      swap2\n      pop\n        /* \"#utility.yul\":15129:15149   */\n      tag_329\n        /* \"#utility.yul\":15147:15148   */\n      dup4\n        /* \"#utility.yul\":15129:15149   */\n      tag_121\n      jump\t// in\n    tag_329:\n        /* \"#utility.yul\":15124:15149   */\n      swap3\n      pop\n        /* \"#utility.yul\":15173:15174   */\n      dup3\n        /* \"#utility.yul\":15170:15171   */\n      dup3\n        /* \"#utility.yul\":15166:15175   */\n      sub\n        /* \"#utility.yul\":15158:15175   */\n      swap1\n      pop\n        /* \"#utility.yul\":15197:15198   */\n      dup2\n        /* \"#utility.yul\":15191:15195   */\n      dup2\n        /* \"#utility.yul\":15188:15199   */\n      gt\n        /* \"#utility.yul\":15185:15222   */\n      iszero\n      tag_330\n      jumpi\n        /* \"#utility.yul\":15202:15220   */\n      tag_331\n      tag_158\n      jump\t// in\n    tag_331:\n        /* \"#utility.yul\":15185:15222   */\n    tag_330:\n        /* \"#utility.yul\":15035:15229   */\n      swap3\n      swap2\n      pop\n      pop\n      jump\t// out\n        /* \"#utility.yul\":15235:15426   */\n    tag_104:\n        /* \"#utility.yul\":15275:15278   */\n      0x00\n        /* \"#utility.yul\":15294:15314   */\n      tag_333\n        /* \"#utility.yul\":15312:15313   */\n      dup3\n        /* \"#utility.yul\":15294:15314   */\n      tag_121\n      jump\t// in\n    tag_333:\n        /* \"#utility.yul\":15289:15314   */\n      swap2\n      pop\n        /* \"#utility.yul\":15328:15348   */\n      tag_334\n        /* \"#utility.yul\":15346:15347   */\n      dup4\n        /* \"#utility.yul\":15328:15348   */\n      tag_121\n      jump\t// in\n    tag_334:\n        /* \"#utility.yul\":15323:15348   */\n      swap3\n      pop\n        /* \"#utility.yul\":15371:15372   */\n      dup3\n        /* \"#utility.yul\":15368:15369   */\n      dup3\n        /* \"#utility.yul\":15364:15373   */\n      add\n        /* \"#utility.yul\":15357:15373   */\n      swap1\n      pop\n        /* \"#utility.yul\":15392:15395   */\n      dup1\n        /* \"#utility.yul\":15389:15390   */\n      dup3\n        /* \"#utility.yul\":15386:15396   */\n      gt\n        /* \"#utility.yul\":15383:15419   */\n      iszero\n      tag_335\n      jumpi\n        /* \"#utility.yul\":15399:15417   */\n      tag_336\n      tag_158\n      jump\t// in\n    tag_336:\n        /* \"#utility.yul\":15383:15419   */\n    tag_335:\n        /* \"#utility.yul\":15235:15426   */\n      swap3\n      swap2\n      pop\n      pop\n      jump\t// out\n\n    auxdata: 0xa264697066735822122066bff54e44f78b34b1d16ee8391780a810e588f5dd22b61aea644368fed25ff664736f6c63430008180033\n}\n",
				"bytecode": {
					"linkReferences": {},
					"object": "608060405234801561000f575f80fd5b50610fae8061001d5f395ff3fe608060405234801561000f575f80fd5b506004361061004a575f3560e01c8063614619541461004e578063a6f735471461006c578063ebc557291461008a578063edaafe20146100a8575b5f80fd5b6100566100c6565b60405161006391906107a7565b60405180910390f35b610074610192565b60405161008191906107a7565b60405180910390f35b61009261021d565b60405161009f91906107df565b60405180910390f35b6100b0610223565b6040516100bd91906107a7565b60405180910390f35b60605f6100d16102af565b90506100e7603163ea326f6e6051845f806102e6565b60015f805f8491905090816100fc9190610a28565b50839190505550505f805461011090610852565b80601f016020809104026020016040519081016040528092919081815260200182805461013c90610852565b80156101875780601f1061015e57610100808354040283529160200191610187565b820191905f5260205f20905b81548152906001019060200180831161016a57829003601f168201915b505050505091505090565b5f805461019e90610852565b80601f01602080910402602001604051908101604052809291908181526020018280546101ca90610852565b80156102155780601f106101ec57610100808354040283529160200191610215565b820191905f5260205f20905b8154815290600101906020018083116101f857829003601f168201915b505050505081565b60015481565b6002805461023090610852565b80601f016020809104026020016040519081016040528092919081815260200182805461025c90610852565b80156102a75780601f1061027e576101008083540402835291602001916102a7565b820191905f5260205f20905b81548152906001019060200180831161028a57829003601f168201915b505050505081565b60605f806102bc8261040b565b90506102c781610430565b600290816102d59190610a28565b506102df81610430565b9250505090565b5f606061030773fe0000000000000000000000000000000000000585610486565b5f8073fe0000000000000000000000000000000000000573ffffffffffffffffffffffffffffffffffffffff16898787610341575f610344565b60015b8b8b8f60405160200161035c96959493929190610b58565b6040516020818303038152906040526040516103789190610bf8565b5f60405180830381855af49150503d805f81146103b0576040519150601f19603f3d011682016040523d82523d5f602084013e6103b5565b606091505b5091509150816103f1576040517f8a7db5bf00000000000000000000000000000000000000000000000000000000815260040160405180910390fd5b6103fa8161051a565b935093505050965096945050505050565b6104136106e5565b610420815f01518361065b565b505f816020018181525050919050565b60605f826020015114610478576040517f08c379a000000000000000000000000000000000000000000000000000000000815260040161046f90610c68565b60405180910390fd5b815f01515f01519050919050565b5f479050818110156104d15780826040517f8f0f42060000000000000000000000000000000000000000000000000000000081526004016104c8929190610c86565b60405180910390fd5b5f6104db846106d1565b905080610514576040517f64d954b000000000000000000000000000000000000000000000000000000000815260040160405180910390fd5b50505050565b5f60605f805f858060200190518101906105349190610e03565b9250925092505f67ffffffffffffffff168267ffffffffffffffff1603610594575f81511461058f576040517f0e74990700000000000000000000000000000000000000000000000000000000815260040160405180910390fd5b61064d565b605167ffffffffffffffff168267ffffffffffffffff1614806105cb5750607167ffffffffffffffff168267ffffffffffffffff16145b1561060f575f81510361060a576040517f0e74990700000000000000000000000000000000000000000000000000000000815260040160405180910390fd5b61064c565b816040517ff1f6bced0000000000000000000000000000000000000000000000000000000081526004016106439190610e6f565b60405180910390fd5b5b828194509450505050915091565b610663610704565b5f6020836106719190610eb5565b1461069d576020826106839190610eb5565b602061068f9190610f12565b8261069a9190610f45565b91505b818360200181815250506040518084525f8152828101602001818110156106c2575f80fd5b80604052505082905092915050565b5f80823f90505f801b811415915050919050565b60405180604001604052806106f8610704565b81526020015f81525090565b6040518060400160405280606081526020015f81525090565b5f81519050919050565b5f82825260208201905092915050565b5f5b83811015610754578082015181840152602081019050610739565b5f8484015250505050565b5f601f19601f8301169050919050565b5f6107798261071d565b6107838185610727565b9350610793818560208601610737565b61079c8161075f565b840191505092915050565b5f6020820190508181035f8301526107bf818461076f565b905092915050565b5f819050919050565b6107d9816107c7565b82525050565b5f6020820190506107f25f8301846107d0565b92915050565b7f4e487b71000000000000000000000000000000000000000000000000000000005f52604160045260245ffd5b7f4e487b71000000000000000000000000000000000000000000000000000000005f52602260045260245ffd5b5f600282049050600182168061086957607f821691505b60208210810361087c5761087b610825565b5b50919050565b5f819050815f5260205f209050919050565b5f6020601f8301049050919050565b5f82821b905092915050565b5f600883026108de7fffffffffffffffffffffffffffffffffffffffffffffffffffffffffffffffff826108a3565b6108e886836108a3565b95508019841693508086168417925050509392505050565b5f819050919050565b5f819050919050565b5f61092c61092761092284610900565b610909565b610900565b9050919050565b5f819050919050565b61094583610912565b61095961095182610933565b8484546108af565b825550505050565b5f90565b61096d610961565b61097881848461093c565b505050565b5b8181101561099b576109905f82610965565b60018101905061097e565b5050565b601f8211156109e0576109b181610882565b6109ba84610894565b810160208510156109c9578190505b6109dd6109d585610894565b83018261097d565b50505b505050565b5f82821c905092915050565b5f610a005f19846008026109e5565b1980831691505092915050565b5f610a1883836109f1565b9150826002028217905092915050565b610a318261071d565b67ffffffffffffffff811115610a4a57610a496107f8565b5b610a548254610852565b610a5f82828561099f565b5f60209050601f831160018114610a90575f8415610a7e578287015190505b610a888582610a0d565b865550610aef565b601f198416610a9e86610882565b5f5b82811015610ac557848901518255600182019150602085019450602081019050610aa0565b86831015610ae25784890151610ade601f8916826109f1565b8355505b6001600288020188555050505b505050505050565b5f67ffffffffffffffff82169050919050565b610b1381610af7565b82525050565b610b2281610900565b82525050565b5f610b42610b3d610b3884610af7565b610909565b610af7565b9050919050565b610b5281610b28565b82525050565b5f60c082019050610b6b5f830189610b0a565b610b786020830188610b19565b610b856040830187610b0a565b610b926060830186610b0a565b8181036080830152610ba4818561076f565b9050610bb360a0830184610b49565b979650505050505050565b5f81905092915050565b5f610bd28261071d565b610bdc8185610bbe565b9350610bec818560208601610737565b80840191505092915050565b5f610c038284610bc8565b915081905092915050565b5f82825260208201905092915050565b7f496e76616c69642043424f5200000000000000000000000000000000000000005f82015250565b5f610c52600c83610c0e565b9150610c5d82610c1e565b602082019050919050565b5f6020820190508181035f830152610c7f81610c46565b9050919050565b5f604082019050610c995f830185610b19565b610ca66020830184610b19565b9392505050565b5f604051905090565b5f80fd5b5f80fd5b610cc7816107c7565b8114610cd1575f80fd5b50565b5f81519050610ce281610cbe565b92915050565b610cf181610af7565b8114610cfb575f80fd5b50565b5f81519050610d0c81610ce8565b92915050565b5f80fd5b5f80fd5b610d238261075f565b810181811067ffffffffffffffff82111715610d4257610d416107f8565b5b80604052505050565b5f610d54610cad565b9050610d608282610d1a565b919050565b5f67ffffffffffffffff821115610d7f57610d7e6107f8565b5b610d888261075f565b9050602081019050919050565b5f610da7610da284610d65565b610d4b565b905082815260208101848484011115610dc357610dc2610d16565b5b610dce848285610737565b509392505050565b5f82601f830112610dea57610de9610d12565b5b8151610dfa848260208601610d95565b91505092915050565b5f805f60608486031215610e1a57610e19610cb6565b5b5f610e2786828701610cd4565b9350506020610e3886828701610cfe565b925050604084015167ffffffffffffffff811115610e5957610e58610cba565b5b610e6586828701610dd6565b9150509250925092565b5f602082019050610e825f830184610b0a565b92915050565b7f4e487b71000000000000000000000000000000000000000000000000000000005f52601260045260245ffd5b5f610ebf82610900565b9150610eca83610900565b925082610eda57610ed9610e88565b5b828206905092915050565b7f4e487b71000000000000000000000000000000000000000000000000000000005f52601160045260245ffd5b5f610f1c82610900565b9150610f2783610900565b9250828203905081811115610f3f57610f3e610ee5565b5b92915050565b5f610f4f82610900565b9150610f5a83610900565b9250828201905080821115610f7257610f71610ee5565b5b9291505056fea264697066735822122066bff54e44f78b34b1d16ee8391780a810e588f5dd22b61aea644368fed25ff664736f6c63430008180033",
					"opcodes": "PUSH1 0x80 PUSH1 0x40 MSTORE CALLVALUE DUP1 ISZERO PUSH2 0xF JUMPI PUSH0 DUP1 REVERT JUMPDEST POP PUSH2 0xFAE DUP1 PUSH2 0x1D PUSH0 CODECOPY PUSH0 RETURN INVALID PUSH1 0x80 PUSH1 0x40 MSTORE CALLVALUE DUP1 ISZERO PUSH2 0xF JUMPI PUSH0 DUP1 REVERT JUMPDEST POP PUSH1 0x4 CALLDATASIZE LT PUSH2 0x4A JUMPI PUSH0 CALLDATALOAD PUSH1 0xE0 SHR DUP1 PUSH4 0x61461954 EQ PUSH2 0x4E JUMPI DUP1 PUSH4 0xA6F73547 EQ PUSH2 0x6C JUMPI DUP1 PUSH4 0xEBC55729 EQ PUSH2 0x8A JUMPI DUP1 PUSH4 0xEDAAFE20 EQ PUSH2 0xA8 JUMPI JUMPDEST PUSH0 DUP1 REVERT JUMPDEST PUSH2 0x56 PUSH2 0xC6 JUMP JUMPDEST PUSH1 0x40 MLOAD PUSH2 0x63 SWAP2 SWAP1 PUSH2 0x7A7 JUMP JUMPDEST PUSH1 0x40 MLOAD DUP1 SWAP2 SUB SWAP1 RETURN JUMPDEST PUSH2 0x74 PUSH2 0x192 JUMP JUMPDEST PUSH1 0x40 MLOAD PUSH2 0x81 SWAP2 SWAP1 PUSH2 0x7A7 JUMP JUMPDEST PUSH1 0x40 MLOAD DUP1 SWAP2 SUB SWAP1 RETURN JUMPDEST PUSH2 0x92 PUSH2 0x21D JUMP JUMPDEST PUSH1 0x40 MLOAD PUSH2 0x9F SWAP2 SWAP1 PUSH2 0x7DF JUMP JUMPDEST PUSH1 0x40 MLOAD DUP1 SWAP2 SUB SWAP1 RETURN JUMPDEST PUSH2 0xB0 PUSH2 0x223 JUMP JUMPDEST PUSH1 0x40 MLOAD PUSH2 0xBD SWAP2 SWAP1 PUSH2 0x7A7 JUMP JUMPDEST PUSH1 0x40 MLOAD DUP1 SWAP2 SUB SWAP1 RETURN JUMPDEST PUSH1 0x60 PUSH0 PUSH2 0xD1 PUSH2 0x2AF JUMP JUMPDEST SWAP1 POP PUSH2 0xE7 PUSH1 0x31 PUSH4 0xEA326F6E PUSH1 0x51 DUP5 PUSH0 DUP1 PUSH2 0x2E6 JUMP JUMPDEST PUSH1 0x1 PUSH0 DUP1 PUSH0 DUP5 SWAP2 SWAP1 POP SWAP1 DUP2 PUSH2 0xFC SWAP2 SWAP1 PUSH2 0xA28 JUMP JUMPDEST POP DUP4 SWAP2 SWAP1 POP SSTORE POP POP PUSH0 DUP1 SLOAD PUSH2 0x110 SWAP1 PUSH2 0x852 JUMP JUMPDEST DUP1 PUSH1 0x1F ADD PUSH1 0x20 DUP1 SWAP2 DIV MUL PUSH1 0x20 ADD PUSH1 0x40 MLOAD SWAP1 DUP2 ADD PUSH1 0x40 MSTORE DUP1 SWAP3 SWAP2 SWAP1 DUP2 DUP2 MSTORE PUSH1 0x20 ADD DUP3 DUP1 SLOAD PUSH2 0x13C SWAP1 PUSH2 0x852 JUMP JUMPDEST DUP1 ISZERO PUSH2 0x187 JUMPI DUP1 PUSH1 0x1F LT PUSH2 0x15E JUMPI PUSH2 0x100 DUP1 DUP4 SLOAD DIV MUL DUP4 MSTORE SWAP2 PUSH1 0x20 ADD SWAP2 PUSH2 0x187 JUMP JUMPDEST DUP3 ADD SWAP2 SWAP1 PUSH0 MSTORE PUSH1 0x20 PUSH0 KECCAK256 SWAP1 JUMPDEST DUP2 SLOAD DUP2 MSTORE SWAP1 PUSH1 0x1 ADD SWAP1 PUSH1 0x20 ADD DUP1 DUP4 GT PUSH2 0x16A JUMPI DUP3 SWAP1 SUB PUSH1 0x1F AND DUP3 ADD SWAP2 JUMPDEST POP POP POP POP POP SWAP2 POP POP SWAP1 JUMP JUMPDEST PUSH0 DUP1 SLOAD PUSH2 0x19E SWAP1 PUSH2 0x852 JUMP JUMPDEST DUP1 PUSH1 0x1F ADD PUSH1 0x20 DUP1 SWAP2 DIV MUL PUSH1 0x20 ADD PUSH1 0x40 MLOAD SWAP1 DUP2 ADD PUSH1 0x40 MSTORE DUP1 SWAP3 SWAP2 SWAP1 DUP2 DUP2 MSTORE PUSH1 0x20 ADD DUP3 DUP1 SLOAD PUSH2 0x1CA SWAP1 PUSH2 0x852 JUMP JUMPDEST DUP1 ISZERO PUSH2 0x215 JUMPI DUP1 PUSH1 0x1F LT PUSH2 0x1EC JUMPI PUSH2 0x100 DUP1 DUP4 SLOAD DIV MUL DUP4 MSTORE SWAP2 PUSH1 0x20 ADD SWAP2 PUSH2 0x215 JUMP JUMPDEST DUP3 ADD SWAP2 SWAP1 PUSH0 MSTORE PUSH1 0x20 PUSH0 KECCAK256 SWAP1 JUMPDEST DUP2 SLOAD DUP2 MSTORE SWAP1 PUSH1 0x1 ADD SWAP1 PUSH1 0x20 ADD DUP1 DUP4 GT PUSH2 0x1F8 JUMPI DUP3 SWAP1 SUB PUSH1 0x1F AND DUP3 ADD SWAP2 JUMPDEST POP POP POP POP POP DUP2 JUMP JUMPDEST PUSH1 0x1 SLOAD DUP2 JUMP JUMPDEST PUSH1 0x2 DUP1 SLOAD PUSH2 0x230 SWAP1 PUSH2 0x852 JUMP JUMPDEST DUP1 PUSH1 0x1F ADD PUSH1 0x20 DUP1 SWAP2 DIV MUL PUSH1 0x20 ADD PUSH1 0x40 MLOAD SWAP1 DUP2 ADD PUSH1 0x40 MSTORE DUP1 SWAP3 SWAP2 SWAP1 DUP2 DUP2 MSTORE PUSH1 0x20 ADD DUP3 DUP1 SLOAD PUSH2 0x25C SWAP1 PUSH2 0x852 JUMP JUMPDEST DUP1 ISZERO PUSH2 0x2A7 JUMPI DUP1 PUSH1 0x1F LT PUSH2 0x27E JUMPI PUSH2 0x100 DUP1 DUP4 SLOAD DIV MUL DUP4 MSTORE SWAP2 PUSH1 0x20 ADD SWAP2 PUSH2 0x2A7 JUMP JUMPDEST DUP3 ADD SWAP2 SWAP1 PUSH0 MSTORE PUSH1 0x20 PUSH0 KECCAK256 SWAP1 JUMPDEST DUP2 SLOAD DUP2 MSTORE SWAP1 PUSH1 0x1 ADD SWAP1 PUSH1 0x20 ADD DUP1 DUP4 GT PUSH2 0x28A JUMPI DUP3 SWAP1 SUB PUSH1 0x1F AND DUP3 ADD SWAP2 JUMPDEST POP POP POP POP POP DUP2 JUMP JUMPDEST PUSH1 0x60 PUSH0 DUP1 PUSH2 0x2BC DUP3 PUSH2 0x40B JUMP JUMPDEST SWAP1 POP PUSH2 0x2C7 DUP2 PUSH2 0x430 JUMP JUMPDEST PUSH1 0x2 SWAP1 DUP2 PUSH2 0x2D5 SWAP2 SWAP1 PUSH2 0xA28 JUMP JUMPDEST POP PUSH2 0x2DF DUP2 PUSH2 0x430 JUMP JUMPDEST SWAP3 POP POP POP SWAP1 JUMP JUMPDEST PUSH0 PUSH1 0x60 PUSH2 0x307 PUSH20 0xFE00000000000000000000000000000000000005 DUP6 PUSH2 0x486 JUMP JUMPDEST PUSH0 DUP1 PUSH20 0xFE00000000000000000000000000000000000005 PUSH20 0xFFFFFFFFFFFFFFFFFFFFFFFFFFFFFFFFFFFFFFFF AND DUP10 DUP8 DUP8 PUSH2 0x341 JUMPI PUSH0 PUSH2 0x344 JUMP JUMPDEST PUSH1 0x1 JUMPDEST DUP12 DUP12 DUP16 PUSH1 0x40 MLOAD PUSH1 0x20 ADD PUSH2 0x35C SWAP7 SWAP6 SWAP5 SWAP4 SWAP3 SWAP2 SWAP1 PUSH2 0xB58 JUMP JUMPDEST PUSH1 0x40 MLOAD PUSH1 0x20 DUP2 DUP4 SUB SUB DUP2 MSTORE SWAP1 PUSH1 0x40 MSTORE PUSH1 0x40 MLOAD PUSH2 0x378 SWAP2 SWAP1 PUSH2 0xBF8 JUMP JUMPDEST PUSH0 PUSH1 0x40 MLOAD DUP1 DUP4 SUB DUP2 DUP6 GAS DELEGATECALL SWAP2 POP POP RETURNDATASIZE DUP1 PUSH0 DUP2 EQ PUSH2 0x3B0 JUMPI PUSH1 0x40 MLOAD SWAP2 POP PUSH1 0x1F NOT PUSH1 0x3F RETURNDATASIZE ADD AND DUP3 ADD PUSH1 0x40 MSTORE RETURNDATASIZE DUP3 MSTORE RETURNDATASIZE PUSH0 PUSH1 0x20 DUP5 ADD RETURNDATACOPY PUSH2 0x3B5 JUMP JUMPDEST PUSH1 0x60 SWAP2 POP JUMPDEST POP SWAP2 POP SWAP2 POP DUP2 PUSH2 0x3F1 JUMPI PUSH1 0x40 MLOAD PUSH32 0x8A7DB5BF00000000000000000000000000000000000000000000000000000000 DUP2 MSTORE PUSH1 0x4 ADD PUSH1 0x40 MLOAD DUP1 SWAP2 SUB SWAP1 REVERT JUMPDEST PUSH2 0x3FA DUP2 PUSH2 0x51A JUMP JUMPDEST SWAP4 POP SWAP4 POP POP POP SWAP7 POP SWAP7 SWAP5 POP POP POP POP POP JUMP JUMPDEST PUSH2 0x413 PUSH2 0x6E5 JUMP JUMPDEST PUSH2 0x420 DUP2 PUSH0 ADD MLOAD DUP4 PUSH2 0x65B JUMP JUMPDEST POP PUSH0 DUP2 PUSH1 0x20 ADD DUP2 DUP2 MSTORE POP POP SWAP2 SWAP1 POP JUMP JUMPDEST PUSH1 0x60 PUSH0 DUP3 PUSH1 0x20 ADD MLOAD EQ PUSH2 0x478 JUMPI PUSH1 0x40 MLOAD PUSH32 0x8C379A000000000000000000000000000000000000000000000000000000000 DUP2 MSTORE PUSH1 0x4 ADD PUSH2 0x46F SWAP1 PUSH2 0xC68 JUMP JUMPDEST PUSH1 0x40 MLOAD DUP1 SWAP2 SUB SWAP1 REVERT JUMPDEST DUP2 PUSH0 ADD MLOAD PUSH0 ADD MLOAD SWAP1 POP SWAP2 SWAP1 POP JUMP JUMPDEST PUSH0 SELFBALANCE SWAP1 POP DUP2 DUP2 LT ISZERO PUSH2 0x4D1 JUMPI DUP1 DUP3 PUSH1 0x40 MLOAD PUSH32 0x8F0F420600000000000000000000000000000000000000000000000000000000 DUP2 MSTORE PUSH1 0x4 ADD PUSH2 0x4C8 SWAP3 SWAP2 SWAP1 PUSH2 0xC86 JUMP JUMPDEST PUSH1 0x40 MLOAD DUP1 SWAP2 SUB SWAP1 REVERT JUMPDEST PUSH0 PUSH2 0x4DB DUP5 PUSH2 0x6D1 JUMP JUMPDEST SWAP1 POP DUP1 PUSH2 0x514 JUMPI PUSH1 0x40 MLOAD PUSH32 0x64D954B000000000000000000000000000000000000000000000000000000000 DUP2 MSTORE PUSH1 0x4 ADD PUSH1 0x40 MLOAD DUP1 SWAP2 SUB SWAP1 REVERT JUMPDEST POP POP POP POP JUMP JUMPDEST PUSH0 PUSH1 0x60 PUSH0 DUP1 PUSH0 DUP6 DUP1 PUSH1 0x20 ADD SWAP1 MLOAD DUP2 ADD SWAP1 PUSH2 0x534 SWAP2 SWAP1 PUSH2 0xE03 JUMP JUMPDEST SWAP3 POP SWAP3 POP SWAP3 POP PUSH0 PUSH8 0xFFFFFFFFFFFFFFFF AND DUP3 PUSH8 0xFFFFFFFFFFFFFFFF AND SUB PUSH2 0x594 JUMPI PUSH0 DUP2 MLOAD EQ PUSH2 0x58F JUMPI PUSH1 0x40 MLOAD PUSH32 0xE74990700000000000000000000000000000000000000000000000000000000 DUP2 MSTORE PUSH1 0x4 ADD PUSH1 0x40 MLOAD DUP1 SWAP2 SUB SWAP1 REVERT JUMPDEST PUSH2 0x64D JUMP JUMPDEST PUSH1 0x51 PUSH8 0xFFFFFFFFFFFFFFFF AND DUP3 PUSH8 0xFFFFFFFFFFFFFFFF AND EQ DUP1 PUSH2 0x5CB JUMPI POP PUSH1 0x71 PUSH8 0xFFFFFFFFFFFFFFFF AND DUP3 PUSH8 0xFFFFFFFFFFFFFFFF AND EQ JUMPDEST ISZERO PUSH2 0x60F JUMPI PUSH0 DUP2 MLOAD SUB PUSH2 0x60A JUMPI PUSH1 0x40 MLOAD PUSH32 0xE74990700000000000000000000000000000000000000000000000000000000 DUP2 MSTORE PUSH1 0x4 ADD PUSH1 0x40 MLOAD DUP1 SWAP2 SUB SWAP1 REVERT JUMPDEST PUSH2 0x64C JUMP JUMPDEST DUP2 PUSH1 0x40 MLOAD PUSH32 0xF1F6BCED00000000000000000000000000000000000000000000000000000000 DUP2 MSTORE PUSH1 0x4 ADD PUSH2 0x643 SWAP2 SWAP1 PUSH2 0xE6F JUMP JUMPDEST PUSH1 0x40 MLOAD DUP1 SWAP2 SUB SWAP1 REVERT JUMPDEST JUMPDEST DUP3 DUP2 SWAP5 POP SWAP5 POP POP POP POP SWAP2 POP SWAP2 JUMP JUMPDEST PUSH2 0x663 PUSH2 0x704 JUMP JUMPDEST PUSH0 PUSH1 0x20 DUP4 PUSH2 0x671 SWAP2 SWAP1 PUSH2 0xEB5 JUMP JUMPDEST EQ PUSH2 0x69D JUMPI PUSH1 0x20 DUP3 PUSH2 0x683 SWAP2 SWAP1 PUSH2 0xEB5 JUMP JUMPDEST PUSH1 0x20 PUSH2 0x68F SWAP2 SWAP1 PUSH2 0xF12 JUMP JUMPDEST DUP3 PUSH2 0x69A SWAP2 SWAP1 PUSH2 0xF45 JUMP JUMPDEST SWAP2 POP JUMPDEST DUP2 DUP4 PUSH1 0x20 ADD DUP2 DUP2 MSTORE POP POP PUSH1 0x40 MLOAD DUP1 DUP5 MSTORE PUSH0 DUP2 MSTORE DUP3 DUP2 ADD PUSH1 0x20 ADD DUP2 DUP2 LT ISZERO PUSH2 0x6C2 JUMPI PUSH0 DUP1 REVERT JUMPDEST DUP1 PUSH1 0x40 MSTORE POP POP DUP3 SWAP1 POP SWAP3 SWAP2 POP POP JUMP JUMPDEST PUSH0 DUP1 DUP3 EXTCODEHASH SWAP1 POP PUSH0 DUP1 SHL DUP2 EQ ISZERO SWAP2 POP POP SWAP2 SWAP1 POP JUMP JUMPDEST PUSH1 0x40 MLOAD DUP1 PUSH1 0x40 ADD PUSH1 0x40 MSTORE DUP1 PUSH2 0x6F8 PUSH2 0x704 JUMP JUMPDEST DUP2 MSTORE PUSH1 0x20 ADD PUSH0 DUP2 MSTORE POP SWAP1 JUMP JUMPDEST PUSH1 0x40 MLOAD DUP1 PUSH1 0x40 ADD PUSH1 0x40 MSTORE DUP1 PUSH1 0x60 DUP2 MSTORE PUSH1 0x20 ADD PUSH0 DUP2 MSTORE POP SWAP1 JUMP JUMPDEST PUSH0 DUP2 MLOAD SWAP1 POP SWAP2 SWAP1 POP JUMP JUMPDEST PUSH0 DUP3 DUP3 MSTORE PUSH1 0x20 DUP3 ADD SWAP1 POP SWAP3 SWAP2 POP POP JUMP JUMPDEST PUSH0 JUMPDEST DUP4 DUP2 LT ISZERO PUSH2 0x754 JUMPI DUP1 DUP3 ADD MLOAD DUP2 DUP5 ADD MSTORE PUSH1 0x20 DUP2 ADD SWAP1 POP PUSH2 0x739 JUMP JUMPDEST PUSH0 DUP5 DUP5 ADD MSTORE POP POP POP POP JUMP JUMPDEST PUSH0 PUSH1 0x1F NOT PUSH1 0x1F DUP4 ADD AND SWAP1 POP SWAP2 SWAP1 POP JUMP JUMPDEST PUSH0 PUSH2 0x779 DUP3 PUSH2 0x71D JUMP JUMPDEST PUSH2 0x783 DUP2 DUP6 PUSH2 0x727 JUMP JUMPDEST SWAP4 POP PUSH2 0x793 DUP2 DUP6 PUSH1 0x20 DUP7 ADD PUSH2 0x737 JUMP JUMPDEST PUSH2 0x79C DUP2 PUSH2 0x75F JUMP JUMPDEST DUP5 ADD SWAP2 POP POP SWAP3 SWAP2 POP POP JUMP JUMPDEST PUSH0 PUSH1 0x20 DUP3 ADD SWAP1 POP DUP2 DUP2 SUB PUSH0 DUP4 ADD MSTORE PUSH2 0x7BF DUP2 DUP5 PUSH2 0x76F JUMP JUMPDEST SWAP1 POP SWAP3 SWAP2 POP POP JUMP JUMPDEST PUSH0 DUP2 SWAP1 POP SWAP2 SWAP1 POP JUMP JUMPDEST PUSH2 0x7D9 DUP2 PUSH2 0x7C7 JUMP JUMPDEST DUP3 MSTORE POP POP JUMP JUMPDEST PUSH0 PUSH1 0x20 DUP3 ADD SWAP1 POP PUSH2 0x7F2 PUSH0 DUP4 ADD DUP5 PUSH2 0x7D0 JUMP JUMPDEST SWAP3 SWAP2 POP POP JUMP JUMPDEST PUSH32 0x4E487B7100000000000000000000000000000000000000000000000000000000 PUSH0 MSTORE PUSH1 0x41 PUSH1 0x4 MSTORE PUSH1 0x24 PUSH0 REVERT JUMPDEST PUSH32 0x4E487B7100000000000000000000000000000000000000000000000000000000 PUSH0 MSTORE PUSH1 0x22 PUSH1 0x4 MSTORE PUSH1 0x24 PUSH0 REVERT JUMPDEST PUSH0 PUSH1 0x2 DUP3 DIV SWAP1 POP PUSH1 0x1 DUP3 AND DUP1 PUSH2 0x869 JUMPI PUSH1 0x7F DUP3 AND SWAP2 POP JUMPDEST PUSH1 0x20 DUP3 LT DUP2 SUB PUSH2 0x87C JUMPI PUSH2 0x87B PUSH2 0x825 JUMP JUMPDEST JUMPDEST POP SWAP2 SWAP1 POP JUMP JUMPDEST PUSH0 DUP2 SWAP1 POP DUP2 PUSH0 MSTORE PUSH1 0x20 PUSH0 KECCAK256 SWAP1 POP SWAP2 SWAP1 POP JUMP JUMPDEST PUSH0 PUSH1 0x20 PUSH1 0x1F DUP4 ADD DIV SWAP1 POP SWAP2 SWAP1 POP JUMP JUMPDEST PUSH0 DUP3 DUP3 SHL SWAP1 POP SWAP3 SWAP2 POP POP JUMP JUMPDEST PUSH0 PUSH1 0x8 DUP4 MUL PUSH2 0x8DE PUSH32 0xFFFFFFFFFFFFFFFFFFFFFFFFFFFFFFFFFFFFFFFFFFFFFFFFFFFFFFFFFFFFFFFF DUP3 PUSH2 0x8A3 JUMP JUMPDEST PUSH2 0x8E8 DUP7 DUP4 PUSH2 0x8A3 JUMP JUMPDEST SWAP6 POP DUP1 NOT DUP5 AND SWAP4 POP DUP1 DUP7 AND DUP5 OR SWAP3 POP POP POP SWAP4 SWAP3 POP POP POP JUMP JUMPDEST PUSH0 DUP2 SWAP1 POP SWAP2 SWAP1 POP JUMP JUMPDEST PUSH0 DUP2 SWAP1 POP SWAP2 SWAP1 POP JUMP JUMPDEST PUSH0 PUSH2 0x92C PUSH2 0x927 PUSH2 0x922 DUP5 PUSH2 0x900 JUMP JUMPDEST PUSH2 0x909 JUMP JUMPDEST PUSH2 0x900 JUMP JUMPDEST SWAP1 POP SWAP2 SWAP1 POP JUMP JUMPDEST PUSH0 DUP2 SWAP1 POP SWAP2 SWAP1 POP JUMP JUMPDEST PUSH2 0x945 DUP4 PUSH2 0x912 JUMP JUMPDEST PUSH2 0x959 PUSH2 0x951 DUP3 PUSH2 0x933 JUMP JUMPDEST DUP5 DUP5 SLOAD PUSH2 0x8AF JUMP JUMPDEST DUP3 SSTORE POP POP POP POP JUMP JUMPDEST PUSH0 SWAP1 JUMP JUMPDEST PUSH2 0x96D PUSH2 0x961 JUMP JUMPDEST PUSH2 0x978 DUP2 DUP5 DUP5 PUSH2 0x93C JUMP JUMPDEST POP POP POP JUMP JUMPDEST JUMPDEST DUP2 DUP2 LT ISZERO PUSH2 0x99B JUMPI PUSH2 0x990 PUSH0 DUP3 PUSH2 0x965 JUMP JUMPDEST PUSH1 0x1 DUP2 ADD SWAP1 POP PUSH2 0x97E JUMP JUMPDEST POP POP JUMP JUMPDEST PUSH1 0x1F DUP3 GT ISZERO PUSH2 0x9E0 JUMPI PUSH2 0x9B1 DUP2 PUSH2 0x882 JUMP JUMPDEST PUSH2 0x9BA DUP5 PUSH2 0x894 JUMP JUMPDEST DUP2 ADD PUSH1 0x20 DUP6 LT ISZERO PUSH2 0x9C9 JUMPI DUP2 SWAP1 POP JUMPDEST PUSH2 0x9DD PUSH2 0x9D5 DUP6 PUSH2 0x894 JUMP JUMPDEST DUP4 ADD DUP3 PUSH2 0x97D JUMP JUMPDEST POP POP JUMPDEST POP POP POP JUMP JUMPDEST PUSH0 DUP3 DUP3 SHR SWAP1 POP SWAP3 SWAP2 POP POP JUMP JUMPDEST PUSH0 PUSH2 0xA00 PUSH0 NOT DUP5 PUSH1 0x8 MUL PUSH2 0x9E5 JUMP JUMPDEST NOT DUP1 DUP4 AND SWAP2 POP POP SWAP3 SWAP2 POP POP JUMP JUMPDEST PUSH0 PUSH2 0xA18 DUP4 DUP4 PUSH2 0x9F1 JUMP JUMPDEST SWAP2 POP DUP3 PUSH1 0x2 MUL DUP3 OR SWAP1 POP SWAP3 SWAP2 POP POP JUMP JUMPDEST PUSH2 0xA31 DUP3 PUSH2 0x71D JUMP JUMPDEST PUSH8 0xFFFFFFFFFFFFFFFF DUP2 GT ISZERO PUSH2 0xA4A JUMPI PUSH2 0xA49 PUSH2 0x7F8 JUMP JUMPDEST JUMPDEST PUSH2 0xA54 DUP3 SLOAD PUSH2 0x852 JUMP JUMPDEST PUSH2 0xA5F DUP3 DUP3 DUP6 PUSH2 0x99F JUMP JUMPDEST PUSH0 PUSH1 0x20 SWAP1 POP PUSH1 0x1F DUP4 GT PUSH1 0x1 DUP2 EQ PUSH2 0xA90 JUMPI PUSH0 DUP5 ISZERO PUSH2 0xA7E JUMPI DUP3 DUP8 ADD MLOAD SWAP1 POP JUMPDEST PUSH2 0xA88 DUP6 DUP3 PUSH2 0xA0D JUMP JUMPDEST DUP7 SSTORE POP PUSH2 0xAEF JUMP JUMPDEST PUSH1 0x1F NOT DUP5 AND PUSH2 0xA9E DUP7 PUSH2 0x882 JUMP JUMPDEST PUSH0 JUMPDEST DUP3 DUP2 LT ISZERO PUSH2 0xAC5 JUMPI DUP5 DUP10 ADD MLOAD DUP3 SSTORE PUSH1 0x1 DUP3 ADD SWAP2 POP PUSH1 0x20 DUP6 ADD SWAP5 POP PUSH1 0x20 DUP2 ADD SWAP1 POP PUSH2 0xAA0 JUMP JUMPDEST DUP7 DUP4 LT ISZERO PUSH2 0xAE2 JUMPI DUP5 DUP10 ADD MLOAD PUSH2 0xADE PUSH1 0x1F DUP10 AND DUP3 PUSH2 0x9F1 JUMP JUMPDEST DUP4 SSTORE POP JUMPDEST PUSH1 0x1 PUSH1 0x2 DUP9 MUL ADD DUP9 SSTORE POP POP POP JUMPDEST POP POP POP POP POP POP JUMP JUMPDEST PUSH0 PUSH8 0xFFFFFFFFFFFFFFFF DUP3 AND SWAP1 POP SWAP2 SWAP1 POP JUMP JUMPDEST PUSH2 0xB13 DUP2 PUSH2 0xAF7 JUMP JUMPDEST DUP3 MSTORE POP POP JUMP JUMPDEST PUSH2 0xB22 DUP2 PUSH2 0x900 JUMP JUMPDEST DUP3 MSTORE POP POP JUMP JUMPDEST PUSH0 PUSH2 0xB42 PUSH2 0xB3D PUSH2 0xB38 DUP5 PUSH2 0xAF7 JUMP JUMPDEST PUSH2 0x909 JUMP JUMPDEST PUSH2 0xAF7 JUMP JUMPDEST SWAP1 POP SWAP2 SWAP1 POP JUMP JUMPDEST PUSH2 0xB52 DUP2 PUSH2 0xB28 JUMP JUMPDEST DUP3 MSTORE POP POP JUMP JUMPDEST PUSH0 PUSH1 0xC0 DUP3 ADD SWAP1 POP PUSH2 0xB6B PUSH0 DUP4 ADD DUP10 PUSH2 0xB0A JUMP JUMPDEST PUSH2 0xB78 PUSH1 0x20 DUP4 ADD DUP9 PUSH2 0xB19 JUMP JUMPDEST PUSH2 0xB85 PUSH1 0x40 DUP4 ADD DUP8 PUSH2 0xB0A JUMP JUMPDEST PUSH2 0xB92 PUSH1 0x60 DUP4 ADD DUP7 PUSH2 0xB0A JUMP JUMPDEST DUP2 DUP2 SUB PUSH1 0x80 DUP4 ADD MSTORE PUSH2 0xBA4 DUP2 DUP6 PUSH2 0x76F JUMP JUMPDEST SWAP1 POP PUSH2 0xBB3 PUSH1 0xA0 DUP4 ADD DUP5 PUSH2 0xB49 JUMP JUMPDEST SWAP8 SWAP7 POP POP POP POP POP POP POP JUMP JUMPDEST PUSH0 DUP2 SWAP1 POP SWAP3 SWAP2 POP POP JUMP JUMPDEST PUSH0 PUSH2 0xBD2 DUP3 PUSH2 0x71D JUMP JUMPDEST PUSH2 0xBDC DUP2 DUP6 PUSH2 0xBBE JUMP JUMPDEST SWAP4 POP PUSH2 0xBEC DUP2 DUP6 PUSH1 0x20 DUP7 ADD PUSH2 0x737 JUMP JUMPDEST DUP1 DUP5 ADD SWAP2 POP POP SWAP3 SWAP2 POP POP JUMP JUMPDEST PUSH0 PUSH2 0xC03 DUP3 DUP5 PUSH2 0xBC8 JUMP JUMPDEST SWAP2 POP DUP2 SWAP1 POP SWAP3 SWAP2 POP POP JUMP JUMPDEST PUSH0 DUP3 DUP3 MSTORE PUSH1 0x20 DUP3 ADD SWAP1 POP SWAP3 SWAP2 POP POP JUMP JUMPDEST PUSH32 0x496E76616C69642043424F520000000000000000000000000000000000000000 PUSH0 DUP3 ADD MSTORE POP JUMP JUMPDEST PUSH0 PUSH2 0xC52 PUSH1 0xC DUP4 PUSH2 0xC0E JUMP JUMPDEST SWAP2 POP PUSH2 0xC5D DUP3 PUSH2 0xC1E JUMP JUMPDEST PUSH1 0x20 DUP3 ADD SWAP1 POP SWAP2 SWAP1 POP JUMP JUMPDEST PUSH0 PUSH1 0x20 DUP3 ADD SWAP1 POP DUP2 DUP2 SUB PUSH0 DUP4 ADD MSTORE PUSH2 0xC7F DUP2 PUSH2 0xC46 JUMP JUMPDEST SWAP1 POP SWAP2 SWAP1 POP JUMP JUMPDEST PUSH0 PUSH1 0x40 DUP3 ADD SWAP1 POP PUSH2 0xC99 PUSH0 DUP4 ADD DUP6 PUSH2 0xB19 JUMP JUMPDEST PUSH2 0xCA6 PUSH1 0x20 DUP4 ADD DUP5 PUSH2 0xB19 JUMP JUMPDEST SWAP4 SWAP3 POP POP POP JUMP JUMPDEST PUSH0 PUSH1 0x40 MLOAD SWAP1 POP SWAP1 JUMP JUMPDEST PUSH0 DUP1 REVERT JUMPDEST PUSH0 DUP1 REVERT JUMPDEST PUSH2 0xCC7 DUP2 PUSH2 0x7C7 JUMP JUMPDEST DUP2 EQ PUSH2 0xCD1 JUMPI PUSH0 DUP1 REVERT JUMPDEST POP JUMP JUMPDEST PUSH0 DUP2 MLOAD SWAP1 POP PUSH2 0xCE2 DUP2 PUSH2 0xCBE JUMP JUMPDEST SWAP3 SWAP2 POP POP JUMP JUMPDEST PUSH2 0xCF1 DUP2 PUSH2 0xAF7 JUMP JUMPDEST DUP2 EQ PUSH2 0xCFB JUMPI PUSH0 DUP1 REVERT JUMPDEST POP JUMP JUMPDEST PUSH0 DUP2 MLOAD SWAP1 POP PUSH2 0xD0C DUP2 PUSH2 0xCE8 JUMP JUMPDEST SWAP3 SWAP2 POP POP JUMP JUMPDEST PUSH0 DUP1 REVERT JUMPDEST PUSH0 DUP1 REVERT JUMPDEST PUSH2 0xD23 DUP3 PUSH2 0x75F JUMP JUMPDEST DUP2 ADD DUP2 DUP2 LT PUSH8 0xFFFFFFFFFFFFFFFF DUP3 GT OR ISZERO PUSH2 0xD42 JUMPI PUSH2 0xD41 PUSH2 0x7F8 JUMP JUMPDEST JUMPDEST DUP1 PUSH1 0x40 MSTORE POP POP POP JUMP JUMPDEST PUSH0 PUSH2 0xD54 PUSH2 0xCAD JUMP JUMPDEST SWAP1 POP PUSH2 0xD60 DUP3 DUP3 PUSH2 0xD1A JUMP JUMPDEST SWAP2 SWAP1 POP JUMP JUMPDEST PUSH0 PUSH8 0xFFFFFFFFFFFFFFFF DUP3 GT ISZERO PUSH2 0xD7F JUMPI PUSH2 0xD7E PUSH2 0x7F8 JUMP JUMPDEST JUMPDEST PUSH2 0xD88 DUP3 PUSH2 0x75F JUMP JUMPDEST SWAP1 POP PUSH1 0x20 DUP2 ADD SWAP1 POP SWAP2 SWAP1 POP JUMP JUMPDEST PUSH0 PUSH2 0xDA7 PUSH2 0xDA2 DUP5 PUSH2 0xD65 JUMP JUMPDEST PUSH2 0xD4B JUMP JUMPDEST SWAP1 POP DUP3 DUP2 MSTORE PUSH1 0x20 DUP2 ADD DUP5 DUP5 DUP5 ADD GT ISZERO PUSH2 0xDC3 JUMPI PUSH2 0xDC2 PUSH2 0xD16 JUMP JUMPDEST JUMPDEST PUSH2 0xDCE DUP5 DUP3 DUP6 PUSH2 0x737 JUMP JUMPDEST POP SWAP4 SWAP3 POP POP POP JUMP JUMPDEST PUSH0 DUP3 PUSH1 0x1F DUP4 ADD SLT PUSH2 0xDEA JUMPI PUSH2 0xDE9 PUSH2 0xD12 JUMP JUMPDEST JUMPDEST DUP2 MLOAD PUSH2 0xDFA DUP5 DUP3 PUSH1 0x20 DUP7 ADD PUSH2 0xD95 JUMP JUMPDEST SWAP2 POP POP SWAP3 SWAP2 POP POP JUMP JUMPDEST PUSH0 DUP1 PUSH0 PUSH1 0x60 DUP5 DUP7 SUB SLT ISZERO PUSH2 0xE1A JUMPI PUSH2 0xE19 PUSH2 0xCB6 JUMP JUMPDEST JUMPDEST PUSH0 PUSH2 0xE27 DUP7 DUP3 DUP8 ADD PUSH2 0xCD4 JUMP JUMPDEST SWAP4 POP POP PUSH1 0x20 PUSH2 0xE38 DUP7 DUP3 DUP8 ADD PUSH2 0xCFE JUMP JUMPDEST SWAP3 POP POP PUSH1 0x40 DUP5 ADD MLOAD PUSH8 0xFFFFFFFFFFFFFFFF DUP2 GT ISZERO PUSH2 0xE59 JUMPI PUSH2 0xE58 PUSH2 0xCBA JUMP JUMPDEST JUMPDEST PUSH2 0xE65 DUP7 DUP3 DUP8 ADD PUSH2 0xDD6 JUMP JUMPDEST SWAP2 POP POP SWAP3 POP SWAP3 POP SWAP3 JUMP JUMPDEST PUSH0 PUSH1 0x20 DUP3 ADD SWAP1 POP PUSH2 0xE82 PUSH0 DUP4 ADD DUP5 PUSH2 0xB0A JUMP JUMPDEST SWAP3 SWAP2 POP POP JUMP JUMPDEST PUSH32 0x4E487B7100000000000000000000000000000000000000000000000000000000 PUSH0 MSTORE PUSH1 0x12 PUSH1 0x4 MSTORE PUSH1 0x24 PUSH0 REVERT JUMPDEST PUSH0 PUSH2 0xEBF DUP3 PUSH2 0x900 JUMP JUMPDEST SWAP2 POP PUSH2 0xECA DUP4 PUSH2 0x900 JUMP JUMPDEST SWAP3 POP DUP3 PUSH2 0xEDA JUMPI PUSH2 0xED9 PUSH2 0xE88 JUMP JUMPDEST JUMPDEST DUP3 DUP3 MOD SWAP1 POP SWAP3 SWAP2 POP POP JUMP JUMPDEST PUSH32 0x4E487B7100000000000000000000000000000000000000000000000000000000 PUSH0 MSTORE PUSH1 0x11 PUSH1 0x4 MSTORE PUSH1 0x24 PUSH0 REVERT JUMPDEST PUSH0 PUSH2 0xF1C DUP3 PUSH2 0x900 JUMP JUMPDEST SWAP2 POP PUSH2 0xF27 DUP4 PUSH2 0x900 JUMP JUMPDEST SWAP3 POP DUP3 DUP3 SUB SWAP1 POP DUP2 DUP2 GT ISZERO PUSH2 0xF3F JUMPI PUSH2 0xF3E PUSH2 0xEE5 JUMP JUMPDEST JUMPDEST SWAP3 SWAP2 POP POP JUMP JUMPDEST PUSH0 PUSH2 0xF4F DUP3 PUSH2 0x900 JUMP JUMPDEST SWAP2 POP PUSH2 0xF5A DUP4 PUSH2 0x900 JUMP JUMPDEST SWAP3 POP DUP3 DUP3 ADD SWAP1 POP DUP1 DUP3 GT ISZERO PUSH2 0xF72 JUMPI PUSH2 0xF71 PUSH2 0xEE5 JUMP JUMPDEST JUMPDEST SWAP3 SWAP2 POP POP JUMP INVALID LOG2 PUSH5 0x6970667358 0x22 SLT KECCAK256 PUSH7 0xBFF54E44F78B34 0xB1 0xD1 PUSH15 0xE8391780A810E588F5DD22B61AEA64 NUMBER PUSH9 0xFED25FF664736F6C63 NUMBER STOP ADDMOD XOR STOP CALLER "
				},
				"gasEstimates": {
					"creation": {
						"codeDepositCost": "802800",
						"executionCost": "836",
						"totalCost": "803636"
					},
					"external": {
						"buffer()": "infinite",
						"execute()": "infinite",
						"num_response()": "2447",
						"raw_response()": "infinite"
					},
					"internal": {
						"_serializeRandomXParameters()": "infinite"
					}
				},
				"methodIdentifiers": {
					"buffer()": "edaafe20",
					"execute()": "61461954",
					"num_response()": "ebc55729",
					"raw_response()": "a6f73547"
				}
			},
			"storageLayout": {
				"storage": [
					{
						"astId": 1397,
						"contract": "Willow.sol:WillowIPC",
						"label": "raw_response",
						"offset": 0,
						"slot": "0",
						"type": "t_bytes_storage"
					},
					{
						"astId": 1399,
						"contract": "Willow.sol:WillowIPC",
						"label": "num_response",
						"offset": 0,
						"slot": "1",
						"type": "t_int256"
					},
					{
						"astId": 1401,
						"contract": "Willow.sol:WillowIPC",
						"label": "buffer",
						"offset": 0,
						"slot": "2",
						"type": "t_bytes_storage"
					}
				],
				"types": {
					"t_bytes_storage": {
						"encoding": "bytes",
						"label": "bytes",
						"numberOfBytes": "32"
					},
					"t_int256": {
						"encoding": "inplace",
						"label": "int256",
						"numberOfBytes": "32"
					}
				}
			},
			"userdoc": {
				"errors": {
					"ActorNotFound()": [
						{
							"notice": "the actor is not found"
						}
					],
					"FailToCallActor()": [
						{
							"notice": "an error happened trying to call the actor"
						}
					],
					"InvalidCodec(uint64)": [
						{
							"notice": "the codec received is not valid"
						}
					],
					"InvalidResponseLength()": [
						{
							"notice": "the response received is not correct. In some case no response is expected and we received one, or a response was indeed expected and we received none."
						}
					],
					"NotEnoughBalance(uint256,uint256)": [
						{
							"notice": "the smart contract has no enough balance to transfer"
						}
					]
				},
				"kind": "user",
				"methods": {},
				"version": 1
			}
		}
	}
}