{
	"data": {
		"bytecode": {
			"linkReferences": {},
			"object": "608060405234801561000f575f80fd5b50610f0d8061001d5f395ff3fe608060405234801561000f575f80fd5b506004361061004a575f3560e01c8063a6f735471461004e578063ebc557291461006c578063edaafe201461008a578063f8a8fd6d146100a8575b5f80fd5b6100566100b2565b6040516100639190610706565b60405180910390f35b61007461013d565b604051610081919061073e565b60405180910390f35b610092610143565b60405161009f9190610706565b60405180910390f35b6100b06101cf565b005b5f80546100be90610784565b80601f01602080910402602001604051908101604052809291908181526020018280546100ea90610784565b80156101355780601f1061010c57610100808354040283529160200191610135565b820191905f5260205f20905b81548152906001019060200180831161011857829003601f168201915b505050505081565b60015481565b6002805461015090610784565b80601f016020809104026020016040519081016040528092919081815260200182805461017c90610784565b80156101c75780601f1061019e576101008083540402835291602001916101c7565b820191905f5260205f20905b8154815290600101906020018083116101aa57829003601f168201915b505050505081565b5f6101d861020e565b90506101ee603163ea326f6e6051845f80610245565b60015f805f8491905090816102039190610987565b508391905055505050565b60605f8061021b8261036a565b90506102268161038f565b600290816102349190610987565b5061023e8161038f565b9250505090565b5f606061026673fe00000000000000000000000000000000000005856103e5565b5f8073fe0000000000000000000000000000000000000573ffffffffffffffffffffffffffffffffffffffff168987876102a0575f6102a3565b60015b8b8b8f6040516020016102bb96959493929190610ab7565b6040516020818303038152906040526040516102d79190610b57565b5f60405180830381855af49150503d805f811461030f576040519150601f19603f3d011682016040523d82523d5f602084013e610314565b606091505b509150915081610350576040517f8a7db5bf00000000000000000000000000000000000000000000000000000000815260040160405180910390fd5b61035981610479565b935093505050965096945050505050565b610372610644565b61037f815f0151836105ba565b505f816020018181525050919050565b60605f8260200151146103d7576040517f08c379a00000000000000000000000000000000000000000000000000000000081526004016103ce90610bc7565b60405180910390fd5b815f01515f01519050919050565b5f479050818110156104305780826040517f8f0f4206000000000000000000000000000000000000000000000000000000008152600401610427929190610be5565b60405180910390fd5b5f61043a84610630565b905080610473576040517f64d954b000000000000000000000000000000000000000000000000000000000815260040160405180910390fd5b50505050565b5f60605f805f858060200190518101906104939190610d62565b9250925092505f67ffffffffffffffff168267ffffffffffffffff16036104f3575f8151146104ee576040517f0e74990700000000000000000000000000000000000000000000000000000000815260040160405180910390fd5b6105ac565b605167ffffffffffffffff168267ffffffffffffffff16148061052a5750607167ffffffffffffffff168267ffffffffffffffff16145b1561056e575f815103610569576040517f0e74990700000000000000000000000000000000000000000000000000000000815260040160405180910390fd5b6105ab565b816040517ff1f6bced0000000000000000000000000000000000000000000000000000000081526004016105a29190610dce565b60405180910390fd5b5b828194509450505050915091565b6105c2610663565b5f6020836105d09190610e14565b146105fc576020826105e29190610e14565b60206105ee9190610e71565b826105f99190610ea4565b91505b818360200181815250506040518084525f815282810160200181811015610621575f80fd5b80604052505082905092915050565b5f80823f90505f801b811415915050919050565b6040518060400160405280610657610663565b81526020015f81525090565b6040518060400160405280606081526020015f81525090565b5f81519050919050565b5f82825260208201905092915050565b5f5b838110156106b3578082015181840152602081019050610698565b5f8484015250505050565b5f601f19601f8301169050919050565b5f6106d88261067c565b6106e28185610686565b93506106f2818560208601610696565b6106fb816106be565b840191505092915050565b5f6020820190508181035f83015261071e81846106ce565b905092915050565b5f819050919050565b61073881610726565b82525050565b5f6020820190506107515f83018461072f565b92915050565b7f4e487b71000000000000000000000000000000000000000000000000000000005f52602260045260245ffd5b5f600282049050600182168061079b57607f821691505b6020821081036107ae576107ad610757565b5b50919050565b7f4e487b71000000000000000000000000000000000000000000000000000000005f52604160045260245ffd5b5f819050815f5260205f209050919050565b5f6020601f8301049050919050565b5f82821b905092915050565b5f6008830261083d7fffffffffffffffffffffffffffffffffffffffffffffffffffffffffffffffff82610802565b6108478683610802565b95508019841693508086168417925050509392505050565b5f819050919050565b5f819050919050565b5f61088b6108866108818461085f565b610868565b61085f565b9050919050565b5f819050919050565b6108a483610871565b6108b86108b082610892565b84845461080e565b825550505050565b5f90565b6108cc6108c0565b6108d781848461089b565b505050565b5b818110156108fa576108ef5f826108c4565b6001810190506108dd565b5050565b601f82111561093f57610910816107e1565b610919846107f3565b81016020851015610928578190505b61093c610934856107f3565b8301826108dc565b50505b505050565b5f82821c905092915050565b5f61095f5f1984600802610944565b1980831691505092915050565b5f6109778383610950565b9150826002028217905092915050565b6109908261067c565b67ffffffffffffffff8111156109a9576109a86107b4565b5b6109b38254610784565b6109be8282856108fe565b5f60209050601f8311600181146109ef575f84156109dd578287015190505b6109e7858261096c565b865550610a4e565b601f1984166109fd866107e1565b5f5b82811015610a24578489015182556001820191506020850194506020810190506109ff565b86831015610a415784890151610a3d601f891682610950565b8355505b6001600288020188555050505b505050505050565b5f67ffffffffffffffff82169050919050565b610a7281610a56565b82525050565b610a818161085f565b82525050565b5f610aa1610a9c610a9784610a56565b610868565b610a56565b9050919050565b610ab181610a87565b82525050565b5f60c082019050610aca5f830189610a69565b610ad76020830188610a78565b610ae46040830187610a69565b610af16060830186610a69565b8181036080830152610b0381856106ce565b9050610b1260a0830184610aa8565b979650505050505050565b5f81905092915050565b5f610b318261067c565b610b3b8185610b1d565b9350610b4b818560208601610696565b80840191505092915050565b5f610b628284610b27565b915081905092915050565b5f82825260208201905092915050565b7f496e76616c69642043424f5200000000000000000000000000000000000000005f82015250565b5f610bb1600c83610b6d565b9150610bbc82610b7d565b602082019050919050565b5f6020820190508181035f830152610bde81610ba5565b9050919050565b5f604082019050610bf85f830185610a78565b610c056020830184610a78565b9392505050565b5f604051905090565b5f80fd5b5f80fd5b610c2681610726565b8114610c30575f80fd5b50565b5f81519050610c4181610c1d565b92915050565b610c5081610a56565b8114610c5a575f80fd5b50565b5f81519050610c6b81610c47565b92915050565b5f80fd5b5f80fd5b610c82826106be565b810181811067ffffffffffffffff82111715610ca157610ca06107b4565b5b80604052505050565b5f610cb3610c0c565b9050610cbf8282610c79565b919050565b5f67ffffffffffffffff821115610cde57610cdd6107b4565b5b610ce7826106be565b9050602081019050919050565b5f610d06610d0184610cc4565b610caa565b905082815260208101848484011115610d2257610d21610c75565b5b610d2d848285610696565b509392505050565b5f82601f830112610d4957610d48610c71565b5b8151610d59848260208601610cf4565b91505092915050565b5f805f60608486031215610d7957610d78610c15565b5b5f610d8686828701610c33565b9350506020610d9786828701610c5d565b925050604084015167ffffffffffffffff811115610db857610db7610c19565b5b610dc486828701610d35565b9150509250925092565b5f602082019050610de15f830184610a69565b92915050565b7f4e487b71000000000000000000000000000000000000000000000000000000005f52601260045260245ffd5b5f610e1e8261085f565b9150610e298361085f565b925082610e3957610e38610de7565b5b828206905092915050565b7f4e487b71000000000000000000000000000000000000000000000000000000005f52601160045260245ffd5b5f610e7b8261085f565b9150610e868361085f565b9250828203905081811115610e9e57610e9d610e44565b5b92915050565b5f610eae8261085f565b9150610eb98361085f565b9250828201905080821115610ed157610ed0610e44565b5b9291505056fea2646970667358221220a1e9352fac729b3cb3e8e05a9665d4d828fdb5b372d7dedc0af274cd8a67d5ca64736f6c63430008180033",
			"opcodes": "PUSH1 0x80 PUSH1 0x40 MSTORE CALLVALUE DUP1 ISZERO PUSH2 0xF JUMPI PUSH0 DUP1 REVERT JUMPDEST POP PUSH2 0xF0D DUP1 PUSH2 0x1D PUSH0 CODECOPY PUSH0 RETURN INVALID PUSH1 0x80 PUSH1 0x40 MSTORE CALLVALUE DUP1 ISZERO PUSH2 0xF JUMPI PUSH0 DUP1 REVERT JUMPDEST POP PUSH1 0x4 CALLDATASIZE LT PUSH2 0x4A JUMPI PUSH0 CALLDATALOAD PUSH1 0xE0 SHR DUP1 PUSH4 0xA6F73547 EQ PUSH2 0x4E JUMPI DUP1 PUSH4 0xEBC55729 EQ PUSH2 0x6C JUMPI DUP1 PUSH4 0xEDAAFE20 EQ PUSH2 0x8A JUMPI DUP1 PUSH4 0xF8A8FD6D EQ PUSH2 0xA8 JUMPI JUMPDEST PUSH0 DUP1 REVERT JUMPDEST PUSH2 0x56 PUSH2 0xB2 JUMP JUMPDEST PUSH1 0x40 MLOAD PUSH2 0x63 SWAP2 SWAP1 PUSH2 0x706 JUMP JUMPDEST PUSH1 0x40 MLOAD DUP1 SWAP2 SUB SWAP1 RETURN JUMPDEST PUSH2 0x74 PUSH2 0x13D JUMP JUMPDEST PUSH1 0x40 MLOAD PUSH2 0x81 SWAP2 SWAP1 PUSH2 0x73E JUMP JUMPDEST PUSH1 0x40 MLOAD DUP1 SWAP2 SUB SWAP1 RETURN JUMPDEST PUSH2 0x92 PUSH2 0x143 JUMP JUMPDEST PUSH1 0x40 MLOAD PUSH2 0x9F SWAP2 SWAP1 PUSH2 0x706 JUMP JUMPDEST PUSH1 0x40 MLOAD DUP1 SWAP2 SUB SWAP1 RETURN JUMPDEST PUSH2 0xB0 PUSH2 0x1CF JUMP JUMPDEST STOP JUMPDEST PUSH0 DUP1 SLOAD PUSH2 0xBE SWAP1 PUSH2 0x784 JUMP JUMPDEST DUP1 PUSH1 0x1F ADD PUSH1 0x20 DUP1 SWAP2 DIV MUL PUSH1 0x20 ADD PUSH1 0x40 MLOAD SWAP1 DUP2 ADD PUSH1 0x40 MSTORE DUP1 SWAP3 SWAP2 SWAP1 DUP2 DUP2 MSTORE PUSH1 0x20 ADD DUP3 DUP1 SLOAD PUSH2 0xEA SWAP1 PUSH2 0x784 JUMP JUMPDEST DUP1 ISZERO PUSH2 0x135 JUMPI DUP1 PUSH1 0x1F LT PUSH2 0x10C JUMPI PUSH2 0x100 DUP1 DUP4 SLOAD DIV MUL DUP4 MSTORE SWAP2 PUSH1 0x20 ADD SWAP2 PUSH2 0x135 JUMP JUMPDEST DUP3 ADD SWAP2 SWAP1 PUSH0 MSTORE PUSH1 0x20 PUSH0 KECCAK256 SWAP1 JUMPDEST DUP2 SLOAD DUP2 MSTORE SWAP1 PUSH1 0x1 ADD SWAP1 PUSH1 0x20 ADD DUP1 DUP4 GT PUSH2 0x118 JUMPI DUP3 SWAP1 SUB PUSH1 0x1F AND DUP3 ADD SWAP2 JUMPDEST POP POP POP POP POP DUP2 JUMP JUMPDEST PUSH1 0x1 SLOAD DUP2 JUMP JUMPDEST PUSH1 0x2 DUP1 SLOAD PUSH2 0x150 SWAP1 PUSH2 0x784 JUMP JUMPDEST DUP1 PUSH1 0x1F ADD PUSH1 0x20 DUP1 SWAP2 DIV MUL PUSH1 0x20 ADD PUSH1 0x40 MLOAD SWAP1 DUP2 ADD PUSH1 0x40 MSTORE DUP1 SWAP3 SWAP2 SWAP1 DUP2 DUP2 MSTORE PUSH1 0x20 ADD DUP3 DUP1 SLOAD PUSH2 0x17C SWAP1 PUSH2 0x784 JUMP JUMPDEST DUP1 ISZERO PUSH2 0x1C7 JUMPI DUP1 PUSH1 0x1F LT PUSH2 0x19E JUMPI PUSH2 0x100 DUP1 DUP4 SLOAD DIV MUL DUP4 MSTORE SWAP2 PUSH1 0x20 ADD SWAP2 PUSH2 0x1C7 JUMP JUMPDEST DUP3 ADD SWAP2 SWAP1 PUSH0 MSTORE PUSH1 0x20 PUSH0 KECCAK256 SWAP1 JUMPDEST DUP2 SLOAD DUP2 MSTORE SWAP1 PUSH1 0x1 ADD SWAP1 PUSH1 0x20 ADD DUP1 DUP4 GT PUSH2 0x1AA JUMPI DUP3 SWAP1 SUB PUSH1 0x1F AND DUP3 ADD SWAP2 JUMPDEST POP POP POP POP POP DUP2 JUMP JUMPDEST PUSH0 PUSH2 0x1D8 PUSH2 0x20E JUMP JUMPDEST SWAP1 POP PUSH2 0x1EE PUSH1 0x31 PUSH4 0xEA326F6E PUSH1 0x51 DUP5 PUSH0 DUP1 PUSH2 0x245 JUMP JUMPDEST PUSH1 0x1 PUSH0 DUP1 PUSH0 DUP5 SWAP2 SWAP1 POP SWAP1 DUP2 PUSH2 0x203 SWAP2 SWAP1 PUSH2 0x987 JUMP JUMPDEST POP DUP4 SWAP2 SWAP1 POP SSTORE POP POP POP JUMP JUMPDEST PUSH1 0x60 PUSH0 DUP1 PUSH2 0x21B DUP3 PUSH2 0x36A JUMP JUMPDEST SWAP1 POP PUSH2 0x226 DUP2 PUSH2 0x38F JUMP JUMPDEST PUSH1 0x2 SWAP1 DUP2 PUSH2 0x234 SWAP2 SWAP1 PUSH2 0x987 JUMP JUMPDEST POP PUSH2 0x23E DUP2 PUSH2 0x38F JUMP JUMPDEST SWAP3 POP POP POP SWAP1 JUMP JUMPDEST PUSH0 PUSH1 0x60 PUSH2 0x266 PUSH20 0xFE00000000000000000000000000000000000005 DUP6 PUSH2 0x3E5 JUMP JUMPDEST PUSH0 DUP1 PUSH20 0xFE00000000000000000000000000000000000005 PUSH20 0xFFFFFFFFFFFFFFFFFFFFFFFFFFFFFFFFFFFFFFFF AND DUP10 DUP8 DUP8 PUSH2 0x2A0 JUMPI PUSH0 PUSH2 0x2A3 JUMP JUMPDEST PUSH1 0x1 JUMPDEST DUP12 DUP12 DUP16 PUSH1 0x40 MLOAD PUSH1 0x20 ADD PUSH2 0x2BB SWAP7 SWAP6 SWAP5 SWAP4 SWAP3 SWAP2 SWAP1 PUSH2 0xAB7 JUMP JUMPDEST PUSH1 0x40 MLOAD PUSH1 0x20 DUP2 DUP4 SUB SUB DUP2 MSTORE SWAP1 PUSH1 0x40 MSTORE PUSH1 0x40 MLOAD PUSH2 0x2D7 SWAP2 SWAP1 PUSH2 0xB57 JUMP JUMPDEST PUSH0 PUSH1 0x40 MLOAD DUP1 DUP4 SUB DUP2 DUP6 GAS DELEGATECALL SWAP2 POP POP RETURNDATASIZE DUP1 PUSH0 DUP2 EQ PUSH2 0x30F JUMPI PUSH1 0x40 MLOAD SWAP2 POP PUSH1 0x1F NOT PUSH1 0x3F RETURNDATASIZE ADD AND DUP3 ADD PUSH1 0x40 MSTORE RETURNDATASIZE DUP3 MSTORE RETURNDATASIZE PUSH0 PUSH1 0x20 DUP5 ADD RETURNDATACOPY PUSH2 0x314 JUMP JUMPDEST PUSH1 0x60 SWAP2 POP JUMPDEST POP SWAP2 POP SWAP2 POP DUP2 PUSH2 0x350 JUMPI PUSH1 0x40 MLOAD PUSH32 0x8A7DB5BF00000000000000000000000000000000000000000000000000000000 DUP2 MSTORE PUSH1 0x4 ADD PUSH1 0x40 MLOAD DUP1 SWAP2 SUB SWAP1 REVERT JUMPDEST PUSH2 0x359 DUP2 PUSH2 0x479 JUMP JUMPDEST SWAP4 POP SWAP4 POP POP POP SWAP7 POP SWAP7 SWAP5 POP POP POP POP POP JUMP JUMPDEST PUSH2 0x372 PUSH2 0x644 JUMP JUMPDEST PUSH2 0x37F DUP2 PUSH0 ADD MLOAD DUP4 PUSH2 0x5BA JUMP JUMPDEST POP PUSH0 DUP2 PUSH1 0x20 ADD DUP2 DUP2 MSTORE POP POP SWAP2 SWAP1 POP JUMP JUMPDEST PUSH1 0x60 PUSH0 DUP3 PUSH1 0x20 ADD MLOAD EQ PUSH2 0x3D7 JUMPI PUSH1 0x40 MLOAD PUSH32 0x8C379A000000000000000000000000000000000000000000000000000000000 DUP2 MSTORE PUSH1 0x4 ADD PUSH2 0x3CE SWAP1 PUSH2 0xBC7 JUMP JUMPDEST PUSH1 0x40 MLOAD DUP1 SWAP2 SUB SWAP1 REVERT JUMPDEST DUP2 PUSH0 ADD MLOAD PUSH0 ADD MLOAD SWAP1 POP SWAP2 SWAP1 POP JUMP JUMPDEST PUSH0 SELFBALANCE SWAP1 POP DUP2 DUP2 LT ISZERO PUSH2 0x430 JUMPI DUP1 DUP3 PUSH1 0x40 MLOAD PUSH32 0x8F0F420600000000000000000000000000000000000000000000000000000000 DUP2 MSTORE PUSH1 0x4 ADD PUSH2 0x427 SWAP3 SWAP2 SWAP1 PUSH2 0xBE5 JUMP JUMPDEST PUSH1 0x40 MLOAD DUP1 SWAP2 SUB SWAP1 REVERT JUMPDEST PUSH0 PUSH2 0x43A DUP5 PUSH2 0x630 JUMP JUMPDEST SWAP1 POP DUP1 PUSH2 0x473 JUMPI PUSH1 0x40 MLOAD PUSH32 0x64D954B000000000000000000000000000000000000000000000000000000000 DUP2 MSTORE PUSH1 0x4 ADD PUSH1 0x40 MLOAD DUP1 SWAP2 SUB SWAP1 REVERT JUMPDEST POP POP POP POP JUMP JUMPDEST PUSH0 PUSH1 0x60 PUSH0 DUP1 PUSH0 DUP6 DUP1 PUSH1 0x20 ADD SWAP1 MLOAD DUP2 ADD SWAP1 PUSH2 0x493 SWAP2 SWAP1 PUSH2 0xD62 JUMP JUMPDEST SWAP3 POP SWAP3 POP SWAP3 POP PUSH0 PUSH8 0xFFFFFFFFFFFFFFFF AND DUP3 PUSH8 0xFFFFFFFFFFFFFFFF AND SUB PUSH2 0x4F3 JUMPI PUSH0 DUP2 MLOAD EQ PUSH2 0x4EE JUMPI PUSH1 0x40 MLOAD PUSH32 0xE74990700000000000000000000000000000000000000000000000000000000 DUP2 MSTORE PUSH1 0x4 ADD PUSH1 0x40 MLOAD DUP1 SWAP2 SUB SWAP1 REVERT JUMPDEST PUSH2 0x5AC JUMP JUMPDEST PUSH1 0x51 PUSH8 0xFFFFFFFFFFFFFFFF AND DUP3 PUSH8 0xFFFFFFFFFFFFFFFF AND EQ DUP1 PUSH2 0x52A JUMPI POP PUSH1 0x71 PUSH8 0xFFFFFFFFFFFFFFFF AND DUP3 PUSH8 0xFFFFFFFFFFFFFFFF AND EQ JUMPDEST ISZERO PUSH2 0x56E JUMPI PUSH0 DUP2 MLOAD SUB PUSH2 0x569 JUMPI PUSH1 0x40 MLOAD PUSH32 0xE74990700000000000000000000000000000000000000000000000000000000 DUP2 MSTORE PUSH1 0x4 ADD PUSH1 0x40 MLOAD DUP1 SWAP2 SUB SWAP1 REVERT JUMPDEST PUSH2 0x5AB JUMP JUMPDEST DUP2 PUSH1 0x40 MLOAD PUSH32 0xF1F6BCED00000000000000000000000000000000000000000000000000000000 DUP2 MSTORE PUSH1 0x4 ADD PUSH2 0x5A2 SWAP2 SWAP1 PUSH2 0xDCE JUMP JUMPDEST PUSH1 0x40 MLOAD DUP1 SWAP2 SUB SWAP1 REVERT JUMPDEST JUMPDEST DUP3 DUP2 SWAP5 POP SWAP5 POP POP POP POP SWAP2 POP SWAP2 JUMP JUMPDEST PUSH2 0x5C2 PUSH2 0x663 JUMP JUMPDEST PUSH0 PUSH1 0x20 DUP4 PUSH2 0x5D0 SWAP2 SWAP1 PUSH2 0xE14 JUMP JUMPDEST EQ PUSH2 0x5FC JUMPI PUSH1 0x20 DUP3 PUSH2 0x5E2 SWAP2 SWAP1 PUSH2 0xE14 JUMP JUMPDEST PUSH1 0x20 PUSH2 0x5EE SWAP2 SWAP1 PUSH2 0xE71 JUMP JUMPDEST DUP3 PUSH2 0x5F9 SWAP2 SWAP1 PUSH2 0xEA4 JUMP JUMPDEST SWAP2 POP JUMPDEST DUP2 DUP4 PUSH1 0x20 ADD DUP2 DUP2 MSTORE POP POP PUSH1 0x40 MLOAD DUP1 DUP5 MSTORE PUSH0 DUP2 MSTORE DUP3 DUP2 ADD PUSH1 0x20 ADD DUP2 DUP2 LT ISZERO PUSH2 0x621 JUMPI PUSH0 DUP1 REVERT JUMPDEST DUP1 PUSH1 0x40 MSTORE POP POP DUP3 SWAP1 POP SWAP3 SWAP2 POP POP JUMP JUMPDEST PUSH0 DUP1 DUP3 EXTCODEHASH SWAP1 POP PUSH0 DUP1 SHL DUP2 EQ ISZERO SWAP2 POP POP SWAP2 SWAP1 POP JUMP JUMPDEST PUSH1 0x40 MLOAD DUP1 PUSH1 0x40 ADD PUSH1 0x40 MSTORE DUP1 PUSH2 0x657 PUSH2 0x663 JUMP JUMPDEST DUP2 MSTORE PUSH1 0x20 ADD PUSH0 DUP2 MSTORE POP SWAP1 JUMP JUMPDEST PUSH1 0x40 MLOAD DUP1 PUSH1 0x40 ADD PUSH1 0x40 MSTORE DUP1 PUSH1 0x60 DUP2 MSTORE PUSH1 0x20 ADD PUSH0 DUP2 MSTORE POP SWAP1 JUMP JUMPDEST PUSH0 DUP2 MLOAD SWAP1 POP SWAP2 SWAP1 POP JUMP JUMPDEST PUSH0 DUP3 DUP3 MSTORE PUSH1 0x20 DUP3 ADD SWAP1 POP SWAP3 SWAP2 POP POP JUMP JUMPDEST PUSH0 JUMPDEST DUP4 DUP2 LT ISZERO PUSH2 0x6B3 JUMPI DUP1 DUP3 ADD MLOAD DUP2 DUP5 ADD MSTORE PUSH1 0x20 DUP2 ADD SWAP1 POP PUSH2 0x698 JUMP JUMPDEST PUSH0 DUP5 DUP5 ADD MSTORE POP POP POP POP JUMP JUMPDEST PUSH0 PUSH1 0x1F NOT PUSH1 0x1F DUP4 ADD AND SWAP1 POP SWAP2 SWAP1 POP JUMP JUMPDEST PUSH0 PUSH2 0x6D8 DUP3 PUSH2 0x67C JUMP JUMPDEST PUSH2 0x6E2 DUP2 DUP6 PUSH2 0x686 JUMP JUMPDEST SWAP4 POP PUSH2 0x6F2 DUP2 DUP6 PUSH1 0x20 DUP7 ADD PUSH2 0x696 JUMP JUMPDEST PUSH2 0x6FB DUP2 PUSH2 0x6BE JUMP JUMPDEST DUP5 ADD SWAP2 POP POP SWAP3 SWAP2 POP POP JUMP JUMPDEST PUSH0 PUSH1 0x20 DUP3 ADD SWAP1 POP DUP2 DUP2 SUB PUSH0 DUP4 ADD MSTORE PUSH2 0x71E DUP2 DUP5 PUSH2 0x6CE JUMP JUMPDEST SWAP1 POP SWAP3 SWAP2 POP POP JUMP JUMPDEST PUSH0 DUP2 SWAP1 POP SWAP2 SWAP1 POP JUMP JUMPDEST PUSH2 0x738 DUP2 PUSH2 0x726 JUMP JUMPDEST DUP3 MSTORE POP POP JUMP JUMPDEST PUSH0 PUSH1 0x20 DUP3 ADD SWAP1 POP PUSH2 0x751 PUSH0 DUP4 ADD DUP5 PUSH2 0x72F JUMP JUMPDEST SWAP3 SWAP2 POP POP JUMP JUMPDEST PUSH32 0x4E487B7100000000000000000000000000000000000000000000000000000000 PUSH0 MSTORE PUSH1 0x22 PUSH1 0x4 MSTORE PUSH1 0x24 PUSH0 REVERT JUMPDEST PUSH0 PUSH1 0x2 DUP3 DIV SWAP1 POP PUSH1 0x1 DUP3 AND DUP1 PUSH2 0x79B JUMPI PUSH1 0x7F DUP3 AND SWAP2 POP JUMPDEST PUSH1 0x20 DUP3 LT DUP2 SUB PUSH2 0x7AE JUMPI PUSH2 0x7AD PUSH2 0x757 JUMP JUMPDEST JUMPDEST POP SWAP2 SWAP1 POP JUMP JUMPDEST PUSH32 0x4E487B7100000000000000000000000000000000000000000000000000000000 PUSH0 MSTORE PUSH1 0x41 PUSH1 0x4 MSTORE PUSH1 0x24 PUSH0 REVERT JUMPDEST PUSH0 DUP2 SWAP1 POP DUP2 PUSH0 MSTORE PUSH1 0x20 PUSH0 KECCAK256 SWAP1 POP SWAP2 SWAP1 POP JUMP JUMPDEST PUSH0 PUSH1 0x20 PUSH1 0x1F DUP4 ADD DIV SWAP1 POP SWAP2 SWAP1 POP JUMP JUMPDEST PUSH0 DUP3 DUP3 SHL SWAP1 POP SWAP3 SWAP2 POP POP JUMP JUMPDEST PUSH0 PUSH1 0x8 DUP4 MUL PUSH2 0x83D PUSH32 0xFFFFFFFFFFFFFFFFFFFFFFFFFFFFFFFFFFFFFFFFFFFFFFFFFFFFFFFFFFFFFFFF DUP3 PUSH2 0x802 JUMP JUMPDEST PUSH2 0x847 DUP7 DUP4 PUSH2 0x802 JUMP JUMPDEST SWAP6 POP DUP1 NOT DUP5 AND SWAP4 POP DUP1 DUP7 AND DUP5 OR SWAP3 POP POP POP SWAP4 SWAP3 POP POP POP JUMP JUMPDEST PUSH0 DUP2 SWAP1 POP SWAP2 SWAP1 POP JUMP JUMPDEST PUSH0 DUP2 SWAP1 POP SWAP2 SWAP1 POP JUMP JUMPDEST PUSH0 PUSH2 0x88B PUSH2 0x886 PUSH2 0x881 DUP5 PUSH2 0x85F JUMP JUMPDEST PUSH2 0x868 JUMP JUMPDEST PUSH2 0x85F JUMP JUMPDEST SWAP1 POP SWAP2 SWAP1 POP JUMP JUMPDEST PUSH0 DUP2 SWAP1 POP SWAP2 SWAP1 POP JUMP JUMPDEST PUSH2 0x8A4 DUP4 PUSH2 0x871 JUMP JUMPDEST PUSH2 0x8B8 PUSH2 0x8B0 DUP3 PUSH2 0x892 JUMP JUMPDEST DUP5 DUP5 SLOAD PUSH2 0x80E JUMP JUMPDEST DUP3 SSTORE POP POP POP POP JUMP JUMPDEST PUSH0 SWAP1 JUMP JUMPDEST PUSH2 0x8CC PUSH2 0x8C0 JUMP JUMPDEST PUSH2 0x8D7 DUP2 DUP5 DUP5 PUSH2 0x89B JUMP JUMPDEST POP POP POP JUMP JUMPDEST JUMPDEST DUP2 DUP2 LT ISZERO PUSH2 0x8FA JUMPI PUSH2 0x8EF PUSH0 DUP3 PUSH2 0x8C4 JUMP JUMPDEST PUSH1 0x1 DUP2 ADD SWAP1 POP PUSH2 0x8DD JUMP JUMPDEST POP POP JUMP JUMPDEST PUSH1 0x1F DUP3 GT ISZERO PUSH2 0x93F JUMPI PUSH2 0x910 DUP2 PUSH2 0x7E1 JUMP JUMPDEST PUSH2 0x919 DUP5 PUSH2 0x7F3 JUMP JUMPDEST DUP2 ADD PUSH1 0x20 DUP6 LT ISZERO PUSH2 0x928 JUMPI DUP2 SWAP1 POP JUMPDEST PUSH2 0x93C PUSH2 0x934 DUP6 PUSH2 0x7F3 JUMP JUMPDEST DUP4 ADD DUP3 PUSH2 0x8DC JUMP JUMPDEST POP POP JUMPDEST POP POP POP JUMP JUMPDEST PUSH0 DUP3 DUP3 SHR SWAP1 POP SWAP3 SWAP2 POP POP JUMP JUMPDEST PUSH0 PUSH2 0x95F PUSH0 NOT DUP5 PUSH1 0x8 MUL PUSH2 0x944 JUMP JUMPDEST NOT DUP1 DUP4 AND SWAP2 POP POP SWAP3 SWAP2 POP POP JUMP JUMPDEST PUSH0 PUSH2 0x977 DUP4 DUP4 PUSH2 0x950 JUMP JUMPDEST SWAP2 POP DUP3 PUSH1 0x2 MUL DUP3 OR SWAP1 POP SWAP3 SWAP2 POP POP JUMP JUMPDEST PUSH2 0x990 DUP3 PUSH2 0x67C JUMP JUMPDEST PUSH8 0xFFFFFFFFFFFFFFFF DUP2 GT ISZERO PUSH2 0x9A9 JUMPI PUSH2 0x9A8 PUSH2 0x7B4 JUMP JUMPDEST JUMPDEST PUSH2 0x9B3 DUP3 SLOAD PUSH2 0x784 JUMP JUMPDEST PUSH2 0x9BE DUP3 DUP3 DUP6 PUSH2 0x8FE JUMP JUMPDEST PUSH0 PUSH1 0x20 SWAP1 POP PUSH1 0x1F DUP4 GT PUSH1 0x1 DUP2 EQ PUSH2 0x9EF JUMPI PUSH0 DUP5 ISZERO PUSH2 0x9DD JUMPI DUP3 DUP8 ADD MLOAD SWAP1 POP JUMPDEST PUSH2 0x9E7 DUP6 DUP3 PUSH2 0x96C JUMP JUMPDEST DUP7 SSTORE POP PUSH2 0xA4E JUMP JUMPDEST PUSH1 0x1F NOT DUP5 AND PUSH2 0x9FD DUP7 PUSH2 0x7E1 JUMP JUMPDEST PUSH0 JUMPDEST DUP3 DUP2 LT ISZERO PUSH2 0xA24 JUMPI DUP5 DUP10 ADD MLOAD DUP3 SSTORE PUSH1 0x1 DUP3 ADD SWAP2 POP PUSH1 0x20 DUP6 ADD SWAP5 POP PUSH1 0x20 DUP2 ADD SWAP1 POP PUSH2 0x9FF JUMP JUMPDEST DUP7 DUP4 LT ISZERO PUSH2 0xA41 JUMPI DUP5 DUP10 ADD MLOAD PUSH2 0xA3D PUSH1 0x1F DUP10 AND DUP3 PUSH2 0x950 JUMP JUMPDEST DUP4 SSTORE POP JUMPDEST PUSH1 0x1 PUSH1 0x2 DUP9 MUL ADD DUP9 SSTORE POP POP POP JUMPDEST POP POP POP POP POP POP JUMP JUMPDEST PUSH0 PUSH8 0xFFFFFFFFFFFFFFFF DUP3 AND SWAP1 POP SWAP2 SWAP1 POP JUMP JUMPDEST PUSH2 0xA72 DUP2 PUSH2 0xA56 JUMP JUMPDEST DUP3 MSTORE POP POP JUMP JUMPDEST PUSH2 0xA81 DUP2 PUSH2 0x85F JUMP JUMPDEST DUP3 MSTORE POP POP JUMP JUMPDEST PUSH0 PUSH2 0xAA1 PUSH2 0xA9C PUSH2 0xA97 DUP5 PUSH2 0xA56 JUMP JUMPDEST PUSH2 0x868 JUMP JUMPDEST PUSH2 0xA56 JUMP JUMPDEST SWAP1 POP SWAP2 SWAP1 POP JUMP JUMPDEST PUSH2 0xAB1 DUP2 PUSH2 0xA87 JUMP JUMPDEST DUP3 MSTORE POP POP JUMP JUMPDEST PUSH0 PUSH1 0xC0 DUP3 ADD SWAP1 POP PUSH2 0xACA PUSH0 DUP4 ADD DUP10 PUSH2 0xA69 JUMP JUMPDEST PUSH2 0xAD7 PUSH1 0x20 DUP4 ADD DUP9 PUSH2 0xA78 JUMP JUMPDEST PUSH2 0xAE4 PUSH1 0x40 DUP4 ADD DUP8 PUSH2 0xA69 JUMP JUMPDEST PUSH2 0xAF1 PUSH1 0x60 DUP4 ADD DUP7 PUSH2 0xA69 JUMP JUMPDEST DUP2 DUP2 SUB PUSH1 0x80 DUP4 ADD MSTORE PUSH2 0xB03 DUP2 DUP6 PUSH2 0x6CE JUMP JUMPDEST SWAP1 POP PUSH2 0xB12 PUSH1 0xA0 DUP4 ADD DUP5 PUSH2 0xAA8 JUMP JUMPDEST SWAP8 SWAP7 POP POP POP POP POP POP POP JUMP JUMPDEST PUSH0 DUP2 SWAP1 POP SWAP3 SWAP2 POP POP JUMP JUMPDEST PUSH0 PUSH2 0xB31 DUP3 PUSH2 0x67C JUMP JUMPDEST PUSH2 0xB3B DUP2 DUP6 PUSH2 0xB1D JUMP JUMPDEST SWAP4 POP PUSH2 0xB4B DUP2 DUP6 PUSH1 0x20 DUP7 ADD PUSH2 0x696 JUMP JUMPDEST DUP1 DUP5 ADD SWAP2 POP POP SWAP3 SWAP2 POP POP JUMP JUMPDEST PUSH0 PUSH2 0xB62 DUP3 DUP5 PUSH2 0xB27 JUMP JUMPDEST SWAP2 POP DUP2 SWAP1 POP SWAP3 SWAP2 POP POP JUMP JUMPDEST PUSH0 DUP3 DUP3 MSTORE PUSH1 0x20 DUP3 ADD SWAP1 POP SWAP3 SWAP2 POP POP JUMP JUMPDEST PUSH32 0x496E76616C69642043424F520000000000000000000000000000000000000000 PUSH0 DUP3 ADD MSTORE POP JUMP JUMPDEST PUSH0 PUSH2 0xBB1 PUSH1 0xC DUP4 PUSH2 0xB6D JUMP JUMPDEST SWAP2 POP PUSH2 0xBBC DUP3 PUSH2 0xB7D JUMP JUMPDEST PUSH1 0x20 DUP3 ADD SWAP1 POP SWAP2 SWAP1 POP JUMP JUMPDEST PUSH0 PUSH1 0x20 DUP3 ADD SWAP1 POP DUP2 DUP2 SUB PUSH0 DUP4 ADD MSTORE PUSH2 0xBDE DUP2 PUSH2 0xBA5 JUMP JUMPDEST SWAP1 POP SWAP2 SWAP1 POP JUMP JUMPDEST PUSH0 PUSH1 0x40 DUP3 ADD SWAP1 POP PUSH2 0xBF8 PUSH0 DUP4 ADD DUP6 PUSH2 0xA78 JUMP JUMPDEST PUSH2 0xC05 PUSH1 0x20 DUP4 ADD DUP5 PUSH2 0xA78 JUMP JUMPDEST SWAP4 SWAP3 POP POP POP JUMP JUMPDEST PUSH0 PUSH1 0x40 MLOAD SWAP1 POP SWAP1 JUMP JUMPDEST PUSH0 DUP1 REVERT JUMPDEST PUSH0 DUP1 REVERT JUMPDEST PUSH2 0xC26 DUP2 PUSH2 0x726 JUMP JUMPDEST DUP2 EQ PUSH2 0xC30 JUMPI PUSH0 DUP1 REVERT JUMPDEST POP JUMP JUMPDEST PUSH0 DUP2 MLOAD SWAP1 POP PUSH2 0xC41 DUP2 PUSH2 0xC1D JUMP JUMPDEST SWAP3 SWAP2 POP POP JUMP JUMPDEST PUSH2 0xC50 DUP2 PUSH2 0xA56 JUMP JUMPDEST DUP2 EQ PUSH2 0xC5A JUMPI PUSH0 DUP1 REVERT JUMPDEST POP JUMP JUMPDEST PUSH0 DUP2 MLOAD SWAP1 POP PUSH2 0xC6B DUP2 PUSH2 0xC47 JUMP JUMPDEST SWAP3 SWAP2 POP POP JUMP JUMPDEST PUSH0 DUP1 REVERT JUMPDEST PUSH0 DUP1 REVERT JUMPDEST PUSH2 0xC82 DUP3 PUSH2 0x6BE JUMP JUMPDEST DUP2 ADD DUP2 DUP2 LT PUSH8 0xFFFFFFFFFFFFFFFF DUP3 GT OR ISZERO PUSH2 0xCA1 JUMPI PUSH2 0xCA0 PUSH2 0x7B4 JUMP JUMPDEST JUMPDEST DUP1 PUSH1 0x40 MSTORE POP POP POP JUMP JUMPDEST PUSH0 PUSH2 0xCB3 PUSH2 0xC0C JUMP JUMPDEST SWAP1 POP PUSH2 0xCBF DUP3 DUP3 PUSH2 0xC79 JUMP JUMPDEST SWAP2 SWAP1 POP JUMP JUMPDEST PUSH0 PUSH8 0xFFFFFFFFFFFFFFFF DUP3 GT ISZERO PUSH2 0xCDE JUMPI PUSH2 0xCDD PUSH2 0x7B4 JUMP JUMPDEST JUMPDEST PUSH2 0xCE7 DUP3 PUSH2 0x6BE JUMP JUMPDEST SWAP1 POP PUSH1 0x20 DUP2 ADD SWAP1 POP SWAP2 SWAP1 POP JUMP JUMPDEST PUSH0 PUSH2 0xD06 PUSH2 0xD01 DUP5 PUSH2 0xCC4 JUMP JUMPDEST PUSH2 0xCAA JUMP JUMPDEST SWAP1 POP DUP3 DUP2 MSTORE PUSH1 0x20 DUP2 ADD DUP5 DUP5 DUP5 ADD GT ISZERO PUSH2 0xD22 JUMPI PUSH2 0xD21 PUSH2 0xC75 JUMP JUMPDEST JUMPDEST PUSH2 0xD2D DUP5 DUP3 DUP6 PUSH2 0x696 JUMP JUMPDEST POP SWAP4 SWAP3 POP POP POP JUMP JUMPDEST PUSH0 DUP3 PUSH1 0x1F DUP4 ADD SLT PUSH2 0xD49 JUMPI PUSH2 0xD48 PUSH2 0xC71 JUMP JUMPDEST JUMPDEST DUP2 MLOAD PUSH2 0xD59 DUP5 DUP3 PUSH1 0x20 DUP7 ADD PUSH2 0xCF4 JUMP JUMPDEST SWAP2 POP POP SWAP3 SWAP2 POP POP JUMP JUMPDEST PUSH0 DUP1 PUSH0 PUSH1 0x60 DUP5 DUP7 SUB SLT ISZERO PUSH2 0xD79 JUMPI PUSH2 0xD78 PUSH2 0xC15 JUMP JUMPDEST JUMPDEST PUSH0 PUSH2 0xD86 DUP7 DUP3 DUP8 ADD PUSH2 0xC33 JUMP JUMPDEST SWAP4 POP POP PUSH1 0x20 PUSH2 0xD97 DUP7 DUP3 DUP8 ADD PUSH2 0xC5D JUMP JUMPDEST SWAP3 POP POP PUSH1 0x40 DUP5 ADD MLOAD PUSH8 0xFFFFFFFFFFFFFFFF DUP2 GT ISZERO PUSH2 0xDB8 JUMPI PUSH2 0xDB7 PUSH2 0xC19 JUMP JUMPDEST JUMPDEST PUSH2 0xDC4 DUP7 DUP3 DUP8 ADD PUSH2 0xD35 JUMP JUMPDEST SWAP2 POP POP SWAP3 POP SWAP3 POP SWAP3 JUMP JUMPDEST PUSH0 PUSH1 0x20 DUP3 ADD SWAP1 POP PUSH2 0xDE1 PUSH0 DUP4 ADD DUP5 PUSH2 0xA69 JUMP JUMPDEST SWAP3 SWAP2 POP POP JUMP JUMPDEST PUSH32 0x4E487B7100000000000000000000000000000000000000000000000000000000 PUSH0 MSTORE PUSH1 0x12 PUSH1 0x4 MSTORE PUSH1 0x24 PUSH0 REVERT JUMPDEST PUSH0 PUSH2 0xE1E DUP3 PUSH2 0x85F JUMP JUMPDEST SWAP2 POP PUSH2 0xE29 DUP4 PUSH2 0x85F JUMP JUMPDEST SWAP3 POP DUP3 PUSH2 0xE39 JUMPI PUSH2 0xE38 PUSH2 0xDE7 JUMP JUMPDEST JUMPDEST DUP3 DUP3 MOD SWAP1 POP SWAP3 SWAP2 POP POP JUMP JUMPDEST PUSH32 0x4E487B7100000000000000000000000000000000000000000000000000000000 PUSH0 MSTORE PUSH1 0x11 PUSH1 0x4 MSTORE PUSH1 0x24 PUSH0 REVERT JUMPDEST PUSH0 PUSH2 0xE7B DUP3 PUSH2 0x85F JUMP JUMPDEST SWAP2 POP PUSH2 0xE86 DUP4 PUSH2 0x85F JUMP JUMPDEST SWAP3 POP DUP3 DUP3 SUB SWAP1 POP DUP2 DUP2 GT ISZERO PUSH2 0xE9E JUMPI PUSH2 0xE9D PUSH2 0xE44 JUMP JUMPDEST JUMPDEST SWAP3 SWAP2 POP POP JUMP JUMPDEST PUSH0 PUSH2 0xEAE DUP3 PUSH2 0x85F JUMP JUMPDEST SWAP2 POP PUSH2 0xEB9 DUP4 PUSH2 0x85F JUMP JUMPDEST SWAP3 POP DUP3 DUP3 ADD SWAP1 POP DUP1 DUP3 GT ISZERO PUSH2 0xED1 JUMPI PUSH2 0xED0 PUSH2 0xE44 JUMP JUMPDEST JUMPDEST SWAP3 SWAP2 POP POP JUMP INVALID LOG2 PUSH5 0x6970667358 0x22 SLT KECCAK256 LOG1 0xE9 CALLDATALOAD 0x2F 0xAC PUSH19 0x9B3CB3E8E05A9665D4D828FDB5B372D7DEDC0A CALLCODE PUSH21 0xCD8A67D5CA64736F6C634300081800330000000000 "
		},
		"gasEstimates": {
			"creation": {
				"codeDepositCost": "770600",
				"executionCost": "803",
				"totalCost": "771403"
			},
			"external": {
				"buffer()": "infinite",
				"num_response()": "2425",
				"raw_response()": "infinite",
				"test()": "infinite"
			},
			"internal": {
				"_serializeRandomXParameters()": "infinite"
			}
		},
		"methodIdentifiers": {
			"buffer()": "edaafe20",
			"num_response()": "ebc55729",
			"raw_response()": "a6f73547",
			"test()": "f8a8fd6d"
		}
	},
	"abi": [
		{
			"inputs": [],
			"name": "ActorNotFound",
			"type": "error"
		},
		{
			"inputs": [],
			"name": "FailToCallActor",
			"type": "error"
		},
		{
			"inputs": [
				{
					"internalType": "uint64",
					"name": "",
					"type": "uint64"
				}
			],
			"name": "InvalidCodec",
			"type": "error"
		},
		{
			"inputs": [],
			"name": "InvalidResponseLength",
			"type": "error"
		},
		{
			"inputs": [
				{
					"internalType": "uint256",
					"name": "balance",
					"type": "uint256"
				},
				{
					"internalType": "uint256",
					"name": "value",
					"type": "uint256"
				}
			],
			"name": "NotEnoughBalance",
			"type": "error"
		},
		{
			"inputs": [],
			"name": "buffer",
			"outputs": [
				{
					"internalType": "bytes",
					"name": "",
					"type": "bytes"
				}
			],
			"stateMutability": "view",
			"type": "function"
		},
		{
			"inputs": [],
			"name": "num_response",
			"outputs": [
				{
					"internalType": "int256",
					"name": "",
					"type": "int256"
				}
			],
			"stateMutability": "view",
			"type": "function"
		},
		{
			"inputs": [],
			"name": "raw_response",
			"outputs": [
				{
					"internalType": "bytes",
					"name": "",
					"type": "bytes"
				}
			],
			"stateMutability": "view",
			"type": "function"
		},
		{
			"inputs": [],
			"name": "test",
			"outputs": [],
			"stateMutability": "nonpayable",
			"type": "function"
		}
	]
}